:020000040800F2
:10000000403300208D410008D93F0008DB3F000845
:10001000DD3F0008DF3F0008E13F0008000000006E
:10002000000000000000000000000000E33F0008A6
:10003000E53F000800000000E73F00083B3B0008E8
:10004000E9410008ED410008F1410008F5410008D0
:10005000F9410008FD410008E93F00080542000899
:10006000094200080D42000811420008154200082C
:10007000194200081D4200082142000825420008DC
:10008000294200082D42000831420008354200088C
:10009000394200083D42000841420008454200083C
:1000A000494200084D4200085142000855420008EC
:1000B000594200085D42000861420008654200089C
:1000C000694200086D42000871420008754200084C
:1000D000692400087D420008A53500088542000813
:1000E000BB3000088D420008EB3F00089542000835
:1000F000994200089D420008A1420008A54200085C
:10010000A9420008AD420008B1420008B54200080B
:10011000B9420008BD420008C1420008C5420008BB
:10012000C9420008CD420008D1420008D54200086B
:10013000D9420008DD420008E1420008E54200081B
:10014000E9420008ED420008F142000815400008AD
:10015000F9420008FD420008014300080543000879
:10016000094300080D430008114300081543000827
:10017000194300081D4300082143000825430008D7
:10018000294300082D4300080021C2685FF0FF33B7
:100190005360C2685FF0FF33536151F0004151F486
:1001A0000061C0688161704770B582B004000025AD
:1001B000002600200090032000F0B5FDE0680069F3
:1001C0000090761CD448864201D300201CE00098A1
:1001D0000028F0D50026009850F001000090E0685B
:1001E00000990161E06800690090761CCA48864267
:1001F00005D2009810F00100C0B20028F2D103200F
:1002000000F091FD2800C0B276BDF0B41C000023C0
:10021000C578002D15D100250026A4B2E41C0427C2
:1002200094FBF7F42500D2B210EB8200D0F8D00096
:100230000022160003E00A680260761C091DAE4227
:10024000F9D31800C0B2F0BC704710B4002392B2CA
:10025000D21C042492FBF4F2D0F8D0000024230036
:1002600003E004680C605B1C091D9342F9D308008D
:1002700010BC704730B40A00002300210024C47071
:100280000124847040248480D2B2012A0DD15FF011
:10029000A0430122C27208220270042242704FF46D
:1002A000A072C280022202720CE0D2B2002A09D1EE
:1002B0009A4B0022C2720C220270062242704FF446
:1002C000A062C280C36013F50062026100220EE0EA
:1002D00010EB820413EB421515F51065A56110EBC8
:1002E000820413EB421515F530656565521C4478A0
:1002F000A242EDD313F58062426113F58862C0F823
:10030000CC20002208E010EB820413EB421515F517
:10031000A065C4F89050521C0478A242F3D3002286
:100320000AE010EB82044FF4805505FB023515F509
:100330008055C4F8D050521C0478A242F1D313F572
:100340006062C0F80C210800C0B230BC704770B5C4
:1003500004000025002000210026227A012A2CD149
:10036000E068816B31F48031607A002801D051F46B
:100370008011E06881630020E168C968080030F0FE
:10038000400030F4800050F0100030F0080030F0F1
:10039000800030F4003030F40020E168C8602000B4
:1003A000FFF702FFE07801284CD1052060F34406F6
:1003B00056F02006E068866044E0E068C06850F0CF
:1003C0004000E168C8602000FFF7EEFE002151F414
:1003D0008031207A032801D151F4003151F4802179
:1003E00051F4002151F40011607A002801D051F439
:1003F0008011E0688163142000F0A0FCE068C06810
:10040000217A032901D150F48030E168C860207A54
:10041000032817D1E068066B012060F39B6636F471
:10042000000656F080562D2060F31646E0680663FD
:10043000C82000F083FC56F40006E0680663C8207C
:1004400000F07CFCE078012808D1E068866805208F
:1004500060F3440656F02006E06886602800C0B2CB
:1004600070BD0021002252F00102C3689B681A434C
:10047000C06882600800C0B270470021002252F0BC
:100480000102C3689B6833EA0202C0688260080008
:10049000C0B2704710B582B0002400220023009340
:1004A000009B53F020030093009B61F38A13009399
:1004B000C168009B0B61C16809690091521C164913
:1004C0008A4204D20099C1F34011C907F3D4032032
:1004D00000F029FC2000C0B216BD10B582B0002487
:1004E000002100220092009A52F010020092C2688D
:1004F000009B1361C26812690092491C064A91422E
:1005000004D2009AC2F30012D207F3D4032000F001
:100510000AFC2000C0B216BD410D030000000440DB
:1005200010B50024C268D26832F0005232F0804226
:10053000C9B2012902D152F0005204E0C9B2002927
:1005400001D152F08042C068C260322000F0F6FB58
:100550002000C0B210BDC068406910F001007047B3
:1005600080B5FFF7F8FF012801D0012000E000204E
:10057000C0B202BD0021C26852691100C068806922
:1005800001400800704702691268C9B261F30102B4
:10059000006902607047F8B50400002500200022C1
:1005A000002600270021D4F80C315FF0000CC3F8BE
:1005B00000C023691B681A0032F4C05223691A6014
:1005C000E27A012A2AD103212000FFF7DCFFE0684C
:1005D00080214162202060F31F46802060F30F06D7
:1005E000E068866216EB164060F30F07802060F328
:1005F0001F47E068C0F8047117EB1740C0EA07070F
:10060000202060F31F47E068C0F8087117EB17401F
:10061000C0EA0707BFB2E068C0F80C7110212000E3
:10062000FFF738FF2000FFF758FF20690021016124
:1006300020690021416120695FF0FF3181612069FB
:100640000021C16100210FE0002014EB81029269BA
:10065000106014EB810080690022026114EB8100BC
:100660008069FF228260491C607881420BD214EBC2
:100670008100806900680028E6D5002050F08040A5
:1006800050F00060E1E700210FE0002014EB810250
:10069000526D106014EB8100406D0022026114EB7A
:1006A0008100406DFF228260491C607881420BD23C
:1006B00014EB8100406D00680028E6D5002050F062
:1006C000804050F00060E1E7002151F48071206922
:1006D00000698843084321690861E07801280ED148
:1006E000002050F0010050F00200402161F38A0028
:1006F00050F48030402161F35940216908632000A3
:1007000000F003F82800C0B2F2BD70B50400002567
:100710000026E06800218161E0685FF0FF314161FF
:100720002000FFF731FDE078002801D156F01006D7
:1007300056F4006656F4805656F4005656F4802659
:1007400056F4002656F0080656F4801656F40016A5
:10075000E0688069B0433043E16888612800C0B236
:1007600070BD002100698068400810F00300002877
:1007700005D0022807D004D3032802D004E00321C7
:1007800002E0022100E001210800C0B2704710B46D
:10079000002100240269926883691B68520812F0E4
:1007A0000302002A04D0022A05D001D3032A05D16E
:1007B000DB0ADB0202E0032262F30A0382691360B0
:1007C00054F4807402695268A24322430069426073
:1007D0000800C0B210BC704770B40A0000210025A8
:1007E00000235478012C0AD1147810EB8404A469F6
:1007F000012592F90060B54065F30F0309E0147814
:1008000010EB8404646D012592F90060B54065F336
:100810001F432568C5F3C036F6070DD4966866F306
:100820000A05D67866F39345D28862F3995555F058
:10083000805555F4004525600269D2691A43006964
:10084000C2610800C0B270BC704770B40A000021D9
:10085000002300245578012D0BD1157810EB850568
:10086000AD69012692F9002016FA02F262F30F0434
:100870000AE0157810EB85056D6D012692F90020D0
:1008800016FA02F262F31F4433F400432B6002694C
:10089000D269A2430069C2610800C0B270BC70474F
:1008A00070B500240025002200234E78012E62D16D
:1008B0000A7810EB8202926912680B7810EB8303BE
:1008C0009B691B694D69002D05D1DB0CDB040125FB
:1008D00065F3DC4311E04D6965F312034D698E68E1
:1008E00075196D1E8E68B5FBF6F565F3DC43CD78A2
:1008F000012D02D1012565F35E730D7810EB85059E
:10090000AD692B61C378012B06D10B7810EB830303
:100910009B690D695D610FE0CB78012B0CD04B69B1
:10092000002B09D0012391F9005013FA05F5036952
:100930005B6B2B4305696B63CB78012B08D1036993
:100940009B68DB0502D452F0005201E052F0805265
:1009500052F0806252F000420B7810EB83039B69E7
:100960001A60CA78012A4BD14B699BB20A78C968D0
:10097000FFF74BFC44E00A7810EB8202526D1268DC
:100980000B7810EB83035B6D1B694D69002D06D15D
:100990008D6865F31203012565F3DC430EE04D69B4
:1009A0008E6875196D1E8E68B5FBF6F565F3DC4330
:1009B000C3F3C9458E68754365F312030D7810EBD8
:1009C00085056D6D2B61C378012B05D10B7810EB7C
:1009D00083035B6D0D695D61CB78012B07D14B798A
:1009E000002B02D052F0005201E052F0805252F03F
:1009F000806252F00042097810EB8100406D026085
:100A00002000C0B270BDFCB40022002400230025E9
:100A100000954D78012D48D185692B682E69009687
:100A20004E69002E09D1009EF609F60100960126B6
:100A3000009F66F3D447009715E08E684F69BE4269
:100A400007D28E684E618E68009F66F30607009796
:100A500004E04E69009F66F3060700970126009F99
:100A600066F3D4470097009E2E61C678012E05D10B
:100A70000E7810EB8606B6690F69776153F08063D4
:100A800053F000432B60C378002B4BD14B69002BF4
:100A900048D0012391F9001013FA01F10C430169C8
:100AA000496B2143006941633CE00B7810EB830301
:100AB0005B6D1B680C7810EB8404646D24690094F2
:100AC0004C69002C0AD18C68009D64F306050095E2
:100AD0000124009D64F3D44500950BE08C684C61C3
:100AE0008C68009D64F3060500950124009D64F365
:100AF000D44500950C7810EB8404646D009D25614D
:100B0000C478012C05D10C7810EB8404646D0D6958
:100B1000656153F0806353F00043097810EB810066
:100B2000406D03601000C0B2F6BC704710B40022E4
:100B300000234C78012C0CD1097810EB81008069DE
:100B40000368002B01D553F0804353F40013036076
:100B500007E0097810EB8100406D036853F400133F
:100B600003601000C0B210BC704710B40022002314
:100B70004C78012C04D10B7810EB8300806903E0E2
:100B80000B7810EB8300406D036833F40013CC78CE
:100B9000032C02D0C978022901D153F0805303609D
:100BA0001000C0B210BC7047016989690069C06952
:100BB0000140080C7047C9B210EB8101496D89688A
:100BC000006940690140080070470169896900694E
:100BD000C069014088B2704782B00021009100993D
:100BE00051F0404100910121009A61F3D4420092FA
:100BF0001821009A61F306020092416D009A0A6181
:100C0000C17801290ED10021426D00F2C853536111
:100C1000426D1268110051F000415FF08022110016
:100C2000406D016002B07047817A00290FD00169E0
:100C3000896811F00101C9B2002908D0D0F80C115F
:100C400031F0020149084900D0F80C0101607047F9
:100C500000B583B00121012000F0FFF84FF4D85017
:100C6000009003208DF8050002208DF8040000207C
:100C70008DF8060000208DF8070000A91E4800F03E
:100C800063F90A2208211C4800F0C0F90A22092150
:100C9000194800F0BBF90A220B21174800F0B6F9F9
:100CA0000A220C21144800F0B1F94FF48060009042
:100CB00001208DF8060001208DF8070003208DF833
:100CC000050000A90C4800F03FF90A220A210A4851
:100CD00000F09CF901214FF4804000F0EEF8012172
:100CE000802000F0CAF801215FF0805000F0F5F894
:100CF000012000F01BFA07BD0000024080B54FF450
:100D0000C06000F021FA43208DF8000001208DF82A
:100D1000010003208DF8020001208DF8030000A8D7
:100D200000F017FA01BD0021782250430722B0FBE2
:100D3000F2F0FFE7491C8842FCD2704780B54FF4BF
:100D40007A714843FFF7EFFF01BD10B450F8041B60
:100D500081B102681218001D50F8043BDC0744BF43
:100D6000A9F10104E31852F8044B43F8044B091F9E
:100D7000F9D1EBE710BC7047F0B40021002200234A
:100D8000022400250226DFF894713F6817F00C0753
:100D90003900002904D0042906D0082908D035E0FC
:100DA000DFF88011016034E0DFF87C11016030E091
:100DB000DFF86C110968C1F38055DFF86411096828
:100DC00011F03F06002D0BD0DFF85C11B1FBF6F1FE
:100DD000DFF84C211268C2F3881202FB01F30AE02B
:100DE000DFF84011B1FBF6F1DFF834211268C2F3ED
:100DF000881202FB01F3DFF828110968C1F30141F1
:100E0000491C4C00B3FBF4F1016002E0DFF814115F
:100E10000160DFF80811096811F0F0010909DFF835
:100E20000C218A5C0168D14041603C49096811F499
:100E3000E051890ADFF8F4208A5C4168D140816082
:100E40003649096811F46041490BDFF8E0208A5CFB
:100E50004168D140C160F0BC7047C9B2002905D0DB
:100E60003349096808433249086005E03049096898
:100E700031EA00002E4908607047C9B2002905D048
:100E80002C49096808432B49086005E0294909688D
:100E900031EA0000274908607047C9B2002905D02F
:100EA0002549096808432449086005E02249096882
:100EB00031EA0000204908607047C9B2002905D016
:100EC0001E49096808431D49086005E01B49096877
:100ED00031EA0000194908607047C9B2002905D0FD
:100EE0001749096808431649086005E0144909686C
:100EF00031EA0000124908607047C9B2002905D0E4
:100F00001049096808430F49086005E00D49096860
:100F100031EA00000B4908607047000008380240C1
:100F2000043802400024F40000127A00FC00002083
:100F300030380240343802404038024044380240E1
:100F4000203802402438024030B40022002300241C
:100F500000252A0047E0012393400C681C409C4276
:100F600040D1036803241500EDB26D00AC40A343EB
:100F7000036003680C791500EDB26D00AC402343AB
:100F800003600B79012B02D00B79022B1AD18368F5
:100F900003241500EDB26D00AC40A3438360836869
:100FA0004C791500EDB26D00AC402343836043687B
:100FB00001249440A343436043688C799440A4B2D5
:100FC00023434360C36803241500EDB26D00AC40B9
:100FD000A343C360C368CC791500EDB26D00AC408B
:100FE0002343C360521C102AB5D330BC7047002283
:100FF000006989B2084201D0012200E000221000FD
:10100000C0B270470183704741837047F0B400233A
:101010000024D2B211F00705EDB2AD00AA401300D2
:1010200089B2CA1010EB820289B2CD1010EB85058F
:101030002D6A0F2611F00707FFB2BF00BE40B5436F
:10104000156289B2CA1010EB8202126A1A431400A8
:1010500089B2C91010EB81000462F0BC704750F8EF
:10106000041B61B150F8042BD30744BFA9F101035D
:101070009A18002342F8043B091FFAD1EFE77047A2
:1010800000212C4A11008279002A35D0294A1268A1
:1010900003689A43274B1A60274A126803689A43E9
:1010A000254B1A60027989180A6803681A430A6096
:1010B0002249096802689143204A11602049096861
:1010C000026891431E4A1160417910290CD11B49D5
:1010D000096802681143194A1160194909680068D2
:1010E0000843174908600EE01249427989180A68D6
:1010F00000681043086006E0027989180A680068F1
:1011000032EA00000860704700210022094B1B688A
:1011100003401A000B4B1B68034203D0002A01D086
:10112000012100E000210800C0B2704705490860B5
:1011300070470000003C0140043C0140083C014075
:101140000C3C0140143C01402749084327490860F2
:10115000704710B4002100220F23C478002C1FD048
:101160002249096811F4E061D1F5E061090AD1F181
:101170000402DBB20B414178914082781A4011435E
:10118000090102781A4BD15401784911194A0123F7
:10119000007810F01F0013FA00F042F821000AE076
:1011A00001784911144A0123007810F01F0013FA46
:1011B00000F042F8210010BC7047104A114008436B
:1011C0000F4908607047042806D10E48006850F0A7
:1011D00004000C49086005E00A48006830F004008B
:1011E00008490860704700000000FA050CED00E0B7
:1011F00000E400E000E100E080E100E080FFFF1F8C
:1012000008ED00E010E000E010B500244A78002A64
:1012100018D0012A1CD0032A17D0052A09D0062A83
:1012200004D0082A0BD0092A06D014E000F0EFF809
:1012300013E000F07CF910E000F0A5F90DE000F0FB
:1012400002FA0AE000F01BFA07E000F039FA04E0C5
:1012500000F077FA01E000F0B0FA2000C0B210BD53
:1012600070B504000D00002694F81201032818D16F
:10127000A888C0B202280FD229002000D4F8E025A7
:1012800092689047E88800280AD1F6B2002E07D16C
:10129000200000F017FB03E02900200000F08DFA89
:1012A00003E02900200000F088FA3000C0B270BDD1
:1012B00070B505000E000024B1887078002860D059
:1012C000012830D0032840F09F8095F812010228B1
:1012D00002D003280BD021E0C9B2002906D0C9B240
:1012E000802903D0C9B2280000F0EAFB1AE0708818
:1012F000002809D1C9B2002906D0C9B2802903D07B
:10130000C9B2280000F0DCFB31002800D5F8E02548
:1013100092689047280000F0D5FA03E031002800D9
:1013200000F04BFA70E095F81201022802D0032871
:101330000BD021E0C9B2002906D0C9B2802903D060
:10134000C9B2280000F0BCFB1AE07088002812D156
:10135000C9B200290CD0C9B2802909D0C9B228006D
:1013600000F0D1FB31002800D5F8E02592689047C5
:10137000280000F0A7FA03E03100280000F01DFA71
:1013800042E095F81201022802D003280BD036E083
:10139000C9B2002906D0C9B2802903D0C9B2280039
:1013A00000F08EFB2FE0C9B2080611D5C9B211F0CA
:1013B0007F00282101FB005090F81A01002803D07B
:1013C000BB480121016014E0B9480021016010E030
:1013D00008060ED4C9B2282000FB015090F8720311
:1013E000002803D0B2480121016002E0B04800218A
:1013F00001600222AE49280000F026FA03E0310025
:10140000280000F0DAF9FFE72000C0B270BD38B55F
:1014100004000D00688880B2000AC0B2012808D01C
:10142000022825D003282ED0062867D007286AD0A6
:101430006EE000A9A078D4F8E82512689047E98802
:10144000402903D094F81211012902D10821ADF8E6
:101450000010BDF80010002968D0E988002965D087
:10146000BDF80010EA88914257D2BDF8001055E04F
:1014700000A9A078D4F8E025926A90470221417033
:10148000C4F8EC05E5E7A878002808D0022814D0B5
:101490000CD304281FD017D3052823D029E000A996
:1014A000A078D4F8E82552689047D2E700A9A07840
:1014B000D4F8E82592689047F7E700A9A078D4F817
:1014C000E825D2689047F0E700A9A078D4F8E8258D
:1014D00012699047E9E700A9A078D4F8E825526995
:1014E0009047E2E700A9A078D4F8E82592699047F0
:1014F000DBE72900200000F060F917E02900200058
:1015000000F05BF912E02900200000F056F90DE030
:101510002900200000F051F908E0E988ADF800103A
:10152000BDF800200100200000F08EF931BD38B573
:1015300004008888002822D1C88800281FD1887814
:1015400010F07F0594F81201032803D1200000F069
:1015500034F917E084F813512900C9B2200000F0D3
:10156000F5FA200000F0AEF9EDB2002D03D0022014
:1015700084F8120106E0012084F8120102E0200044
:1015800000F01BF931BD10B504004888494A1070BD
:1015900048480078022803D3200000F00EF951E0FB
:1015A00094F81201022802D0032818D047E04148DD
:1015B000007800280FD03F48007884F810010320FD
:1015C00084F812013B480178200000F0F5FB200070
:1015D00000F078F902E0200000F074F932E03548BC
:1015E000007800280FD1022084F8120131480078D9
:1015F00084F810012F480178200000F0EBFB200058
:1016000000F060F91AE02B48007894F81011884235
:1016100011D094F81011200000F0DCFB2548007870
:1016200084F8100123480178200000F0C5FB200059
:1016300000F048F902E0200000F044F902E0200048
:1016400000F0BBF810BD80B5CA88012A02D000F0B6
:10165000B4F813E090F81221022A02D0032A05D030
:101660000AE00122144900F0EFF807E0012210F52A
:10167000887100F0E9F801E000F09FF801BD80B545
:1016800090F81221921E012A0FD8D0F814110029C7
:1016900003D00A4903220A6002E0084901220A60D5
:1016A0000122064900F0D0F801E000F086F801BD03
:1016B0002C13002039130020301300203413002095
:1016C00010B504000022488801280BD10120C4F87D
:1016D00014012000D4F8E02592689047200000F023
:1016E000F1F82DE0488802282AD10879000627D190
:1016F00020694068898889B20A0AD2B2012A07D0D3
:1017000019D3032A0CD007D3052A11D00CD312E029
:10171000012161F306100EE0022161F306100AE0D8
:10172000032161F3061006E0042161F3061002E0D4
:10173000052161F3061021694860200000F0C2F81D
:1017400010BD10B5040094F81201801E01280ED8B7
:10175000488801280AD10020C4F814012000D4F8D8
:10176000E02592689047200000F0ACF802E02000ED
:1017700000F023F810BD90F8C8250A7090F8C9252C
:101780004A7090F8CA2590F8CB351B029A184A8007
:1017900090F8CC2590F8CD351B029A188A8090F8E5
:1017A000CE2590F8CF351B029A18CA80C988C0F898
:1017B0003C11012180F81111704710B50400087820
:1017C000000604D58021200000F07AF90BE0C888DB
:1017D000002804D18021200000F072F903E00021EC
:1017E000200000F06DF92000FFF7F6F910BDF8B504
:1017F00004000D0017000026002C1AD0200000F075
:1018000019F84000801C3880F6B238887055761C74
:10181000F6B203207055761C08E0F6B220787055B9
:10182000641C761CF6B200207055761C20780028C7
:10183000F3D1F1BD002101E0491C401C0278002ACF
:10184000FAD10800C0B2704710B5002492B2C0F8B7
:10185000382192B2C0F83421022380F8113192B2BB
:1018600013000A00002100F00CF92000C0B210BDE6
:1018700010B5002492B213000A00002100F001F913
:101880002000C0B210BD10B5002492B2C0F8902361
:1018900092B2C0F88C23032380F8113113009BB25D
:1018A0000A00002100F0CAF82000C0B210BD10B537
:1018B000002413009BB20A00002100F0BFF82000B2
:1018C000C0B210BD38B504000025042084F8110111
:1018D000002300220021200000F0D3F82000FFF7B1
:1018E0007BF92800C0B232BD38B5040000250520C0
:1018F00084F81101002300220021200000F09EF84E
:101900002000FFF769F92800C0B232BD10B504000D
:10191000C9B22000FEF7AEFC012084F812010020BD
:1019200084F81301002011E0282101FB004111F58A
:101930008C7101224A700870C8800022CA7040224F
:101940008A600022CA6000224A61401C6178884295
:10195000EAD3002011E0282101FB004111F55C7160
:1019600000224A700870C8800022CA7040228A6033
:101970000022CA6000224A61401C61788842EAD392
:101980002000FEF77AFD2000FEF7E1FC0021200098
:10199000FEF7C6FD2000FEF7FEFD2000FEF761FD0C
:1019A00010BD38B5C9B20C0608D5C9B211F07F0414
:1019B000282505FB040414F58C7407E0C9B211F066
:1019C0007F04282505FB040414F55C7411F07F05E1
:1019D0002570C1F3C011617092B2A260E3706178AA
:1019E000002901D02178E180DBB2022B01D1002156
:1019F00021712100FEF7F0FE002032BD80B5C9B292
:101A00000A0608D5C9B211F07F02282303FB02029F
:101A100012F58C7207E0C9B211F07F02282303FB94
:101A2000020212F55C7211F07F031370C1F3C01152
:101A300051701100FEF709FF002002BD38B5C9B290
:101A400011F07F04282505FB040414F55C74E260A2
:101A50009BB263610023A3610023637011F07F01D7
:101A60002170C178012900D122612178002903D198
:101A70002100FEF7C8FF02E02100FEF711FF002061
:101A800032BD38B5C9B211F07F04282505FB040426
:101A900014F58C740125657011F07F012170E260EE
:101AA00022610021A16163612178002903D1210015
:101AB000FEF7A9FF02E02100FEF7F2FE002032BD92
:101AC00080B5C9B20A0608D5C9B211F07F02282331
:101AD00003FB020212F58C7205E0C9B2282202FB58
:101AE000010212F55C720123937011F07F031370F1
:101AF000C1F3C011C9B211F0010151701100FFF71B
:101B000015F8002002BD80B5C9B20A0608D5C9B2D1
:101B100011F07F02282303FB020212F58C7205E00C
:101B2000C9B2282202FB010212F55C7200239370F5
:101B300011F07F031370C1F3C011C9B211F001019C
:101B400051701100FFF711F8002002BD0022C9B248
:101B500061F30A1201690968114300690160704765
:101B60002DE9F04104000D0016001F00DDF818807B
:101B70002000FFF76DF8200000F014F8C4F8E075BD
:101B8000C4F8E485C4F8E8652900C9B22000FFF76D
:101B9000BDFED4F8E405006880472000FFF7AEF8EA
:101BA000BDE8F081002070471CB5040000A92000AA
:101BB000FFF7E1FD9DF8000010F01F00C0B2002803
:101BC00003D002280BD005D30EE000A92000FFF7B8
:101BD0001BFB10E000A92000FFF742FB0BE000A96F
:101BE0002000FFF765FB06E09DF8000010F0800183
:101BF0002000FFF765FF002016BD10B50400C9B234
:101C0000002933D114F55C7094F8111103293CD1EB
:101C10008168C269914217D2C1698268891AC1611B
:101C2000E178012903D18168C2688918C160C1695E
:101C30008268914201D2C26900E0826892B2C168B2
:101C40002000FFF734FE20E0D4F8E005006900280A
:101C500008D094F81201032804D12000D4F8E0152C
:101C6000096988472000FFF72DFE0EE0D4F8E00553
:101C70008069002809D094F81201032805D1C9B25F
:101C80002000D4F8E02592699047002010BD38B5B7
:101C90000400C9B2002945D114F58C7594F81101DE
:101CA00002284ED1A868E969884211D2E869A9687A
:101CB000401AE861E078012803D1A868E968401873
:101CC000E860EA6992B2E9682000FFF7D1FD38E0E8
:101CD000286AA968B0FBF1F201FB120000280FD1BD
:101CE000286AA96888420BD3286A696A884207D2A1
:101CF000002200212000FFF7BBFD0020686220E0E9
:101D0000D4F8E005C068002808D094F81201032830
:101D100004D12000D4F8E015C96888472000FFF7F7
:101D2000E3FD0EE0D4F8E0054069002809D094F8FE
:101D30001201032805D1C9B22000D4F8E025526968
:101D40009047002032BD10B504000023402200213E
:101D50002000FFF726FE0023402280212000FFF70D
:101D600020FE012084F81201A078D4F8E415496817
:101D70008847002010BD10B50400D4F8E4050069C0
:101D80008047032084F81201002010BD80B5042193
:101D900080F81211D0F8E405C0688047002002BD29
:101DA00080B5D0F8E015C969002903D0D0F8E01556
:101DB000C9698847002002BD10B50400C9B22000DF
:101DC000D4F8E02512689047D4F8E405806880478D
:101DD000002010BD80B5C9B2D0F8E0255268904708
:101DE000002002BD80B5D0F8E015096A88470020C0
:101DF00002BD80B5D0F8E015496A8847002002BDD1
:101E000070B5040000262000FEF7AAFB00285ED073
:101E10002000FEF7AFFB0500002D01D1002057E0A8
:101E2000C5F3C040C00703D5200000F03CF90643CD
:101E3000C5F38040C00703D5200000F0A2F8064398
:101E4000C5F34000C00704D5002050F00200E1684F
:101E50004861002D03D5200000F03BF80643C5F390
:101E6000C020C00703D5200000F057F80643C5F393
:101E7000C000C00703D5200000F085F90643C5F374
:101E80000010C00703D5200000F08BF90643C5F30E
:101E90000030C00703D5200000F016FA0643C5F352
:101EA0004030C00703D5200000F071FA0643C5F3A7
:101EB0000050C00703D5200000F08EFA0643C5F39A
:101EC0004050C00703D5200000F094FA06433000CC
:101ED00070BD10B50400A07A002808D0D4F80C0119
:101EE00030F0020040084000D4F80C1108600020D7
:101EF00050F001002169496831EA00002169486019
:101F00002000DFF80C15096889698847002050F027
:101F10000040E1684861012010BD10B504002000B8
:101F2000DFF8EC1409684969884720698168002056
:101F300050F40060E2685061A07A00281FD011F0D0
:101F40000100C0B200281AD0002050F00100D4F8DF
:101F50000C1109680143D4F80C21116050F0020003
:101F6000D4F80C1109680843D4F80C110860DFF8A4
:101F7000A404006850F00600DFF8981408600120FF
:101F800010BDF8B50400002500272000FEF71DFE57
:101F9000060083E0F00740F17F802900C9B22000ED
:101FA00000F03AFA070017F00100C0B2002822D072
:101FB0000120A8402169496B31EA0000216948638A
:101FC000002757F0010714EB85008069876029001E
:101FD000C9B22000DFF83824126852689047E078D0
:101FE000012808D1002D06D194F81101042802D14E
:101FF0002000FEF7F1FDC7F38000C00706D50027DB
:1020000057F0040714EB850080698760C7F3C000B0
:10201000C00706D5002757F0080714EB8500806934
:102020008760C7F30010C00706D5002757F01007D8
:1020300014EB850080698760C7F34010C00706D5A0
:10204000002757F0200714EB850080698760C7F3ED
:102050008010C00706D5002757F0400714EB850015
:1020600080698760C7F34000C00706D5002757F096
:10207000020714EB850080698760C7F3C010C007B2
:102080000AD52900200000F0DBF8002757F0800770
:1020900014EB8500806987606D1C7608002E7FF444
:1020A00079AF0120F2BDF8B504000025002720001B
:1020B000FEF77AFD060062E0F0075ED52900C9B29E
:1020C0002000FEF778FD070017F00100C0B20028DD
:1020D0002DD0002757F0010714EB8500406D876075
:1020E000E078012810D114EB8500406D00692821AB
:1020F00001FB0541D1F878134003400B081A282151
:1021000001FB0541C1F888032900C9B22000C04A7B
:10211000126812689047E078012808D1002D06D196
:1021200094F81101052802D12000FEF755FDC7F3F0
:102130004000C00706D5002757F0020714EB8500C2
:10214000406D8760C7F38000C00706D5002757F0B1
:10215000040714EB8500406D8760C7F3C000C0071B
:102160000BD52000AA49096889688847002757F0DD
:10217000080714EB8500406D87606D1C7608002E03
:102180009AD10120F2BD10B504002000A0490968D1
:10219000C9688847002050F00800E16848610120C4
:1021A00010BDF8B50400002555F01005E068806901
:1021B000A843E1688861E068066A16F00F002821EC
:1021C00001FB004010F55C77700C10F00F00012847
:1021D00008D0022807D003281DD004281CD00628C8
:1021E0001BD026E025E030094005400D80B20028D4
:1021F00010D0C6F30A1292B2F9682000FEF725F853
:10220000C6F30A10F9684018F860B869C6F30A11F5
:102210000818B8610DE00CE00BE0082214F5B96174
:102220002000FEF712F8B869C6F30A110818B86161
:10223000FFE7E06880692843E16888610120F2BD1A
:102240002DE9F04104000D0000260020282101FBAB
:10225000054111F58C777969BA69891A0E00B96858
:10226000B14200D2BE68F01C5FEA900814EB850012
:10227000806980691BE07869B969461AB868B0421C
:1022800000D2BE68F01C5FEA900833009BB22A00BF
:10229000D2B2F9682000FDF7B8FFF8683018F8608E
:1022A000B8693018B86114EB85008069806980B224
:1022B000804506D2B8697969884202D278690028D7
:1022C000D9D10120BDE8F0812DE9F84304000020B8
:1022D0000025002600275FF000085FF0000950F09D
:1022E00001002169496831EA000021694860002144
:1022F0002000FEF7CFF800200AE014EB8001896986
:10230000FF228A6014EB8001496DFF228A60401C25
:1023100061788842F1D320695FF0FF31816101204B
:1023200060F30F05012060F31F452069C56156F079
:10233000080656F0010656F0040656F0020620691B
:10234000466157F0010757F0080757F0020757F0AA
:10235000040757F02007206907612069D0F8008042
:1023600038F4FE682069C0F800802000FEF734FCD5
:102370005FF0000959F48059E068C0F8149020001B
:1023800023490968096988470120BDE8F28338B507
:1023900004002000FEF7FBF9E068C5682000FEF7A6
:1023A000E0F9032808D10020A0704FF40070A0804D
:1023B000092060F38D2506E00120A0704020A08058
:1023C000052060F38D25E068C560002050F40050C2
:1023D000E1684861012032BD38B5040000252000C5
:1023E0000B490968C969884755F48015E06845615B
:1023F000012032BD38B504000025200004490968D9
:10240000096A884755F40015E0684561012032BD2E
:102410003801002010ED00E00269126903695B6B6E
:10242000CB4013F0010352EAC312C9B210EB810092
:10243000806980681040704701B402E00098401E37
:10244000009000980028F9D101B0704780B503E0F2
:10245000DFF8240400F095FA0121DFF81C0400F0F5
:10246000AAFA0128F4D001BD80B5DFF81004C068D5
:10247000DFF808148968884207DADFF80004006989
:10248000DFF8F8138968884203DBDFF8F0030021E6
:1024900001707121DFF8E00300F097FA012832D1D2
:1024A000DFF8D8030078012818D1DFF8D003C0681E
:1024B000DFF8C8138968884220DADFF8C003C068F3
:1024C000DFF8B813421CCA60DFF8B0134018017D72
:1024D00089B2DFF8A40300F056FA0FE00022712160
:1024E000DFF8940300F051FADFF8940390F8290222
:1024F00010F0FE00DFF8881381F829027121DFF85F
:10250000780300F084FA6021DFF86C0300F05DFAD4
:10251000012819D1DFF8600300F033FADFF85C130B
:102520000969DFF85823926891420DDADFF84C13FD
:102530000969DFF84823891881F89600DFF83C0321
:102540000069401CCD4908615021CB4800F03DFA9C
:10255000012802D1C9480121416001BD80B54FF475
:102560008041C848FEF743FD0028F8D101BD80B581
:10257000FFF76CFF00F003F8FFF7F0FF01BD80B537
:102580004FF48051BF48FEF73FFD01BD80B54FF4C9
:102590008051BC48FEF736FD01BD10B50400002196
:1025A000012020700020E06000202061207D0100DB
:1025B000C9B289B2B04800F0E6F9E068401CE060BA
:1025C00001227121AC4800F0E0F910BD80B501781E
:1025D0000129FCD0FFF7DAFF01BD10B50400FFF7B9
:1025E000C6FF2000FFF7D9FF2000FFF7EFFF60686C
:1025F00010BD80B5A449096809780129FAD0A2491B
:10260000096800224A60A049096801228A609E493F
:10261000096808759C480068FFF7DFFF9A48006862
:1026200090F89600C0B202BDF8B504000D00160087
:102630001F0038780128FCD0002078600020B860A6
:1026400020060ED5600609D5B6B2BE60B6B232001D
:10265000002117F1140000F0E5F912E00120B86044
:102660000FE0600609D5B6B2BE60B6B232002900EE
:1026700017F1140000F0E0F903E00120B8602878B9
:1026800038753800FFF789FF20060ED5600609D59A
:10269000B6B2320017F19601280000F0CDF9B6B2BB
:1026A000751902E097F896002870F1BD2DE9F843FE
:1026B00004000D0016001F00DDF8208098F80000CF
:1026C0000128FBD00020C8F804000120C8F8080049
:1026D00055EA040088F81400FFF749FF4046FFF769
:1026E0005CFF98F8969098F800000128FBD04346CC
:1026F0003A0092B2310055EA0400C0B2FFF794FFED
:102700004046FFF763FF4846C0B2BDE8F2832DE9BB
:10271000F84305000E001F00089CDDF8248098F89F
:1027200000000128FBD00020C8F804000220C8F8EF
:10273000080056EA050088F8140088F81520FFF70D
:1027400016FF4046FFF729FF98F8969098F800008A
:102750000128FBD04346220092B2390056EA050018
:10276000C0B2FFF761FF4046FFF730FF4846C0B2F6
:10277000BDE8F2831CB580B2040AC0B23F2804D37E
:10278000E4B2002C01D1802024E0E4B2002C0DD171
:102790003D4B1B680093D2B213009BB20A000100AC
:1027A000C9B2C020FFF782FF030011E0E4B22F2C72
:1027B0000ED1354B1B680193D2B292B200920B003E
:1027C0000200D2B22100C9B2C020FFF7A0FF03006F
:1027D0001800C0B216BD1CB580B2040AC0B23F28B2
:1027E00004D3E4B2002C01D1802024E0E4B2002C18
:1027F0000DD1254B1B680093D2B213009BB20A0087
:102800000100C9B24020FFF751FF030011E0E4B21C
:102810002F2C0ED11C4B1B680193D2B292B20092A6
:102820000B000200D2B22100C9B24020FFF76FFFB7
:1028300003001800C0B216BD80B5134A126800929A
:10284000C9B20B009BB20200FF210020FFF72EFF50
:10285000C0B202BD80B54FF400410C48FEF7D4FB76
:102860000B48FFF7E9FD4FF400410848FEF7CAFBAB
:102870000748FFF7E1FD01BD003800406C11002062
:10288000340F0020000402404001002000100240EC
:1028900052F8040080B5254988420AD101214FF43D
:1028A0008050FEF72AFB00214FF48050FEF725FBF5
:1028B0001AE01F4988420AD101214FF48040FEF7F7
:1028C0000CFB00214FF48040FEF707FB0CE0194998
:1028D000884209D101214FF40040FEF7FEFA0021A1
:1028E0004FF40040FEF7F9FA01BD10B4002203884E
:1028F0001A0012F441520B884C8823438C882343DE
:10290000CC8823430C8923434C8923438C8923435C
:10291000CC8923431A430280828B4FF2FF731A4003
:102920008283098A018210BC704700000030014098
:1029300000380040003C0040C9B2002904D00188A2
:1029400051F04001018004E001884FF6BF72114050
:102950000180704702884FF2FF731A40028002889C
:10296000114301807047C9B2002904D0818851F019
:102970000401818004E081884FF6FB721140818060
:102980007047808970478181704710B4002300240C
:10299000C9B20909C9B20B00012199400C00D2B299
:1029A000002A03D081882143818002E08188A143ED
:1029B000818010BC704700220089084201D00122AA
:1029C00000E000221000C0B27047F0B40A000021FD
:1029D000002400250023012612F00F07BE4034001A
:1029E000D2B21209D2B21500012212FA05F582887C
:1029F0002A4013000089204204D09BB2002B01D052
:102A0000012100E000210800C0B2F0BC70470022A4
:102A1000012311F00F0113FA01F10A0092B2D14320
:102A20000181704710B5040010000A000100200069
:102A300000F018F8200010BD10B50400200000F0D0
:102A400045F8200010BD7047C0B2002802D0012810
:102A500001D001E000E0FFE7704770477047704722
:102A60007047704762F30F2262F31F42401810F064
:102A7000030308D0C91A1FD3DB0748BF00F8012D94
:102A800028BF20F8022D130030B414461546103923
:102A900028BF20E93C00FAD8490728BF20E90C00EC
:102AA00048BF40F8042D890028BF20F8022D48BFF8
:102AB00000F8012D30BC7047C91818BF00F8012D6F
:102AC000CB0728BF00F8012D7047000062B38B07C9
:102AD00008D0521E11F8013B00F8013B00F02480A1
:102AE0008B07F6D1830740F0208000BF103A07D350
:102AF00030B4B1E83810103AA0E83810F9D230BC40
:102B0000530724BFB1E80810A0E8081044BF51F8EB
:102B1000043B40F8043BD20724BF31F8022B20F8D5
:102B2000022B44BF0B7803707047083A07D3B1E813
:102B30000810083A40F8043B40F804CBF7D253079A
:102B4000E4E7000010B504000223D4F8EC05B0F867
:102B5000392081212000FEF724FF0223D4F8EC0560
:102B6000B0F8402001212000FEF71BFF03230822BC
:102B700082212000FEF715FFC048022101710021CB
:102B80004171BF4800688047D4F8EC05B0F8403088
:102B9000BC4A01212000FEF751FF002010BD10B5F6
:102BA000040081212000FEF729FF01212000FEF70B
:102BB00025FF82212000FEF721FFB14840688047B1
:102BC000002010BD38B504000D00287810F060001A
:102BD000C0B200282DD0202825D1E88800281AD09E
:102BE000287800060BD5EA88A7496878A44B9B682B
:102BF0009847EA88A4492000FEF726FE11E068788D
:102C0000A2490860E888A2490860EA889E49200035
:102C1000FEF739FE05E0002200216878984B9B689A
:102C20009847002032E029002000FEF7C6FD022070
:102C30002CE06878062804D00A2814D00B2818D075
:102C400023E0688880B2000AC0B2212806D19149E9
:102C5000E8883B2801D33A2200E0EA8892B22000BB
:102C6000FEF7F2FD11E001228B492000FEF7ECFD9A
:102C70000BE06888C0B2012803D2A87886490860B2
:102C800003E029002000FEF798FD002032BD80B54A
:102C90007E480068FF280AD07D4802687A497B4850
:102CA0000068774B9B6898477848FF2101600020B7
:102CB00002BD10B579490978012945D178490968DB
:102CC000002903D17548002101703DE0D0F8EC15D2
:102CD000B1F83910724A1268914219D271490968E3
:102CE000D0F8EC25B2F839406E4A1268D0F8EC35CD
:102CF000B3F8393012FA83F26A4B1A60684A1268E4
:102D0000D0F8EC35B3F83930D21A654B1A600DE0C3
:102D100064490968624A1468624A1268604B1B6819
:102D20009A18604B1A605E4A00231360A4B2230015
:102D300089B25D4A8A188121FEF7A3FE5B480068CC
:102D400010FA84F059490860002010BD10B5040045
:102D5000C9B2282000FB0140D0F8881389B2494845
:102D6000474A12699047D4F8EC05B0F84030454A1C
:102D700001212000FEF762FE002010BD80B54C4905
:102D800009684A1C4A4B1A60052904D148490022A7
:102D90000A6000F002F8002002BD10B53F49097832
:102DA000012966D03F490968B1F5006F02D13D495C
:102DB00000220A603B4909683E4A1268914203D1E9
:102DC00036480021017054E03A490968354A1268D2
:102DD000914206D233490968D1F50061304A116049
:102DE00006E0344909682F4A1268891A2C4A116092
:102DF000D0F8EC15B1F83910294A1268914219D26D
:102E000028490968D0F8EC25B2F83940254A1268FB
:102E1000D0F8EC35B3F8393012FA83F2214B1A604E
:102E20001F4A1268D0F8EC35B3F83930D21A1C4B6F
:102E30001A600DE01B490968194A1468194A12689A
:102E4000174B1B689A18174B1A60154A002313601A
:102E5000124A01231370A4B2230089B2124A8A18BD
:102E60008121FEF70EFE1148006810FA84F00F4928
:102E7000086010BD432008800F487047E80000201C
:102E8000D4000020841200200C1300203401002004
:102E900024130020120000201413002038130020F7
:102EA000201300201C1300204401002030010020CA
:102EB00028130020181300200000002080B5010016
:102EC00089B29148FFF746FD01BD00B583B00121ED
:102ED0004FF48040FDF7E1FF01210220FDF7BDFF27
:102EE00005220D218948FEF791F805220E21874819
:102EF000FEF78CF805220F218448FEF787F80220A0
:102F00008DF8040002208DF8050000208DF80600E1
:102F100001208DF807004FF40050009000A97B4875
:102F2000FEF712F84FF48040009000A97748FEF7B2
:102F30000BF84FF40040009000A97448FEF704F825
:102F40004FF480517148FEF75DF801208DF80400C0
:102F500002208DF8050000208DF8060001208DF874
:102F600007004FF48050009000A96848FDF7ECFF7F
:102F700007BD80B501214FF48040FDF78EFF624808
:102F8000FFF788FC62480021018061484FF482719C
:102F900041805F48002181805D480021C1805C48FC
:102FA000002101815A480021418159481021818125
:102FB00057480021C181564807210182544952488F
:102FC000FFF793FC01215048FFF7CDFC01214E484B
:102FD000FFF7B2FC01BD80B524208DF80000002071
:102FE0008DF8010000208DF8020001208DF803000B
:102FF00000A8FEF7AEF801BD80B5FFF766FFFFF74A
:10300000B8FF0020FFF75AFFFFF7C0FAFFF7E3FF12
:10301000012260213C48FFF7B8FC002271213A48A8
:10302000FFF7B3FC012250213748FFF7AEFCFFF752
:1030300011FC01BD80B528218DF8001000218DF80C
:10304000011000218DF802108DF8030000A8FEF792
:1030500080F801BD00B585B001210420FDF7FDFE1B
:1030600001214FF48040FDF728FF00208DF8040077
:1030700002208DF807004FF48050009002208DF858
:10308000050000A92348FDF75FFF0C21042000F094
:1030900051F84FF48050029000208DF80C000C2065
:1030A0008DF80D0001208DF80E0002A8FDF7E8FF55
:1030B0000020FFF7BFFF05B000BD80B54FF4805082
:1030C000FEF722F8012807D14FF48050FEF72EF8C2
:1030D0001148012180F8331201BD00B583B00121F0
:1030E0001020FDF7BAFE01208DF8040001208DF8B4
:1030F000070002208DF805004FF40040009000A961
:103100000448FDF721FF07BD0038004000040240DD
:10311000F812002000100240340F002080B500F0AB
:1031200070F84FF48050FEF701F80120FFF782FF9E
:1031300001BD000010B400220F2311F00304E4B21B
:10314000A400A3401A00C9B28B100E4C54F82330CF
:1031500033EA0202C9B28B100A4C44F82320C9B2E8
:103160008A10084B53F82220C0B211F00303DBB2DF
:103170009B0098401043C9B28910024A42F82100CE
:1031800010BC70470838014010B582B03020FFF7FE
:1031900030FA00240FE0A4B2404810EB840080789D
:1031A0008DF80000012200A9A4B23C4830F82400A8
:1031B000FFF711FB641CA4B2372CECD313BD80B510
:1031C000012200A92220FFF7D5FA9DF8000010F097
:1031D000F90050F004008DF80000012200A922201F
:1031E000FFF7F9FA3620FFF704FA9DF8000010F017
:1031F000F9008DF80000012200A92220FFF7EBFA68
:1032000001BD80B500F00CF8FFF7D9FFFFF7BCFF58
:1032100001BD80B53620FFF7ECF900F017F801BDCD
:1032200080B53320FFF7E5F9012200A942F673705B
:10323000FFF7A0FA9DF800004128F5D101BD80B547
:103240003D20FFF7D6F910F0F00002BD80B5FFF782
:10325000F6FF0028FBD101BD80B5FFF7F0FF102875
:10326000FBD101BD38B50400002511E0ADB2E4B2D8
:1032700003200B4900FB0410285C8DF8000001229C
:1032800000A9ADB2074830F81500FFF7A4FA6D1C8D
:10329000ADB2032DEAD331BD000000002C3E000882
:1032A00028400008BC41000880B53A20FFF7A1F98A
:1032B000FFF7C5FFC0B2002808D010280CD0202886
:1032C0000BD060280FD0702818D022E03420FFF7F0
:1032D00090F9FFF7C1FF26E025E03420FFF789F9D8
:1032E000FFF7BAFF1FE03A20FFF783F9FFF7AEFFC1
:1032F0003420FFF77EF9FFF7AFFF14E03B20FFF724
:1033000078F9FFF7A3FF3420FFF773F9FFF7A4FF65
:1033100009E03620FFF76DF9FFF798FF3420FFF73B
:1033200068F9FFF799FF01BD80B5FFF788FFC0B2CC
:10333000002808D0102807D0202805D0602809D000
:1033400070280FD016E019E03620FFF752F9FFF78A
:103350007DFF13E03A20FFF74CF9FFF777FFFFF707
:103360005FFF0BE03B20FFF744F9FFF76FFFFFF72C
:1033700057FF03E0FFF74DFFFFF752FF01BD0000CD
:1033800080B57748006850F00100754908607548BD
:103390000021016072480068734908407049086064
:1033A0007248734901606E48006830F480206C49AF
:1033B000086070480021016000F058F86E485FF026
:1033C0000061016001BD30B4002000210222002311
:1033D0000224644D2D6815F00C052800002804D047
:1033E000042806D0082808D02FE06448644901600A
:1033F0002EE06248634901602AE05C480068C0F33F
:1034000080535A48006810F03F04002B09D05D48F3
:10341000B0FBF4F055490968C1F3881101FB00F1D4
:1034200008E05748B0FBF4F050490968C1F388112F
:1034300001FB00F14D480068C0F30140401C420010
:10344000B1FBF2F04D49086002E04C484C49016084
:1034500044480068C0F303104B49405C4749096881
:1034600031FA00F04549086030BC704782B0002056
:103470000190002000903A48006850F480303849AC
:1034800008603748006810F4003000900198401C34
:1034900001900098002803D10198B0F5A06FF0D1F9
:1034A0002F480068800302D50120009001E0002031
:1034B0000090009801283ED13448006850F08050B8
:1034C000324908603248006850F480403049086052
:1034D00024482449096801602248006850F40040EB
:1034E000204908601F48006850F4A0501D4908603A
:1034F0001E48284901601A48006850F08070184939
:103500000860174800688001FBD5234840F2056138
:103510000160144800688008800012490860114862
:10352000006850F002000F4908600E48006810F073
:103530000C000828F9D10B48006830F40000094954
:1035400008601648164901600548006850F0806020
:1035500003490860024800680001FBD502B07047CB
:103560000038024008380240FFFFF6FE04380240EF
:10357000103000240C38024008ED00E02C0100203F
:103580000024F40000127A000C01002040380240B0
:103590000070004008544007003C0240843802405C
:1035A0000030005080B540F225516A4800F07FF9A4
:1035B000002818D0674800F04DF967490870664840
:1035C0000078001EC0B2122801D2012000E00020C5
:1035D0006249087061480078002801D1012000E0AC
:1035E00000205F49087040F227715A4800F05FF9E7
:1035F000002835D05B48D0F82402002801D10020F3
:1036000006E05848D0F81C025649401810F58E7054
:1036100000281CD0017889B24E4800F017F95148B3
:10362000012101734F48D0F82402401E4D49C1F8D2
:1036300024024C48D0F81C02401C4FF48071B0FBAF
:10364000F1F202FB11024748C0F81C2208E045488D
:1036500000210173002240F227713E4800F0FEF87D
:1036600001BD00B583B001210120FDF7F6FB01216A
:103670000120FDF7F2FB072203213B48FDF7C6FCC2
:10368000072202213848FDF7C1FC082000900220E3
:103690008DF8040000208DF8060001208DF8070049
:1036A00002208DF8050000A92F48FDF74DFC0420ED
:1036B000009002208DF8040000208DF80600012003
:1036C0008DF8070002208DF8050000A92648FDF7B7
:1036D0003BFC07BD00B585B001215FF40030FDF76C
:1036E000DCFB5FF4E13000900020ADF80400002026
:1036F000ADF806000020ADF808000020ADF80C0081
:103700000C20ADF80A0000A9124800F02FF80121A2
:10371000104800F08DF805B000BD80B526218DF869
:1037200000100F218DF801100F218DF802108DF877
:10373000030000A8FDF70DFD01BD80B5FFF791FF67
:10374000FFF7C8FF0020FFF7E8FF064800210173DC
:1037500001BD0000004400403A1300203B1300204C
:103760003C130020340F0020000002407FB504000D
:103770000D000020002100220023AE89002E208AA7
:1037800030F44050E98808432082A0892749084046
:10379000A9882A8911436A8911430843A081A08A14
:1037A00030F44070A9890843A08200A8FDF7E4FA2C
:1037B0001C48844202D01C48844201D1039900E095
:1037C0000299A089000407D5192000FB01F029689F
:1037D0004900B0FBF1F206E0192000FB01F0296876
:1037E0008900B0FBF1F26420B2FBF0F000010109A6
:1037F000642303FB1123A189090408D5D9003231C0
:103800006422B1FBF2F111F00701084307E019014E
:1038100032316422B1FBF2F111F00F010843208133
:103820007FBD00000010014000140140F3E9FFFFDC
:10383000C9B2002904D0818951F40051818104E08A
:1038400081894DF6FF72114081817047C905C90D0C
:10385000818070478088C005C00D7047F0B4002398
:1038600000240025002640F66A1789B2B9420600F6
:103870000800C0B24309DBB289B211F01F04012075
:1038800010FA04F5012B01D10C3604E0022B01D112
:10389000103600E01436D2B2002A03D03068284334
:1038A000306002E03068A8433060F0BC704770B40C
:1038B000002300240025002240F66A1689B2B14296
:1038C0000A00D2B25509EDB289B211F01F040122EB
:1038D00012FA04F4012D02D18289144006E0022D6F
:1038E00002D1028A144001E0828A144089B20B0A94
:1038F0009BB2012111FA03F300880340002C03D08E
:10390000002B01D0012200E000221000C0B270BCE8
:103910007047000080B5FFF756FD00F0EAF800F0B0
:10392000FFF84FF40E7200213048FFF77BF8304863
:10393000002101702F48002101702F4800210170E3
:103940002E4800902E4B2F4A01212F48FEF708F9F0
:10395000FFF7E4FB01BD80B525480078FFF782FC46
:103960000120FFF767FBFFF79FFC01BD80B500203A
:10397000FFF760FB00F09EF9FFF7D6FC00201B4923
:10398000C1F824021949C1F820021849C1F81C02E3
:1039900001BD80B518480078002804D0FFF7E6FF85
:1039A00015480021017013480078002804D0FFF763
:1039B000D2FF1048002101700C4890F83302002813
:1039C00001D000F091F9094890F8340200280BD09A
:1039D0000648002180F83412002000F0A7F900F01A
:1039E00015F8002000F0ACF901BD0000340F0020F4
:1039F0003A1300203B1300203C130020B8000020A5
:103A0000440000209C0000204409002000B5A5B01F
:103A1000012200A942F6D770FEF7ACFE9DF8000027
:103A200000282ED001220DF1010142F67370FEF73D
:103A3000A1FE9DF8010010F01F00112821D09DF873
:103A400000100DF10A00FEF7F7FEFFF72DFC04222F
:103A5000002101A8FEF7E6FF01009DF80000801C90
:103A60008DF8040000208DF805000020ADF8060058
:103A7000042202A8FEF7E0FF9DF8041002A800F05F
:103A8000D5F825B000BD00001CB500241CE00121C4
:103A90000F4850F82400FDF7E0F90E4830F8140004
:103AA000009001208DF8040000208DF80600012010
:103AB0008DF8070002208DF8050000A9064850F88F
:103AC0002400FDF741FA641C042CE0DB13BD000068
:103AD0007C410008B44100081C01002080B5002191
:103AE0005FF00060FDF769FB4FF4A060FDF72CFB71
:103AF00001BD80B5FFF7C8FFFFF7F0FF00F073F9D5
:103B0000002000F027F9002000F01AF9FFF7E5FA8D
:103B1000FFF772FAFFF79EFAFFF70FFE01BD0000F4
:103B200080B5012000F032F8012000F046F801BD18
:103B300080B5002000F041F801BD80B52748B0F8FD
:103B40002E02401C2549A1F82E022448B0F82E026E
:103B50002249B1F82C12214A92F83022002A05D0CD
:103B6000401A47F6FF7180B288420CD2FFF7E0FF9F
:103B70001A481A49B1F82E12A0F82C121748002141
:103B800080F8301201E0FFF7CBFF01BD012806D11C
:103B90001348006850F00100114908600CE010F172
:103BA000020F06D10E480068400840000C4908602A
:103BB00002E00C48002101607047C0B2002806D026
:103BC0000748006850F002000549086005E0044815
:103BD000006830F00200024908607047340F00208E
:103BE00010E000E018E000E000207047002070477F
:103BF000002810D001280FD002280ED003280DD0A5
:103C000004280CD020280BD021280AD0222809D043
:103C1000232808D008E007E006E005E004E003E020
:103C200002E001E000E0FFE70020704730B4274ADF
:103C300012688A421BD3002217E0135C244C2468CC
:103C4000244D6355224B1B685B1C214C23601F4B8A
:103C50001B685B1E1D4C23601D4B1B68B3F5006F7A
:103C600002D11B4B00241C60521C8A42E5D3002069
:103C700030BC704710B4002203E00023164C2370C0
:103C8000521C8A4213D2135C144C2370134B1B78C2
:103C90001B1EDBB2122B01D2012300E00023104CCB
:103CA00023700F4B1B78002BE7D10123E6E70020A0
:103CB00010BC70470648002101600A4800210160DD
:103CC00002484FF40061016070470000300100209D
:103CD00018130020440100203C1300203A13002058
:103CE0003B1300201C13002080B50F48B0F82A02B7
:103CF000401C0D49A1F82A020B48002180F833121C
:103D000040F24510FEF798FB012200A942F6D77059
:103D1000FEF730FD9DF80000002803D00248012185
:103D200080F8341201BD0000340F002080B2154924
:103D300051F8201080B2144A32F8100008837047FE
:103D400080B2104951F8201080B20F4A32F81000AA
:103D50004883704738B5040000250EE0200080B28B
:103D6000FFF7E4FF0948FEF767FB200080B2FFF78A
:103D7000E7FF0748FEF760FB6D1CEDB2032DEDD3A6
:103D800031BD00001C010020B441000852F80400BD
:103D900036B3310040B2002808D540B210F00F0011
:103DA0001B4A8018090100F8041C03E040B2194ABC
:103DB00009018154704780B5B0F1807F01D30120A3
:103DC00010E00002000A401E134908600F215FF056
:103DD000FF30FFF7DFFF1148002101601048072185
:103DE0000160002002BD80B50E480068C0080E4981
:103DF000B0FBF1F04FF496414843FFF7DCFF002899
:103E000000D0FEE77FF00400FDF7DDF901BD000002
:103E100018ED00E000E400E014E000E018E000E04D
:103E200010E000E02C01002040420F0003000600DB
:103E300004006E0005004E000600900007004E00D2
:103E40000800E500090023000A0048000B000C00F0
:103E50000C0056000E00BA000F00C800100043000E
:103E600011004200120005001300A40014007A00A3
:103E70001500E10016002A001700F1001B001100D8
:103E80001C0090001D0000002000120026002400ED
:103E900027008300280020002E00FF00002F1800BC
:103EA000022F0300052F02000C2F56000D2F520089
:103EB0000E2F8F00102FEE00112F1000122F040074
:103EC000132F5000162F4000172F0E00192F03003C
:103ED0001B2F33001C2FF7001D2F0F001F2F00007A
:103EE000202F6E00212F1C00222FAC00272FB500A1
:103EF0002F2F0500322F0E00362F03008F2F2000AA
:103F0000902F1000922F1000122008802848704730
:103F1000042008802748704780B5C0B2002805D12A
:103F20000A0025492548FDF762FC04E00A00224901
:103F30002348FDF75CFC204802BD80B50A001E49FD
:103F40002048FDF754FC1C4802BD80B5C0B20028D3
:103F500005D10A0018491C48FDF749FC04E00A0095
:103F600015491A48FDF743FC134802BD80B5C0B29D
:103F7000002805D10A0010491548FDF738FC04E077
:103F80000A000D491248FDF732FC0B4802BD80B50E
:103F9000C0B2002805D10A0007490E48FDF727FCEA
:103FA00004E00A0004490B48FDF721FC024802BD69
:103FB000E80000203C010020C412002084400008DA
:103FC000A8400008384100084C4100085C41000846
:103FD0009C4100086C4100087047FEE7FEE7FEE7E1
:103FE000FEE7704770477047704780B50C48807A8D
:103FF00000280AD00B48006830F006000949086024
:10400000FFF7BEF90648FCF70FFE5FF48020FDF7CE
:104010008DF801BD80B50248FDF7F2FE01BD00003C
:104020004409002010ED00E056528F565CCC5667D4
:104030000A567147567B855685C2569000569A3D62
:1040400056A47A56AEB856B8F556C33356CD705608
:10405000D7AE56E1EB56EC2856F6660010B5074988
:1040600079441831064C7C44163404E0081D0A6873
:10407000511888470146A142F8D110BD50000000F8
:104080007000000053544D333220566972747561CC
:104090006C20436F6D506F727420696E20485320FE
:1040A0006D6F64650000000053544D333220566933
:1040B000727475616C20436F6D506F727420696EFD
:1040C000204653204D6F64650000000093CFFFFF32
:1040D000FC11000044010020000000006FCCFFFF35
:1040E000440100004C02000000000020000000001D
:1040F00000F009F8002801D0FFF7B0FF002000F021
:1041000004F800F007F801207047FFF703FCFFF701
:1041100040FCFCE700F000B80746384600F002F823
:10412000FBE70000C046C046024A11001820ABBEA3
:10413000FBE700BF2600020053544D6963726F65B0
:104140006C656374726F6E69637300003030303079
:104150003030303030353042000000003030303008
:1041600030303030303530430000000056435020AE
:10417000496E7465726661636500000008000000A6
:104180000800000008000000080000000148804707
:104190000148004781330008A941000856435020D8
:1041A000436F6E6669670000C046C046C046C046A1
:1041B000FFF79EFF00200010004000800C2F0D2F05
:1041C0000E2F0000FFF708BFFFF707BFFFF706BF7E
:1041D000FFF705BFFFF704BFFFF703BFFFF702BFFD
:1041E000FFF701BFFFF7A9BCFFF7FEBFFFF7FEBF58
:1041F000FFF7FEBFFFF7FEBFFFF7FEBFFFF7FEBFF3
:10420000FFF7F2BEFFF7FEBFFFF7FEBFFFF7FEBFEF
:10421000FFF7FEBFFFF7FEBFFFF7FEBFFFF7FEBFD2
:10422000FFF7FEBFFFF7FEBFFFF7FEBFFFF7FEBFC2
:10423000FFF7FEBFFFF7FEBFFFF7FEBFFFF7FEBFB2
:10424000FFF7FEBFFFF7FEBFFFF7FEBFFFF7FEBFA2
:10425000FFF7FEBFFFF7FEBFFFF7FEBFFFF7FEBF92
:10426000FFF7FEBFFFF7FEBFFFF7FEBFFFF7FEBF82
:10427000FFF7FEBFFFF7FEBFFEF7F6B8FFF7FEBF82
:10428000FFF790B9FFF7FEBFFEF717BFFFF7FEBFBE
:10429000FFF7ABBEFFF7FEBFFFF7FEBFFFF7FEBFA6
:1042A000FFF7FEBFFFF7FEBFFFF7FEBFFFF7FEBF42
:1042B000FFF7FEBFFFF7FEBFFFF7FEBFFFF7FEBF32
:1042C000FFF7FEBFFFF7FEBFFFF7FEBFFFF7FEBF22
:1042D000FFF7FEBFFFF7FEBFFFF7FEBFFFF7FEBF12
:1042E000FFF7FEBFFFF7FEBFFFF7FEBFFFF7FEBF02
:1042F000FFF7FEBFFFF78EBEFFF7FEBFFFF7FEBF63
:10430000FFF7FEBFFFF7FEBFFFF7FEBFFFF7FEBFE1
:10431000FFF7FEBFFFF7FEBFFFF7FEBFFFF7FEBFD1
:10432000FFF7FEBFFFF7FEBFFFF7FEBFFFF7FEBFC1
:1043300009024300020100C0320904000001020228
:1043400001000524001001052401000104240202DB
:104350000524060001070582030800FF0904010087
:10436000020A000000070501024000000705810263
:1043700040000000452B00089F2B0008C52B0008BB
:10438000000000008F2C0008B32C00084D2D000801
:104390007D2D00080000000000000000752E0008C0
:1043A000FB1B00088F1C0008A91B0008A11D0008AA
:1043B000471D00088D1D0008771D0008E51D000839
:1043C000F31D00080000000000000000093F000885
:1043D000113F00083B3F0008193F00084B3F000811
:1043E0006D3F00088F3F0008472A0008492A00084F
:1043F0005B2A0008612A0008632A00085D2A000879
:104400005F2A0008E93B0008ED3B0008F13B00088B
:104410002D3C0008753C000812010002000000401D
:104420008304405700020102030100000000000065
:10443000010203040102030406070809000000004A
:10444000000000000102030406070809000C0240F6
:10445000000C0240000C0240000C0240007A030AEB
:1044600000080000FF0000007000002004030904A1
:044470006C110020AB
:04000005080041A905
:00000001FF
