:020000040800F2
:1000000000000220F53E08083D3F08083D3F080873
:100010003D3F08083D3F08083D3F0808000000003C
:100020000000000000000000000000003D3F080844
:100030003D3F0808000000003D3F080849590008FE
:100040003D3F08083D3F08083D3F08083D3F080880
:100050003D3F08083D3F08083D3F08083D3F080870
:100060003D3F08083D3F08083D3F08083D3F080860
:100070003D3F08083D3F08083D3F08083D3F080850
:100080003D3F08083D3F08083D3F08083D3F080840
:100090003D3F08083D3F08083D3F0808095E00084D
:1000A0003D3F08083D3F08083D3F08083D3F080820
:1000B0003D3F08083D3F08083D3F08083D3F080810
:1000C0003D3F08083D3F08083D3F08083D3F080800
:1000D0009D740008655B00083D3F08083D3F080827
:1000E0003D3F08083D3F08083D3F08083D3F0808E0
:1000F0003D3F08083D3F08083D3F08083D3F0808D0
:100100003D3F08083D3F08083D3F08083D3F0808BF
:100110003D3F08083D3F08083D3F08083D3F0808AF
:100120003D3F08083D3F08083D3F08083D3F08089F
:100130003D3F08083D3F08083D3F08083D3F08088F
:100140003D3F08083D3F08083D3F08083D3F08087F
:100150003D3F08083D3F08083D3F08083D3F08086F
:100160003D3F08083D3F08083D3F08083D3F08085F
:100170003D3F08083D3F08083D3F08083D3F08084F
:080180003D3F08083D3F08085F
:1001880080B584B000AF786039607B68022B01DCF1
:10019800002315E002F0C0F907F10C03002200214A
:1001A800094801F027FC08220749084883F0E4FDC4
:1001B8007DF073FF0346002B01D17DF069FF00231A
:1001C80018461037BD4680BD04000020CD1300201E
:1001D80080B58AB000AF0121082003F013F901218E
:1001E800102003F00FF901214FF4804003F08AF941
:1001F8000021042003F0A0FB0121042003F09CFB54
:100208004FF47043BB6101233B770023BB77032383
:100218007B770023FB7707F118031946284802F07B
:1002280047FC03233B6100233B750023BB75032375
:100238007B750123FB7507F110031946214802F06D
:1002480037FC0123BB600123BB7300233B730C23E2
:100258007B7307F10803184605F010FA0223BB6008
:1002680007F10803184605F009FA06233B71002335
:100278007B710123BB710123FB713B1D184602F002
:10028800D1FA07233B713B1D184602F0CBFA08212F
:100298004FF4807000F01AF800F048F80A4B00227A
:1002A8001A60094B00225A60074B00229A604FF4EB
:1002B8008041034802F014FD00BF2837BD4680BDC9
:1002C800000C0240001002409C04002080B584B05D
:1002D80000AF786039600121012003F093F8012212
:1002E8000821114802F053FD012209210E4802F0AD
:1002F8004EFD01220A210C4802F049FD4FF4E0634B
:10030800BB6002233B730023BB7303237B7300236F
:10031800FB7307F108031946034802F0C9FB00BF45
:100328001037BD4680BD00BF0000024080B58CB0CC
:1003380000AF0121012003F0E5F840F28163BB62C0
:100348004FF4D263BB840023BB850023FB8407F1F1
:10035800240319462D4803F04BFC01212B4804F0D7
:1003680037FD0121294803F0C6FD60233B820023A5
:10037800BB610223BB8307F110031946234803F02E
:10038800DAFD0821214804F0EFF807F110031946B7
:100398001E4803F04BFE08211C4804F001F907F140
:1003A80010031946194803F0C9FE0821174804F03C
:1003B80015F90121012003F085F8154BBB60532383
:1003C800BB800023BB810023FB803B1D19464FF0F7
:1003D800804003F00DFC012201214FF0804004F021
:1003E8005DFD01214FF0804003F085FD1C233B702B
:1003F80000237B700123BB700123FB703B4618462A
:1004080002F010FA00BF3037BD4680BD0000014041
:100418003F420F0080B582B000AF78607B680A2B3E
:1004280005D00B2B00F08A80012B46D0B2E05B4B45
:100438001B68013B5A4A52F82320584B1B68013B62
:100448006432574941F82320544B1B68013B544AF6
:1004580052F82330B3F5C86F06DD504B1B68013BDB
:100468004F4A002142F823104C4B1B68012B0AD13C
:100478004A4B1B68013B4A4A52F8233019464948FF
:1004880003F0C6FF86E0454B1B68022B0AD1434B9D
:100498001B68013B424A52F823301946414803F091
:1004A800C5FF77E03D4B1B68013B3D4A52F82330BE
:1004B80019463C4803F0C8FF6CE0384B1B68013B09
:1004C800374A52F82330002B08D1344B1B68013BC4
:1004D800334A4FF4487142F8231006E02F4B1B684B
:1004E800013B2F4A002142F823102C4B1B68012B9B
:1004F8000AD12A4B1B68013B294A52F82330194676
:10050800284803F085FF45E0244B1B68022B0AD1DD
:10051800224B1B68013B224A52F8233019462148D6
:1005280003F084FF36E01D4B1B68013B1C4A52F860
:10053800233019461B4803F087FF2BE04FF4504146
:10054800194802F0DCFB154B1B68012B08D14FF44E
:100558008051154802F0C4FB104B02221A6018E0C3
:100568000E4B1B68022B08D14FF400410E4802F0D5
:10057800B7FB0A4B03221A600BE0084B1B68032BDE
:1005880007D14FF48041084802F0AAFB034B01222F
:100598001A6000BF00BF0837BD4680BD00000020BC
:1005A8009C04002000000140000C024080B584B08B
:1005B80000AF0346FB71FB799C2202FB03F303F5B2
:1005C8003673084A13440833FB60FB68B3F90430F8
:1005D800002B02D0F86800F0BFFC00BF1037BD4602
:1005E80080BD00BFFC06002080B584B000AF7860F5
:1005F8001221786800F04CFEF860FB6800221A802F
:10060800FB680222DA73FB6804221A74FB68012271
:100618009A73FB6802221A81FB680A225A73FB68E4
:100628000A221A737B6811229A707B68074A9B1A00
:100638009B10074A02FB03F3DBB21946054800F09A
:10064800C7F900BF1037BD4680BD00BFDC090020D8
:10065800976FF996EDC0070880B584B000AF0346E0
:10066800FB710023FB60FB799C2202FB03F303F57B
:1006780036730A4A13440833BB600A21B86800F08D
:100688000BFDF860FB6802221A70FB791846FFF729
:10069800ABFF00BF1037BD4680BD00BFFC06002081
:1006A80080B584B000AF0346FB710023FB60FB7983
:1006B8009C2202FB03F303F536730A4A13440833FA
:1006C800BB600A21B86800F0E7FCF860FB6801220B
:1006D8001A70FB791846FFF787FF00BF1037BD4631
:1006E80080BD00BFFC06002080B584B000AF034683
:1006F800FB710023FB60FB799C2202FB03F303F5EB
:1007080036730A4A13440833BB600A21B86800F0FC
:10071800C3FCF860FB6803221A70FB791846FFF7E0
:1007280063FF00BF1037BD4680BD00BFFC06002038
:1007380080B586B000AF786000233B6100F06EFBA7
:10074800F860FB681A4A9B1A9B101A4A02FB03F3CB
:10075800FB720A21F86800F09FFC386101237B6175
:1007680007E07B693A69134400221A707B690133F8
:100778007B617B69092BF4DD7B68022B04D0032B9A
:100788000CD0012B05D00EE0FB7A1846FFF764FF6A
:1007980009E0FB7A1846FFF783FF04E0FB7A184666
:1007A800FFF7A2FF00BF00BF1837BD4680BD00BFDE
:1007B800DC090020976FF99680B584B000AF00235C
:1007C800BB810023FB7306F089FF22E00123FB7342
:1007D8005E4B93F84C32DBB2002B04D05C4B93F8A1
:1007E800A53C072B27D9BB681B68BA681279104645
:1007F8009847574BD3F88830013B554AC2F88830A0
:10080800534BD3F88030013303F00F03504AC2F83A
:1008180080304F4BD3F88830002B06D04C4BD3F8A0
:100828008030DB004A4A134400E00023BB60BB6809
:10083800002BCBD100E000BF454BD3F83832002B5A
:1008480056D0424BB3F84632BB813FE00123FB73DD
:100858003E4B93F84C32DBB2002B04D03C4B93F860
:10086800A53C072B43D93A4BD3F838327B60384B39
:10087800D3F83832002B1AD0354BD3F838329B686E
:10088800002B08D0324BD3F83822314BD3F838320A
:100898009B68D268DA602E4BD3F838320022DA60CF
:1008A8002B4BD3F838329B68294AC2F838327B6818
:1008B8001B687A68127910469847254BD3F83C2272
:1008C8007B689A60224A7B68C2F83C32204BD3F896
:1008D80038327B607B68002B0AD07B68DB88BA895A
:1008E800D31A9BB247F6FE729342AFD900E000BF1D
:1008F800174BD3F83832002B1DD0154BD3F83832AC
:10090800DA88BB89D31A9BB247F6FE72934207D89E
:100918000F4BD3F83832DA88BB89D31A9BB206E07A
:100928000B4BD3F83832DB88BA89D31A9BB21846F6
:1009380001F0D2FE01E001F01FFFFB7B002B7FF4EA
:100948003EAF00BF1037BD4680BD00BFAC040020DD
:10095800FC06002080B485B000AF78600B46FB70C1
:100968000023FB60184BD3F8B430032B06D8164B82
:10097800D3F8B030DB00154A134400E00023BB6015
:10098800BB68002B16D0BB687A681A60BB68FA7817
:100998001A710D4BD3F8B43001330B4AC2F8B43096
:1009A800094BD3F8B030013303F00303064AC2F809
:1009B800B03002E06FF01C03FB60FB681846143788
:1009C800BD465DF8047B7047FC06002088070020C0
:1009D80080B485B000AF78600B46FB700023FB60E5
:1009E800184BD3F888300F2B06D8164BD3F8843021
:1009F800DB00144A134400E00023BB60BB68002BF3
:100A080016D0BB687A681A60BB68FA781A710D4B01
:100A1800D3F8883001330B4AC2F88830094BD3F831
:100A28008430013303F00F03064AC2F8843002E031
:100A38006FF01C03FB60FB6818461437BD465DF871
:100A4800047B7047FC06002080B483B000AF786058
:100A5800114BD3F838227B689A600F4BD3F83832A1
:100A6800002B0BD00C4BD3F83832DA687B68DA608D
:100A7800094BD3F838327A68DA6002E07B687A6822
:100A8800DA60054A7B68C2F8383200BF0C37BD46C9
:100A98005DF8047B704700BFFC06002080B586B077
:100AA80000AF78600B46FB7013463B8000237B61E8
:100AB8007B4BD3F83C32002B0BD0794BD3F83C322C
:100AC8003B61774BD3F83C329B68754AC2F83C329D
:100AD80001E000233B613B69002B00F0D8803B69B3
:100AE8007A681A603B69FA781A716E4BB3F8463225
:100AF8007B817A893B8813449AB23B69DA80684BD8
:100B0800D3F83832002B0BD0654BD3F83832DA885B
:100B18003B69DB88D31A9BB247F6FE72934203D82F
:100B28003869FFF791FF84E05D4BD3F83832FB60FA
:100B380002E0FB689B68FB60FB68002B09D03B69FF
:100B4800DA88FB68DB88D31A9BB247F6FE729342B9
:100B5800EFD9FB68002B4BD0FB68DB68FB60FB68B8
:100B6800002B41D0FB68002B63D04D4BD3F83832B3
:100B7800002B04D04A4BD3F83832DB6800E000235E
:100B8800FA68934221D13B6900229A60444BD3F81A
:100B98003832002B11D0424BD3F83832DA683B692F
:100BA800DA603F4BD3F83832DB683A699A603C4BDD
:100BB800D3F838323A69DA603BE03B693A69DA607F
:100BC800374A3B69C2F8383233E0FB689A683B69B8
:100BD8009A603B69FA68DA60FB689B683A69DA6090
:100BE800FB683A699A6024E03869FFF72DFF20E036
:100BF8003B6900229A602A4BD3F83832002B11D077
:100C0800274BD3F83832DA683B69DA60244BD3F8DB
:100C18003832DB683A699A60214BD3F838323A693E
:100C2800DA6006E03B693A69DA601D4A3B69C2F856
:100C380038321B4BD3F83832FB601A4BB3F84632C4
:100C48007B81FB68DB887A899A4223D0FB68DA8843
:100C58007B89D31A9BB247F6FE7293421AD8FB6877
:100C6800DA887B89D31A9BB247F6FE72934205D87D
:100C7800FB68DA887B89D31A9BB204E0FB68DB88BF
:100C88007A89D31A9BB2184601F026FD02E06FF06C
:100C98001C037B617B6918461837BD4680BD00BFC1
:100CA800FC060020AC04002080B487B000AF786058
:100CB8000B46FB706FF01B037B612E4BD3F8383269
:100CC8003B614AE03B699B68FB603B691B687A684B
:100CD8009A4240D1FB78FF2B07D0FB78FE2B04D03B
:100CE8003B691B79FA789A4235D13B69DB68002B5E
:100CF80023D03B699B68002B05D03B699B683A6908
:100D0800D268DA6005E01B4BD3F838323A69D2680A
:100D1800DA60184BD3F838323A699A4205D13B6900
:100D28009B68144AC2F8383204E03B69DB683A69C8
:100D380092689A603B690022DA600E4BD3F83C2235
:100D48003B699A600B4A3B69C2F83C3200237B61DD
:100D5800FB78FE2B05D1FB683B613B69002BB1D1C9
:100D680000E000BF7B6918461C37BD465DF8047B70
:100D7800704700BFFC06002080B584B000AF034672
:100D8800FB710023FB60FB791D4A134493F8A43CD4
:100D9800072B26D81A4BD3F8A03CFB60FB68002B26
:100DA8001FD0FB681B68164AC2F8A03CFB680822E3
:100DB8000021184683F09CF9FB79114A1A4492F8ED
:100DC800A42C0132D1B20E4A13440A4683F8A42C4B
:100DD800FB7903F00103D9B2FA68937961F3000350
:100DE8009371074B93F8A42C064B1A70044B93F895
:100DF800A52C054B1A70FB6818461037BD4680BDF8
:100E0800FC060020A9040020A804002080B500AF3B
:100E18000120FFF7B1FF0346184680BD80B500AF3B
:100E28000020FFF7A9FF0346184680BD80B584B0AF
:100E380000AF78600B46FB70FB781846FFF79CFF05
:100E4800B860BB68002B0DD0BB68334A9B1A9B1057
:100E5800324A02FB03F3DBB219467868FFF7B8FDA4
:100E6800034655E02E4BD3F85032002B0BD02C4BB9
:100E7800D3F85032FB602A4BD3F850325B68284ACB
:100E8800C2F8503201E00023FB60FB68002B3BD026
:100E9800FB687A681A60FB78002B1AD0FB6800227E
:100EA8005A601F4BD3F84432002B09D01C4BD3F89F
:100EB8004432FA685A601A4AFB68C2F8443226E09B
:100EC800174AFB68C2F84032154AFB68C2F8443238
:100ED8001DE0FB6800225A60114BD3F84C32002BFE
:100EE80009D00F4BD3F84C32FA685A600C4AFB68A9
:100EF800C2F84C320BE00A4AFB68C2F84832084A8A
:100F0800FB68C2F84C3202E04FF0FF3300E00023E8
:100F180018461037BD4680BDDC090020976FF9964A
:100F2800FC06002080B582B000AF786001217868A7
:100F3800FFF77CFF034618460837BD4680BD80B5DD
:100F480082B000AF786000217868FFF76FFF034632
:100F580018460837BD4680BD90B585B000AF7860AB
:100F68000023FB607B689B79C3F30003DBB2454A2F
:100F78001A4492F8A42C013AD1B2424A13440A46C0
:100F880083F8A42C3F4B93F8A42C3F4B1A703D4B8D
:100F980093F8A52C3D4B1A703A4BD3F8A02C7B68DC
:100FA8001A60384A7B68C2F8A03C7B689B7903F0DA
:100FB8000103DBB2002B21D0324B93F8143D002BF8
:100FC80038D1304BD3F84032002B14D02D4BD3F806
:100FD8004032FB602B4BD3F840325B68294AC2F899
:100FE8004032284BD3F84032002B23D1254B002226
:100FF800C3F844221EE00023FB601BE0214BD3F81A
:101008004832002B14D01F4BD3F84832FB601D4BDD
:10101800D3F848325B681B4AC2F84832194BD3F8F8
:101028004832002B06D1174B0022C3F84C2201E0AE
:101038000023FB60FB68002B1FD0FB681C687B68E3
:101048009B79C3F30003DBB21846FFF795FE03460E
:101058001A460F4BD31A9B100E4A02FB03F3DBB25E
:1010680019462046FFF7B4FC064BD3F85022FB681C
:101078005A60044AFB68C2F8503200BF1437BD46B4
:1010880090BD00BFFC060020A9040020A804002091
:10109800DC090020976FF99680B584B000AF7860BE
:1010A8000B46FB707B689B79C3F30003DBB2FB73D1
:1010B8007B6808220021184683F01AF8FB7B03F0AE
:1010C8000103D9B27A68937961F3000393717B685D
:1010D800FA781A70FB78C3F19403DA0F13445B10A3
:1010E800DAB27B685A707B6808337A68527813449E
:1010F80018461037BD4680BD80B584B000AF786013
:101108000B46FB707B685B78FA789A4215D97B6846
:1011180008337A6852781344FB60FB787A6852780F
:101128009B1A1A46FB6898187B681B781A46F96858
:1011380082F07AFF7B68FA785A707B681A78FB78B5
:101148001344DAB27B681A707B685A78FB78D31A32
:10115800DAB27B685A707B6808337A68527813442D
:1011680018461037BD4680BD80B485B000AF7860A2
:101178000B46FB707B6803F108027B685B781946B5
:101188007B681B780B441344FB607B681A78FB78F8
:101198001344DAB27B681A70FB6818461437BD46E8
:1011A8005DF8047B704780B586B000AFF860B96021
:1011B8001346FB71FB685B781A46FB681B7813447F
:1011C800C3F19402FB799A4222DAFA79FB685B78D8
:1011D8001946FB681B780B44C3F19403D31A7B614F
:1011E800FB680833FA68527813443B617B695B42B9
:1011F8003A69D018FB681B781A46396982F014FFDF
:10120800FB685A787B69DBB2D31ADAB2FB685A708A
:10121800FB791946F86800F03BF8FB791A46B9687B
:1012280082F0AAFD00BF1837BD4680BD80B483B0E8
:1012380000AF78600B46FB707B681A78FB78D31A8E
:10124800DAB27B681A707B685A78FB781344DAB292
:101258007B685A707B6808337A685278134418465A
:101268000C37BD465DF8047B704780B483B000AF8F
:1012780078600B46FB707B681A78FB78D31ADAB271
:101288007B681A7000BF0C37BD465DF8047B704759
:1012980080B483B000AF78600B46FB707B6808337E
:1012A800FA78C2F19402134418460C37BD465DF82B
:1012B800047B704780B584B000AF78607B689B7909
:1012C800C3F30003DBB2FB737B68082200211846D6
:1012D80082F00EFFFB7B03F00103D9B27A689379A1
:1012E80061F30003937100BF1037BD4680BD00BF96
:1012F80080B483B000AF786039603B68DB087A68F7
:1013080013441B7819463B6803F00703012202FACD
:1013180003F30B4018460C37BD465DF8047B704755
:1013280080B483B000AF786039603B68DB087A68C6
:101338001A44127851B23A6802F00702012000FA02
:1013480002F252B20A4351B27A681344CAB21A700E
:1013580000BF0C37BD465DF8047B704780B58AB086
:1013680000AF0346B9607A60FB8100237B62BB68EB
:101378001B7803F52D3303F2A5135B01BA681278C5
:101388001344BA6802321278134403F52D3303F27A
:10139800A5135A01BB681B7803F52D3303F2A51377
:1013A8005B01B96809780B44B968023109780B44C4
:1013B8001344BA6804321278134403F52D3303F248
:1013C800A5135A01BB681B7803F52D3303F2A51347
:1013D8005B01B96809780B44B968023109780B4494
:1013E80003F52D3303F2A5135901BB681B7803F5E8
:1013F8002D3303F2A5135B01B86800780344B8687D
:101408000230007803440B44B968043109780B446E
:101418001344BA6806321278134403F52D3303F2E5
:10142800A51303F007037B614FF0FF33FB61002333
:10143800FB767B693B62396A3148FFF759FF0346FF
:10144800002B15D03A6A13469B0013445B0003F542
:10145800A85318332B4A134407330822B96818468F
:1014680082F0B2FD0346002B04D10123FB760CE089
:101478003B6AFB613B6A01333B623B6A03F007034B
:101488003B623A6A7B699A42D5D1FB7E002B06D033
:101498007B683A6A1A606FF01A037B622AE0FB697C
:1014A800B3F1FF3F23D0FA6913469B0013445B0056
:1014B80003F5A8531833134A134407330822B968AD
:1014C800184682F059FC0F49FA6913469B001344E9
:1014D8005B000B4403F5A953FA89A3F80720F969BF
:1014E8000748FFF71DFF7B68FA691A6002E06FF092
:1014F8001C037B627B6A18462837BD4680BD00BF47
:101508006B1C0020FC06002080B582B000AF78601C
:1015180039607A6813469B0013445B0003F5A853AF
:101528001833064A1344073308221946386882F0EC
:1015380023FC00BF0837BD4680BD00BFFC06002065
:1015480080B586B000AF786039606FF01B037B61AF
:101558007B681B7803F52D3303F2A5135B017A68CA
:10156800127813447A6802321278134403F52D3343
:1015780003F2A5135A017B681B7803F52D3303F298
:10158800A5135B01796809780B44796802310978F9
:101598000B4413447A6804321278134403F52D334C
:1015A80003F2A5135A017B681B7803F52D3303F268
:1015B800A5135B01796809780B44796802310978C9
:1015C8000B4403F52D3303F2A51359017B681B78EF
:1015D80003F52D3303F2A5135B0178680078034403
:1015E80078680230007803440B447968043109783C
:1015F8000B4413447A6806321278134403F52D33EA
:1016080003F2A51303F00703FB60FB683B6139692C
:101618001748FFF76DFE0346002B18D03A691346AA
:101628009B0013445B0003F5A8531833114A134475
:10163800073308227968184682F0C6FC0346002B57
:1016480005D100237B613B683A691A600AE03B696F
:1016580001333B613B6903F007033B613A69FB686F
:101668009A42D4D17B6918461837BD4680BD00BF61
:101678006B1C0020FC06002080B483B000AF7860AB
:1016880039600A497A6813469B0013445B000B448F
:1016980003F5A953B3F807309AB23B681A8000BF24
:1016A8000C37BD465DF8047B704700BFFC06002080
:1016B80080B584B000AF786039607A6813469B00C3
:1016C80013445B0003F5A85318330A4A134407333D
:1016D80008221946386882F077FC0346002B0CBFB5
:1016E80001230023DBB2FB73FB7B18461037BD4692
:1016F80080BD00BFFC06002080B584B000AF7860D4
:1017080039601023BB600023FB601EE0F96826489F
:10171800FFF7EEFD0346002B12D0FA6813465B0074
:10172800134403F5A7530833204A1344073303220D
:101738007968184682F048FC0346002B02D107E07E
:10174800FB68BB60FB680133FB60FB680F2BDDD9CE
:10175800FB68102B01D1BB68FB60FB68102B1ED007
:10176800F9681148FFF7DCFDFA6813465B0013447B
:1017780003F5A75308330D4A134407330322796846
:10178800184682F0F9FAFB68DAB23B681A703B68CF
:10179800581C7B6803330522194682F0EDFA00BF16
:1017A8001037BD4680BD00BFE81B0020FC060020A6
:1017B80080B582B000AF786039603B681B781A4604
:1017C80013465B00134403F5A7530833094A13442F
:1017D800073303221946786882F0CEFA7B68D81C52
:1017E8003B6801330522194682F0C6FA00BF083764
:1017F800BD4680BDFC06002080B483B000AF786091
:101808007B685B7803F52D3303F2A5135B017A68D7
:10181800527813447A68D278134403F52D3303F2CF
:10182800A5135A017B685B7803F52D3303F2A513E2
:101838005B01796849780B447968C9780B4413448B
:101848007A681279134403F52D3303F2A5135A016C
:101858007B685B7803F52D3303F2A5135B01796888
:1018680049780B447968C9780B4403F52D3303F2A2
:10187800A51359017B685B7803F52D3303F2A51393
:101888005B017868407803447868C07803440B4467
:10189800796809790B4413447A685279134403F53B
:1018A8002D3303F2A51323F00043094AA2FB0312C8
:1018B800991A49080A449209652101FB02F29A1A09
:1018C800134618460C37BD465DF8047B704700BFC9
:1018D80057866F4480B588B000AFF8607B600B46D0
:1018E800FB721346BB720023FB6107F11403194610
:1018F800F868FFF701FF07F114037968184600F04C
:1019080089FA0346002B0FD07B681A6816491346DC
:101918009B0013445B000B4403F5AB5310339A7AD6
:1019280042F020029A720FE0FB7A002B09D007F1EF
:1019380014037A684FF6FF71184600F037FB034628
:1019480001E06FF01B03FB61BB7A002B07D0FB693A
:10195800002B04D17B681B68184600F0F5F9FB6979
:1019680018462037BD4680BDFC06002080B584B0EF
:1019780000AF3B600346FB800B467B7113463B710F
:101988000023FB60FB883968184600F093FA034689
:10199800002B0FD03B681A68154913469B00134467
:1019A8005B000B4403F5AB5310339A7A42F02002E4
:1019B8009A720DE07B79002B07D0FB883A681946AC
:1019C800002000F0F3FA034601E06FF01B03FB6010
:1019D8003B79002B07D0FB68002B04D13B681B68C0
:1019E800184600F0B1F9FB6818461037BD4680BDAF
:1019F800FC06002080B58CB000AFF8607B600B4619
:101A08007B8113467B720023FB620023BB6207F1D4
:101A180014031946F868FFF76FFE07F120027B8967
:101A28001146184600F046FA034687F8273007F1B2
:101A38001C0207F114031146184600F0EBF903469F
:101A480087F8263097F82730002B33D097F82630C0
:101A5800002B2FD03A6AFB699A4232D03A6A44493D
:101A680013469B0013445B000B4403F5AB53103340
:101A78009B7AC3F34303DBB2002B06D13B6A1846BB
:101A880000F02CFBFB693B621BE0FA6938491346FE
:101A98009B0013445B000B4403F5AB5310339B7A54
:101AA800C3F34303DBB2002B0BD1FB69184600F0EC
:101AB80015FB06E097F82630002B03D0FB693B6244
:101AC80000E000BF97F82730002B03D197F82630A5
:101AD800002B32D03A6A13469B0013445B0003F58F
:101AE800AB530833224A13440933BB62BB6A07F17C
:101AF80014010622184682F03FF9BB6ADB889BB2C4
:101B08007A899A4213D0BB6ADB889BB24FF6FF7280
:101B1800934203D03B6A184600F006FBBB6A7A89F9
:101B2800DA803B6A7A891146184600F055FBBA6A92
:101B3800537A43F02003537208E007F120027989B1
:101B480007F11403184600F031FAF862FB6A002B1B
:101B580009D13A6A7B681A607B7A002B03D03B6A0A
:101B6800184600F0F1F8FB6A18463037BD4680BDCC
:101B7800FC06002080B586B000AFF860B9607A60D6
:101B88007A6813469B0013445B0003F5AB53083394
:101B9800124A134409337B617B69DB889AB2BB68BC
:101BA8001A807B691B781A4613465B00134403F5B9
:101BB800A7530833094A1344073303221946F86820
:101BC80082F0DAF8FB68D81C7B69013305221946D4
:101BD80082F0D2F800BF1837BD4680BDFC06002051
:101BE80080B584B000AF786039603A6813469B00CE
:101BF80013445B0003F5AB530833104A134409330D
:101C0800FB60FB681B781A4613465B00134403F518
:101C1800A7530833094A134407330322194678683F
:101C280082F0AAF87B68D81CFB68013305221946A4
:101C380082F0A2F800BF1037BD4680BDFC06002028
:101C480080B485B000AF786039603A6813469B006D
:101C580013445B0003F5AB530833074A13440933B5
:101C6800FB60FB68DB889AB27B681A8000BF143778
:101C7800BD465DF8047B7047FC06002080B584B043
:101C880000AF786007F10803002200217868FFF7A9
:101C980021FE0346002B0FD1BA6813469B0013445C
:101CA8005B0003F5AB530833064A13440933FB6062
:101CB800FB68DB889BB201E04FF6FF7318461037CC
:101CC800BD4680BDFC06002080B584B000AF034649
:101CD8003960FB8007F10803F88800220021FFF72C
:101CE80045FE0346002B26D1BA6813469B001344D1
:101CF8005B0003F5AB530833124A13440933FB6006
:101D0800FB681B781A4613465B00134403F5A75378
:101D180008330C4A1344073303221946386882F003
:101D28002BF83B68D81CFB6801330522194682F062
:101D380023F8002301E06FF01B0318461037BD4657
:101D480080BD00BFFC06002080B483B000AF78607F
:101D580019497A6813469B0013445B000B4403F54A
:101D6800AB5310339B7AC3F34303DBB2013303F065
:101D78000F03D9B210487A6813469B0013445B00DE
:101D8800034403F5AB5310339A7A61F344029A7211
:101D980009497A6813469B0013445B000B4403F51A
:101DA800AB5310339A7A42F020029A7200BF0C3774
:101DB800BD465DF8047B7047FC06002080B483B004
:101DC80000AF786012497A6813469B0013445B00A1
:101DD8000B4403F5AB5310339B7AC3F34303DBB2D5
:101DE8000F3303F00F03D9B209487A6813469B00F2
:101DF80013445B00034403F5AB5310339A7A61F341
:101E080044029A7200BF0C37BD465DF8047B7047E8
:101E1800FC06002080B584B000AF7860396078682F
:101E2800FFF7EAFCF8600023BB6037E01F49FA6857
:101E380013469B0013445B000B4403F5AB5310336C
:101E48009B7AC3F30003DBB2002B16D0FA68134663
:101E58009B0013445B0003F5AB530833134A134448
:101E680009337968184600F00BFB0346002B04D0B1
:101E78003B68FA681A60012314E0BB680133BB6051
:101E8800FB6801330A4AA2FB0312991A49080A445B
:101E98009209652101FB02F29B1AFB60BB68642B67
:101EA800C4D9002318461037BD4680BDFC06002063
:101EB80057866F4480B487B000AF03463960FB8013
:101EC8000023FB7500233B61374B03F5CE530C33DE
:101ED8001B68012B2ED9344B03F5CE530C331B68EA
:101EE800FB6023E0FA683B69D31A5A083B6913443C
:101EF800BB602D4ABB68134403F5CB5303331B78EF
:101F08001946294A0B469B000B445B00134403F512
:101F1800AB530833B3F80F309BB2FA889A4203D90F
:101F2800BB6801333B6101E0BB68FB603A69FB6851
:101F38009A42D7D31C4B03F5CE530C331B68002BA6
:101F48002AD0194B03F5CE530C331B683A699A42D1
:101F580022D2154A3B69134403F5CB5303331B784C
:101F68001946114A0B469B000B445B00134403F5CA
:101F7800AB530833B3F80F309BB2FA889A420BD1AF
:101F8800094A3B69134403F5CB5303331B781A46BC
:101F98003B681A600123FB75FB7D18461C37BD465C
:101FA8005DF8047B704700BFFC06002080B588B050
:101FB80000AFF8600B467A607B81FB68002B04D089
:101FC800F868FFF719FC034600E00023FB61FB6992
:101FD8007B610123FB76FA6913469B0013445B007F
:101FE80003F5AB5308333B4A134409333B613B6960
:101FF8005B7A03F00103DBB2002B02D10023FB76EE
:1020080011E0FB690133344AA2FB0312991A49080B
:102018000A449209652101FB02F29B1AFB61FA69E5
:102028007B699A42D7D1FB7E002B02D06FF01C034C
:102038004BE000F077F93B697A89DA803A69537A9C
:1020480043F020035372FB68002B06D03B6906223D
:10205800F968184681F090FE05E03B6906220021E8
:10206800184682F045F87B894FF6FF7293420ED0EE
:102078003B695B7A03F00103DBB2002B02D0F869FD
:1020880000F052F87B891946F86900F0A5F8114B61
:1020980003F5CE5308331B683A69527A02F00102FD
:1020A800D2B2002A0CBF01220022D2B21A44094B34
:1020B80003F5CE5308331A603A69537A43F00103A3
:1020C80053727B68FA691A60002318462037BD46A8
:1020D80080BD00BFFC06002057866F4480B582B0E3
:1020E80000AF7860786800F01FF80E497A681346E8
:1020F8009B0013445B000B4403F5AB5310339A7AEF
:102108006FF300029A72074B03F5CE5308331B682E
:102118005A1E044B03F5CE5308331A6000BF083724
:10212800BD4680BDFC06002080B584B000AF786055
:102138000023BB600023FB6034E0264AFB6813449D
:1021480003F5CB5303331B781A467B68934226D199
:10215800BB680133BB601F4B03F5CE530C331B68C0
:10216800013BFA689A421AD0FB6803F5CA53183340
:10217800184A134403F10B00FB68013303F5CA53F3
:102188001833144A134403F10B01124B03F5CE53D1
:102198000C331A68FB68D31A1A4681F045FFFB68AE
:1021A8000133FB600B4B03F5CE530C331B68FA6805
:1021B8009A42C2D3074B03F5CE530C331A68BB6857
:1021C800D21A044B03F5CE530C331A6000BF1037F4
:1021D800BD4680BDFC06002080B586B000AF7860A3
:1021E8000B467B8000237B614D4B03F5CE530C33AC
:1021F8001B68012B2ED94A4B03F5CE530C331B68B1
:102208003B6123E03A697B69D31A5B087A69134416
:10221800FB60434AFB68134403F5CB5303331B7835
:1022280019463F4A0B469B000B445B00134403F5D9
:10223800AB530833B3F80F309BB27A889A4203D372
:10224800FB6801337B6101E0FB683B617A693B69AC
:102258009A42D7D3324B03F5CE530C331B68002B6D
:1022680021D02F4B03F5CE530C331B687A699A4261
:1022780019D22B4A7B69134403F5CB5303331B78DC
:102288001946274A0B469B000B445B00134403F591
:10229800AB530833B3F80F309BB27A889A4202D90D
:1022A8007B6901337B611E4B03F5CE530C331B68EE
:1022B8007A699A421AD27B69013303F5CA531833F3
:1022C800174A134403F10B007B6903F5CA5318330B
:1022D800134A134403F10B01114B03F5CE530C338E
:1022E8001A687B69D31A1A4681F09EFE7B68D9B2B8
:1022F8000B4A7B69134403F5CB5303330A461A7020
:10230800074B03F5CE530C331B685A1C044B03F5DB
:10231800CE530C331A6000BF1837BD4680BD00BFCE
:10232800FC06002080B485B000AF544B03F5CE53B3
:1023380010331B687B600023FB600023FB7233E0D3
:102348004E4B03F5CE5310331A6813469B001344C3
:102358005B0003F5AB530833484A134409333B6029
:10236800464B03F5CE5310331B685A1C434B03F5F9
:10237800CE5310331A603B685B7A03F00103DBB27B
:10238800002B11D0FB680133FB603B685B7A03F0DC
:102398001E03DBB2002B07D13A68537A6FF345135B
:1023A80053720123FB720EE0344B03F5CE53103306
:1023B8001B68642B07D8314B03F5CE5308331B68D1
:1023C800FA689A42BCD3FB7A002B51D12B4B03F508
:1023D800CE5308331B68FA689A4249D2274B03F553
:1023E800CE53103300221A6032E0244B03F5CE534B
:1023F80010331A6813469B0013445B0003F5AB5374
:1024080008331E4A134409333B601C4B03F5CE5373
:1024180010331B685A1C194B03F5CE5310331A603E
:102428003B685B7A03F00103DBB2002B10D0FB683A
:102438000133FB603B685B7A03F01E03DBB2002BC1
:1024480006D13A68537A6FF34513537200BF0FE011
:102458000A4B03F5CE5310331B687A689A4207D9A2
:10246800064B03F5CE5308331B68FA689A42BCD36F
:1024780000BF1437BD465DF8047B7047FC0600209A
:1024880080B582B000AF786039607B681A783B68A5
:102498001B789A420CD17B68581C3B680133052293
:1024A800194681F091FD0346002B01D1012300E07C
:1024B8000023DBB218460837BD4680BD80B483B020
:1024C80000AF0346FB71FB7903F05503DAB2FB79E1
:1024D8005B08DBB203F05503DBB21344FB71FB79F5
:1024E80003F03303DAB2FB799B08DBB203F0330362
:1024F800DBB21344FB71FB7903F00F03DAB2FB790B
:102508001B09DBB21344FB71FB7918460C37BD4637
:102518005DF8047B704700BF80B500AF41F6A43278
:102528000021124881F0E4FD4FF414720021104894
:1025380081F0DEFD03F0E6F903F0F4FA03F0E2FBC4
:102548000C4800F027F900F04BF900F085F800F08E
:1025580055F803F0BBFC05F03DF871F09BFE79F0EF
:102568001BFD7BF04BFD00BF80BD00BFFC060020BB
:10257800AC0400204C42080880B582B000AF1E4B66
:10258800B3F8C83C002B0BD11B4B03F58B53093315
:102598001B78002B04D1184B4FF6FF72A3F8C82CF8
:1025A80000237B600FE07B68DBB20533D8B2124AA8
:1025B8007B68134403F6D1431B78194608F094F955
:1025C8007B6801337B607B68072BECD90A4BB3F837
:1025D800C83CDBB21946012008F086F9064BB3F86F
:1025E800C83C1B0A9BB2DBB21946022008F07CF9F2
:1025F80000BF0837BD4680BDFC06002080B483B00C
:1026080000AF134BD3F8A03C002B1BD1104B114A41
:10261800C3F8A02C0E4BD3F8A03C3B600F23FB71F2
:1026280007E03B6803F19C023B681A603B689C33F7
:102638003B60FB795A1EFA71002BF2D13B680022ED
:102648001A6000E000BF0C37BD465DF8047B704798
:10265800FC060020DC09002080B483B000AF002312
:10266800FB7113E0FB791B4AD2F83C2219490C3361
:102678001B010B441A60FB791B01B833154A13443C
:10268800144AC2F83C32FB790133FB71FB790F2BFA
:10269800E8D90023FB7113E0FB790E4AD2F85022E7
:1026A8000C493733DB000B445A60FB793733DB00C6
:1026B800084A1344074AC2F85032FB790133FB71C8
:1026C800FB790F2BE8D900BF0C37BD465DF8047BBA
:1026D800704700BFFC06002080B485B000AF0346F9
:1026E800FB80234BB3F84632FB81FA89FB881344FD
:1026F800BB8172B61E4B93F84832DBB2002B15D063
:102708001B4BB3F844329BB2BA89D31A9BB247F633
:10271800FE7293420AD8164BB3F844329AB2FB8938
:10272800D31A9BB247F6FE72934207D9104ABB8967
:10273800A2F844320E4B012283F8482262B60D4BB0
:102748001B6803F48033002B0BD10A4B1B68094A22
:1027580043F001031360074B1B68064A43F002036A
:10276800136000BF1437BD465DF8047B704700BF97
:10277800AC04002010E000E080B400AF044B00225D
:1027880083F8482200BFBD465DF8047B704700BF50
:10279800AC04002080B483B000AF78600F4B03F521
:1027A8008B530C334FF480321A600C4B03F58B5368
:1027B8000A3301221A70094B012283F8CA2C074BED
:1027C800202283F8832E054B032283F8F82D00BFBF
:1027D8000C37BD465DF8047B704700BFFC0600203F
:1027E80080B400AF00BFBD465DF8047B704780B47D
:1027F80000AF00BFBD465DF8047B704780B483B06E
:1028080000AF7860064A7B6843F0BF6343F4003347
:10281800D36000BF0C37BD465DF8047B704700BF2E
:1028280000ED00E080B485B000AF78600023FB7352
:102838000023BB730F237B737B68DB78002B39D0B5
:10284800274BDB68DB431B0ADBB203F00703FB7390
:10285800FB7BC3F10403BB737A7BFB7B42FA03F374
:102868007B737B685B781A46BB7B02FA03F3FB73C6
:102878007B689A787B7B1340DAB2FB7B1343FB734C
:10288800FB7B1B01FB73174A7B681B781344FA7B9D
:1028980083F800237B681B7803F01F0311497A68CB
:1028A80012785209D2B21046012202FA03F341F813
:1028B80020300FE07B681B7803F01F0309497A6812
:1028C80012785209D2B2104601229A4000F1200330
:1028D80041F8232000BF1437BD465DF8047B7047DC
:1028E80000ED00E000E100E080B483B000AF786064
:1028F80039603B6823F0604323F07F0304497A681A
:1029080013438B6000BF0C37BD465DF8047B7047EE
:1029180000ED00E080B483B000AF03460A46FB71C7
:102928001346BB71BB79002B06D00A4B1A69FB7999
:10293800084913430B6106E0064B1A69FB79DB4330
:10294800044913400B6100BF0C37BD465DF8047B9A
:10295800704700BF00ED00E080B483B000AF78603E
:102968007B68042B06D1094B1B68084A43F0040313
:10297800136005E0054B1B68044A23F00403136049
:1029880000BF0C37BD465DF8047B704710E000E0DF
:1029980080B582B000AF78607B683C4A934208D12A
:1029A8000121012000F0CEFD0021012000F0CAFD28
:1029B80068E07B68364A934208D10121022000F082
:1029C800C1FD0021022000F0BDFD5BE07B68314ABB
:1029D800934208D10121042000F0B4FD0021042015
:1029E80000F0B0FD4EE07B682B4A934208D10121EC
:1029F800082000F0A7FD0021082000F0A3FD41E019
:102A08007B68264A934208D10121102000F09AFDE4
:102A18000021102000F096FD34E07B68204A9342A4
:102A280008D10121202000F08DFD0021202000F098
:102A380089FD27E07B681B4A934208D10121402089
:102A480000F080FD0021402000F07CFD1AE07B684A
:102A5800154A934208D10121802000F073FD00211E
:102A6800802000F06FFD0DE07B68104A934209D189
:102A780001214FF4807000F065FD00214FF4807053
:102A880000F060FD00BF0837BD4680BD0000024071
:102A98000004024000080240000C024000100240FE
:102AA8000014024000180240001C024000200240AE
:102AB80080B487B000AF7860396000237B61002361
:102AC8003B610023FB6000237B6176E001227B6988
:102AD80002FA03F33B613B681B683A691340FB60E9
:102AE800FA683B699A4265D17B681A687B695B0022
:102AF800032101FA03F3DB431A407B681A607B6801
:102B08001A683B681B7919467B695B0001FA03F375
:102B18001A437B681A603B681B79012B03D03B681A
:102B28001B79022B2ED17B689A687B695B00032195
:102B380001FA03F3DB431A407B689A607B689A6862
:102B48003B685B7919467B695B0001FA03F31A431A
:102B58007B689A607B685A687B699BB21946012337
:102B68008B40DB431A407B685A607B685B683A6835
:102B7800927911467A6992B201FA02F292B21A4334
:102B88007B685A607B68DA687B699BB25B000321CB
:102B980001FA03F3DB431A407B68DA607B68DA6882
:102BA8003B68DB7919467B695B0001FA03F31A433A
:102BB8007B68DA607B6901337B617B690F2B85D980
:102BC80000BF1C37BD465DF8047B704780B483B0F6
:102BD80000AF78607B684FF6FF721A607B6800224E
:102BE8001A717B6800225A717B6800229A717B688F
:102BF8000022DA7100BF0C37BD465DF8047B7047D0
:102C080080B485B000AF78600B467B804FF480338A
:102C1800FB607A88FB681343FB60FA687B68DA61BB
:102C28007A887B68DA61FA687B68DA617B68DB69D5
:102C3800FB607B68DB69FB6000BF1437BD465DF84D
:102C4800047B704780B485B000AF78600B467B800A
:102C58000023FB737B681A697B881340002B02D022
:102C68000123FB7301E00023FB73FB7B1846143739
:102C7800BD465DF8047B704780B483B000AF7860D0
:102C88007B681B699BB218460C37BD465DF8047B10
:102C9800704780B485B000AF78600B467B80002316
:102CA800FB737B685A697B881340002B02D0012391
:102CB800FB7301E00023FB73FB7B18461437BD460A
:102CC8005DF8047B704780B483B000AF78607B68A0
:102CD8005B699BB218460C37BD465DF8047B7047AC
:102CE80080B483B000AF78600B467B807B687A88BD
:102CF8001A8300BF0C37BD465DF8047B704780B46B
:102D080083B000AF78600B467B807B687A885A83F3
:102D180000BF0C37BD465DF8047B704780B483B0B4
:102D280000AF78600B467B8013467B707B78002B66
:102D380003D07B687A881A8302E07B687A885A8392
:102D480000BF0C37BD465DF8047B704780B483B084
:102D580000AF78600B467B807A887B685A6100BF39
:102D68000C37BD465DF8047B704780B483B000AF74
:102D780078600B467B807B685A697B885A407B6801
:102D88005A6100BF0C37BD465DF8047B704780B4BC
:102D980085B000AF78600B467B8013467B700023BC
:102DA800FB600023BB607A787B8803F007039B00F5
:102DB80002FA03F3FB607B88DB089BB21A467B6848
:102DC800083253F822207B8803F007039B000F2169
:102DD80001FA03F3DB437988C90889B2084602EA95
:102DE80003017B6800F1080243F822107B88DB08A6
:102DF8009BB21A467B68083253F82230FA681343AC
:102E0800BB607B88DB089BB21A467B680832B968CE
:102E180043F8221000BF1437BD465DF8047B7047A5
:102E280080B400AF104B1B680F4A43F001031360D6
:102E38000D4B00229A600C4B1B680B4A23F08473DD
:102E480023F480331360084B084A5A60064B1B680A
:102E5800054A23F480231360034B0022DA6000BF85
:102E6800BD465DF8047B70470038024010300024EE
:102E780080B483B000AF0346FB71064B00221A7082
:102E8800044AFB79137000BF0C37BD465DF8047B1C
:102E9800704700BF0238024080B582B000AF0023FF
:102EA8003B600023FB710023BB71312000F0B0FCB4
:102EB8000346BB713B6801333B603B68B3F5A06FC9
:102EC80002D0BB79002BF0D0312000F0A1FC0346E2
:102ED800002B02D00123FB7101E00023FB71FB7979
:102EE80018460837BD4680BD80B485B000AF03469C
:102EF800FB710023FB600A4B1B68FB60FB6823F037
:102F0800F803FB60FB79DB00FA681343FB60044AB3
:102F1800FB68136000BF1437BD465DF8047B70473B
:102F28000038024080B483B000AF0346FB71044A06
:102F3800FB79136000BF0C37BD465DF8047B704712
:102F48000000474280B483B000AF0346FB710D4BCD
:102F580000221A700B4B00221A70FB79012B02D049
:102F6800042B04D007E0074B01221A7003E0054B3D
:102F780005221A7000BF00BF0C37BD465DF8047B00
:102F8800704700BF7038024080B483B000AF03467A
:102F9800FB71044AFB79136000BF0C37BD465DF82E
:102FA800047B7047800E474280B485B000AFF8605C
:102FB800B9607A603B607B689A01BB681A433B68DA
:102FC8005B08013B1B041A43FB681A43BB691B06D9
:102FD800044913434B6000BF1437BD465DF8047BBA
:102FE800704700BF0038024080B483B000AF03468A
:102FF800FB71044AFB79136000BF0C37BD465DF8CE
:10300800047B70476000474280B483B000AF7860AB
:1030180039607B689A013B681B0705491343C1F86F
:10302800843000BF0C37BD465DF8047B704700BF95
:103038000038024080B483B000AF0346FB71044AF5
:10304800FB79136000BF0C37BD465DF8047B704701
:103058006800474280B483B000AF0346FB71044A5E
:10306800FB79136000BF0C37BD465DF8047B7047E1
:103078004C00474280B485B000AF786039600023C7
:10308800FB600B4B9B68FB60FB6823F0EC63FB6009
:103098007A683B681343FA681343FB60044AFB6889
:1030A800936000BF1437BD465DF8047B704700BFCE
:1030B8000038024080B485B000AF786039600023E2
:1030C800FB600B4B9B68FB60FB6823F07843FB605D
:1030D8007A683B681343FA681343FB60044AFB6849
:1030E800936000BF1437BD465DF8047B704700BF8E
:1030F8000038024080B485B000AF78600023FB60E0
:10310800094B9B68FB60FB6823F00303FB60FA68CC
:103118007B681343FB60044AFB68936000BF143765
:10312800BD465DF8047B70470038024080B400AFAC
:10313800054B9B68DBB203F00C03DBB21846BD46B7
:103148005DF8047B704700BF0038024080B485B04A
:1031580000AF78600023FB60094B9B68FB60FB684D
:1031680023F0F003FB60FA687B681343FB60044AB2
:10317800FB68936000BF1437BD465DF8047B704759
:103188000038024080B485B000AF78600023FB604F
:10319800094B9B68FB60FB6823F4E053FB60FA680B
:1031A8007B681343FB60044AFB68936000BF1437D5
:1031B800BD465DF8047B70470038024080B485B096
:1031C80000AF78600023FB600A4B9B68FB60FB68DC
:1031D80023F46043FB607B68DB00FA681343FB6001
:1031E800044AFB68936000BF1437BD465DF8047B52
:1031F800704700BF0038024080B489B000AF7860E3
:103208000023BB6100237B610023FB6102233B6138
:103218000023FB600223BB60474B9B6803F00C0351
:10322800BB61BB69042B07D0082B09D0002B3DD10B
:103238007B68424A1A603DE07B68414A1A6039E07F
:103248003D4B5B689B0D03F00103FB603A4B5B68E9
:1032580003F03F03BB60FB68002B0CD0384ABB6807
:10326800B2FBF3F3344A52689209C2F3080202FB34
:1032780003F3FB610BE0314ABB68B2FBF3F32E4A60
:1032880052689209C2F3080202FB03F3FB612A4B5E
:103298005B681B0C03F0030301335B003B61FA69B5
:1032A8003B69B2FBF3F27B681A6003E07B68234A50
:1032B8001A6000BF204B9B6803F0F003BB61BB6939
:1032C8001B09BB611F4ABB6913441B78DBB27B61D6
:1032D8007B681A687B69DA407B685A60164B9B6882
:1032E80003F4E053BB61BB699B0ABB61154ABB6928
:1032F80013441B78DBB27B617B685A687B69DA40D0
:103308007B689A600C4B9B6803F46043BB61BB69A4
:103318005B0BBB610B4ABB6913441B78DBB27B6157
:103328007B685A687B69DA407B68DA6000BF2437BB
:10333800BD465DF8047B7047003802400024F40065
:10334800001BB7000C00002080B485B000AF786087
:103358000023FB607B6803F44073B3F5407F11D111
:103368000F4B9B68FB60FB6823F4F813FB607B68DA
:1033780023F0704323F44073FA681343FB60084A50
:10338800FB689360064B1A6F7B68C3F30B03044911
:1033980013430B6700BF1437BD465DF8047B7047C5
:1033A8000038024080B483B000AF0346FB71044A82
:1033B800FB79136000BF0C37BD465DF8047B70478E
:1033C8003C0E474280B483B000AF0346FB71044A09
:1033D800FB79136000BF0C37BD465DF8047B70476E
:1033E800400E474280B483B000AF7860044A7B68DF
:1033F800136000BF0C37BD465DF8047B704700BF03
:103408005C01474280B483B000AF78600B46FB7024
:10341800FB78002B06D00A4B1A6B09497B681343CB
:103428000B6306E0064B1A6B7B68DB4304491340C9
:103438000B6300BF0C37BD465DF8047B704700BFC7
:103448000038024080B483B000AF78600B46FB7050
:10345800FB78002B06D00A4B5A6B09497B6813434B
:103468004B6306E0064B5A6B7B68DB430449134009
:103478004B6300BF0C37BD465DF8047B704700BF47
:103488000038024080B483B000AF78600B46FB7010
:10349800FB78002B06D00A4B9A6B09497B681343CB
:1034A8008B6306E0064B9A6B7B68DB430449134049
:1034B8008B6300BF0C37BD465DF8047B704700BFC7
:1034C8000038024080B483B000AF78600B46FB70D0
:1034D800FB78002B06D00A4B1A6C09497B6813430A
:1034E8000B6406E0064B1A6C7B68DB430449134007
:1034F8000B6400BF0C37BD465DF8047B704700BF06
:103508000038024080B483B000AF78600B46FB708F
:10351800FB78002B06D00A4B5A6C09497B68134389
:103528004B6406E0064B5A6C7B68DB430449134046
:103538004B6400BF0C37BD465DF8047B704700BF85
:103548000038024080B483B000AF78600B46FB704F
:10355800FB78002B06D00A4B1A6909497B6813438C
:103568000B6106E0064B1A697B68DB43044913408C
:103578000B6100BF0C37BD465DF8047B704700BF88
:103588000038024080B483B000AF78600B46FB700F
:10359800FB78002B06D00A4B5A6909497B6813430C
:1035A8004B6106E0064B5A697B68DB4304491340CC
:1035B8004B6100BF0C37BD465DF8047B704700BF08
:1035C8000038024080B483B000AF78600B46FB70CF
:1035D800FB78002B06D00A4B9A6909497B6813438C
:1035E8008B6106E0064B9A697B68DB43044913400C
:1035F8008B6100BF0C37BD465DF8047B704700BF88
:103608000038024080B483B000AF78600B46FB708E
:10361800FB78002B06D00A4B1A6A09497B681343CA
:103628000B6206E0064B1A6A7B68DB4304491340C9
:103638000B6200BF0C37BD465DF8047B704700BFC6
:103648000038024080B483B000AF78600B46FB704E
:10365800FB78002B06D00A4B5A6A09497B6813434A
:103668004B6206E0064B5A6A7B68DB430449134009
:103678004B6200BF0C37BD465DF8047B704700BF46
:103688000038024080B483B000AF78600B46FB700E
:10369800FB78002B06D00A4B1A6D09497B68134347
:1036A8000B6506E0064B1A6D7B68DB430449134043
:1036B8000B6500BF0C37BD465DF8047B704700BF43
:1036C8000038024080B483B000AF78600B46FB70CE
:1036D800FB78002B06D00A4B5A6D09497B681343C7
:1036E8004B6506E0064B5A6D7B68DB430449134083
:1036F8004B6500BF0C37BD465DF8047B704700BFC3
:103708000038024080B483B000AF78600B46FB708D
:10371800FB78002B06D00A4B9A6D09497B68134346
:103728008B6506E0064B9A6D7B68DB4304491340C2
:103738008B6500BF0C37BD465DF8047B704700BF42
:103748000038024080B483B000AF78600B46FB704D
:10375800FB78002B06D00A4B1A6E09497B68134385
:103768000B6606E0064B1A6E7B68DB430449134080
:103778000B6600BF0C37BD465DF8047B704700BF81
:103788000038024080B483B000AF78600B46FB700D
:10379800FB78002B06D00A4B5A6E09497B68134305
:1037A8004B6606E0064B5A6E7B68DB4304491340C0
:1037B8004B6600BF0C37BD465DF8047B704700BF01
:1037C8000038024080B483B000AF03460A46FB715C
:1037D8001346BB71BB79002B08D00C4B1B78DAB2AF
:1037E8000A49FB791343DBB20B7009E0074B1B78DE
:1037F800DAB2FB79DB43DBB204491340DBB20B706E
:1038080000BF0C37BD465DF8047B70470D38024099
:1038180080B487B000AF0346FB710023FB60002330
:103828007B610023FB74FB795B09DBB2FB60FB68FF
:10383800012B03D1124B1B687B6109E0FB68022B4B
:1038480003D10F4B1B6F7B6102E00D4B5B6F7B61FC
:10385800FB7903F01F03FB607A69FB6822FA03F324
:1038680003F00103002B02D00123FB7401E00023C5
:10387800FB74FB7C18461C37BD465DF8047B70471B
:103888000038024080B400AF054B5B6F044A43F038
:103898008073536700BFBD465DF8047B704700BF67
:1038A8000038024080B485B000AF0346FB710023A6
:1038B800FB73094BDA68FB791340002B02D0012314
:1038C800FB7301E00023FB73FB7B18461437BD46EE
:1038D8005DF8047B704700BF0038024080B483B0B5
:1038E80000AF0346FB71044AFB79137000BF0C3725
:1038F800BD465DF8047B70470E38024080B500AFC6
:1039080001214FF48040FFF79DFE00214FF48040D5
:10391800FFF798FE00BF80BD80B483B000AF0346B8
:10392800FB71044AFB79136000BF0C37BD465DF894
:10393800047B70470038014080B485B000AF03466F
:103948000A46FB711346BB710023FB60BB7903F089
:1039580003039B000F2202FA03F3FB60164ABB79AC
:103968009B08DBB2023352F82320FB68DB43124882
:10397800B9798908C9B21A408B1C40F823200E4A2D
:10398800BB799B08DBB2023352F82320F979BB7963
:1039980003F003039B0001FA03F30748B979890888
:1039A800C9B21A438B1C40F8232000BF1437BD4608
:1039B8005DF8047B704700BF0038014080B483B0D5
:1039C80000AF7860044A7B68136000BF0C37BD46BF
:1039D8005DF8047B704700BFDC00274280B483B0E9
:1039E80000AF0346FB71044AFB79136000BF0C3734
:1039F800BD465DF8047B70470004274280B483B05D
:103A080000AF0023FB71094B1B6A03F48073002B82
:103A180002D00123FB7101E00023FB71FB791846FA
:103A28000C37BD465DF8047B704700BF0038014085
:103A380080B582B000AF78607B68604A934208D155
:103A480001210120FFF7FEFD00210120FFF7FAFD0B
:103A5800AFE07B68B3F1804F08D101210120FFF767
:103A6800D1FD00210120FFF7CDFDA2E07B68544A7B
:103A7800934208D101210220FFF7C4FD0021022052
:103A8800FFF7C0FD95E07B684E4A934208D10121BB
:103A98000420FFF7B7FD00210420FFF7B3FD88E0FD
:103AA8007B68494A934208D101210820FFF7AAFD03
:103AB80000210820FFF7A6FD7BE07B68434A93427C
:103AC80008D101211020FFF79DFD00211020FFF7EC
:103AD80099FD6EE07B683E4A934208D1012120207F
:103AE800FFF790FD00212020FFF78CFD61E07B6847
:103AF800384A934208D101210220FFF7A3FD002193
:103B08000220FFF79FFD54E07B68334A93420AD1B5
:103B180001214FF48030FFF795FD00214FF48030EC
:103B2800FFF790FD45E07B682C4A93420AD10121BA
:103B38004FF40030FFF786FD00214FF40030FFF707
:103B480081FD36E07B68264A93420AD101214FF471
:103B58008020FFF777FD00214FF48020FFF772FDEA
:103B680027E07B681F4A934208D101214020FFF7D4
:103B780049FD00214020FFF745FD1AE07B681A4AFD
:103B8800934208D101218020FFF73CFD00218020CD
:103B9800FFF738FD0DE07B68144A934209D10121F3
:103BA8004FF48070FFF72EFD00214FF48070FFF76F
:103BB80029FD00BF0837BD4680BD00BF0000014099
:103BC8000004004000080040000C004000100040C5
:103BD800001400400004014000400140004401403E
:103BE8000048014000180040001C00400020004030
:103BF80080B485B000AF786039600023FB817B68B2
:103C08001B88FB817B68294A934213D07B68284A2A
:103C180093420FD07B68B3F1804F0BD07B68254A65
:103C2800934207D07B68244A934203D07B68234A97
:103C3800934208D1FB8923F07003FB813B685A88C3
:103C4800FB891343FB817B681D4A93420CD07B6838
:103C58001C4A934208D0FB8923F44073FB813B68DC
:103C68001A89FB891343FB817B68FA891A803B68B0
:103C78005A687B68DA623B681A887B681A857B68B1
:103C88000A4A934203D07B68094A934204D13B68AD
:103C98009B7A9AB27B681A867B6801229A8200BF57
:103CA8001437BD465DF8047B704700BF0000014033
:103CB800000401400004004000080040000C0040DF
:103CC800001000400014004080B483B000AF78605A
:103CD8007B684FF0FF325A607B6800221A807B684D
:103CE80000221A817B6800225A807B6800229A721F
:103CF80000BF0C37BD465DF8047B704780B483B0C5
:103D080000AF78600B467B8013463B807B687A88DF
:103D18001A857B683A889A8200BF0C37BD465DF8E1
:103D2800047B704780B485B000AF78600B467B8019
:103D38000023FB817B681B88FB81FB8923F07003D0
:103D4800FB81FA897B881343FB817B68FA891A8097
:103D580000BF1437BD465DF8047B704780B483B05C
:103D680000AF786039607B683A685A6200BF0C37E8
:103D7800BD465DF8047B704780B483B000AF7860BF
:103D880039607B683A68DA6200BF0C37BD465DF877
:103D9800047B704780B483B000AF78607B685B6A4F
:103DA80018460C37BD465DF8047B704780B483B075
:103DB80000AF78607B681B8D9BB218460C37BD46F8
:103DC8005DF8047B704780B483B000AF78600B4621
:103DD800FB70FB78002B08D07B681B889BB243F0F4
:103DE80002039AB27B681A8007E07B681B889BB243
:103DF80023F002039AB27B681A8000BF0C37BD46D5
:103E08005DF8047B704780B483B000AF78600B46E0
:103E18007B807B88002B08D07B681B889BB243F093
:103E280004039AB27B681A8007E07B681B889BB200
:103E380023F004039AB27B681A8000BF0C37BD4692
:103E48005DF8047B704780B483B000AF78600B46A0
:103E5800FB70FB78002B08D07B681B889BB243F073
:103E680080039AB27B681A8007E07B681B889BB244
:103E780023F080039AB27B681A8000BF0C37BD46D6
:103E88005DF8047B704780B483B000AF78600B4660
:103E98007B807B681B889BB223F008039AB27B68FF
:103EA8001A807B681B889AB27B8813439AB27B6816
:103EB8001A8000BF0C37BD465DF8047B704780B49C
:103EC80083B000AF78600B467B807B681B889BB211
:103ED80023F440739AB27B681A807B681B889AB275
:103EE8007B8813439AB27B681A8000BF0C37BD46A3
:103EF8005DF8047B704780B483B000AF78600B46F0
:103F0800FB70FB78002B08D07B681B889BB243F0C2
:103F180001039AB27B681A8007E07B681B889BB212
:103F280023F001039AB27B681A8000BF0C37BD46A4
:103F38005DF8047B704780B485B000AF7860396065
:103F480000237B810023FB810023BB817B681B8CC2
:103F58009BB223F001039AB27B681A847B681B8C9E
:103F6800FB817B689B88BB817B681B8B7B817B8902
:103F780023F070037B817B8923F003037B813B68FB
:103F88001A887B8913437B81FB8923F00203FB8119
:103F98003B689A89FB891343FB813B685A88FB89F4
:103FA8001343FB817B681F4A934203D07B681E4AF8
:103FB800934223D1FB8923F00803FB813B68DA890C
:103FC800FB891343FB81FB8923F00403FB813B68D6
:103FD8009A88FB891343FB81BB8923F48073BB81D7
:103FE800BB8923F40073BB813B681A8ABB891343DE
:103FF800BB813B685A8ABB891343BB817B68BA89FA
:104008009A807B687A891A833B689A687B685A63C6
:104018007B68FA891A8400BF1437BD465DF8047BB3
:10402800704700BF000001400004014080B485B023
:1040380000AF7860396000237B810023FB81002377
:10404800BB817B681B8C9BB223F010039AB27B6800
:104058001A847B681B8CFB817B689B88BB817B688F
:104068001B8B7B817B8923F4E0437B817B8923F451
:1040780040737B813B681B881B029AB27B89134380
:104088007B81FB8923F02003FB813B689B891B0113
:104098009AB2FB891343FB813B685B881B019AB288
:1040A800FB891343FB817B68224A934203D07B68D8
:1040B800214A93422BD1FB8923F08003FB813B6883
:1040C800DB891B019AB2FB891343FB81FB8923F02F
:1040D8004003FB813B689B881B019AB2FB89134311
:1040E800FB81BB8923F48063BB81BB8923F4006314
:1040F800BB813B681B8A9B009AB2BB891343BB8177
:104108003B685B8A9B009AB2BB891343BB817B687F
:10411800BA899A807B687A891A833B689A687B682F
:104128009A637B68FA891A8400BF1437BD465DF824
:10413800047B7047000001400004014080B485B052
:1041480000AF7860396000237B810023FB81002366
:10415800BB817B681B8C9BB223F480739AB27B680B
:104168001A847B681B8CFB817B689B88BB817B687E
:104178009B8B7B817B8923F070037B817B8923F078
:1041880003037B813B681A887B8913437B81FB8906
:1041980023F40073FB813B689B891B029AB2FB895D
:1041A8001343FB813B685B881B029AB2FB8913436C
:1041B800FB817B68224A934203D07B68214A934261
:1041C8002BD1FB8923F40063FB813B68DB891B024D
:1041D8009AB2FB891343FB81FB8923F48063FB813B
:1041E8003B689B881B029AB2FB891343FB81BB89FE
:1041F80023F48053BB81BB8923F40053BB813B6804
:104208001B8A1B019AB2BB891343BB813B685B8A3B
:104218001B019AB2BB891343BB817B68BA899A8018
:104228007B687A899A833B689A687B68DA637B68DB
:10423800FA891A8400BF1437BD465DF8047B7047BD
:10424800000001400004014080B485B000AF7860F0
:1042580039600023BB8100237B810023FB817B68BD
:104268001B8C9BB223F480539AB27B681A847B68B8
:104278001B8C7B817B689B88FB817B689B8BBB81CC
:10428800BB8923F4E043BB81BB8923F44073BB8122
:104298003B681B881B029AB2BB891343BB817B898D
:1042A80023F400537B813B689B891B039AB27B896B
:1042B80013437B813B685B881B039AB27B8913435A
:1042C8007B817B68124A934203D07B68114A9342F0
:1042D8000AD1FB8923F48043FB813B681B8A9B013D
:1042E8009AB2FB891343FB817B68FA899A807B68C1
:1042F800BA899A833B689A687B681A647B687A896A
:104308001A8400BF1437BD465DF8047B704700BFB0
:10431800000001400004014080B483B000AF786021
:104328007B6800221A807B6800225A807B68002202
:104338009A807B6800229A607B6800229A817B6859
:104348000022DA817B6800221A827B6800225A8266
:1043580000BF0C37BD465DF8047B704780B485B05C
:1043680000AF78600B467B8013463B800023FB60E0
:1043780000237B817B68FB60FB681833FB607B88CC
:10438800012202FA03F37B817B681B8C9AB27B893A
:10439800DB439BB213409AB27B681A847B88002B5C
:1043A80002D07B88082B14D17B885B089BB21A4605
:1043B800FB681344FB60FB681968FA684FF68F7353
:1043C8000B401360FB6819683A88FB680A431A6057
:1043D80018E07B88043B9BB25B089BB21A46FB68DB
:1043E8001344FB60FB681968FA6848F6FF730B40D2
:1043F8001360FB681A683B881B029BB21946FB686E
:104408000A431A6000BF1437BD465DF8047B704745
:1044180080B483B000AF786039607B683A685A63CB
:1044280000BF0C37BD465DF8047B704780B483B08D
:1044380000AF786039607B683A689A6300BF0C37D0
:10444800BD465DF8047B704780B483B000AF7860E8
:1044580039607B683A68DA6300BF0C37BD465DF89F
:10446800047B704780B483B000AF786039607B68A4
:104478003A681A6400BF0C37BD465DF8047B704784
:1044880080B485B000AF78600B467B800023FB8149
:104498007B681B8BFB81FB8923F07003FB81FA8906
:1044A8007B881343FB817B68FA891A8300BF143722
:1044B800BD465DF8047B704780B485B000AF786076
:1044C8000B467B800023FB817B681B8BFB81FB8970
:1044D80023F4E043FB817B881B029AB2FB891343D8
:1044E800FB817B68FA891A8300BF1437BD465DF8E3
:1044F800047B704780B485B000AF78600B467B8042
:104508000023FB817B689B8BFB81FB8923F0700375
:10451800FB81FA897B881343FB817B68FA899A833C
:1045280000BF1437BD465DF8047B704780B485B082
:1045380000AF78600B467B800023FB817B689B8BF8
:10454800FB81FB8923F4E043FB817B881B029AB241
:10455800FB891343FB817B68FA899A8300BF143770
:10456800BD465DF8047B704780B485B000AF7860C5
:104578000B467B800023FB817B681B8BFB81FB89BF
:1045880023F00803FB81FA897B881343FB817B684E
:10459800FA891A8300BF1437BD465DF8047B70475B
:1045A80080B485B000AF78600B467B800023FB8128
:1045B8007B681B8BFB81FB8923F40063FB817B8871
:1045C8001B029AB2FB891343FB817B68FA891A8321
:1045D80000BF1437BD465DF8047B704780B485B0D2
:1045E80000AF78600B467B800023FB817B689B8B48
:1045F800FB81FB8923F00803FB81FA897B8813433D
:10460800FB817B68FA899A8300BF1437BD465DF841
:10461800047B704780B485B000AF78600B467B8020
:104628000023FB817B689B8BFB81FB8923F4006360
:10463800FB817B881B029AB2FB891343FB817B6851
:10464800FA899A8300BF1437BD465DF8047B70472A
:1046580080B485B000AF78600B467B800023FB8177
:104668007B681B8BFB81FB8923F00403FB81FA89A0
:104678007B881343FB817B68FA891A8300BF143750
:10468800BD465DF8047B704780B485B000AF7860A4
:104698000B467B800023FB817B681B8BFB81FB899E
:1046A80023F48063FB817B881B029AB2FB89134346
:1046B800FB817B68FA891A8300BF1437BD465DF811
:1046C800047B704780B485B000AF78600B467B8070
:1046D8000023FB817B689B8BFB81FB8923F0040310
:1046E800FB81FA897B881343FB817B68FA899A836B
:1046F80000BF1437BD465DF8047B704780B485B0B1
:1047080000AF78600B467B800023FB817B689B8B26
:10471800FB81FB8923F48063FB817B881B029AB2AF
:10472800FB891343FB817B68FA899A8300BF14379E
:10473800BD465DF8047B704780B485B000AF7860F3
:104748000B467B800023FB817B681B8BFB81FB89ED
:1047580023F08003FB81FA897B881343FB817B6804
:10476800FA891A8300BF1437BD465DF8047B704789
:1047780080B485B000AF78600B467B800023FB8156
:104788007B681B8BFB81FB89C3F30E03FB817B8852
:104798001B029AB2FB891343FB817B68FA891A834F
:1047A80000BF1437BD465DF8047B704780B485B000
:1047B80000AF78600B467B800023FB817B689B8B76
:1047C800FB81FB8923F08003FB81FA897B881343F3
:1047D800FB817B68FA899A8300BF1437BD465DF870
:1047E800047B704780B485B000AF78600B467B804F
:1047F8000023FB817B689B8BFB81FB89C3F30E0342
:10480800FB817B881B029AB2FB891343FB817B687F
:10481800FA899A8300BF1437BD465DF8047B704758
:1048280080B485B000AF78600B467B800023FB81A5
:104838007B681B8CFB81FB8923F00203FB81FA89CF
:104848007B881343FB817B68FA891A8400BF14377D
:10485800BD465DF8047B704780B485B000AF7860D2
:104868000B467B800023FB817B681B8CFB81FB89CB
:1048780023F00803FB81FA897B881343FB817B685B
:10488800FA891A8400BF1437BD465DF8047B704767
:1048980080B485B000AF78600B467B800023FB8135
:1048A8007B681B8CFB81FB8923F02003FB817B88C1
:1048B8001B019AB2FB891343FB817B68FA891A842E
:1048C80000BF1437BD465DF8047B704780B485B0DF
:1048D80000AF78600B467B800023FB817B681B8CD4
:1048E800FB81FB8923F08003FB817B881B019AB243
:1048F800FB891343FB817B68FA891A8400BF14374C
:10490800BD465DF8047B704780B485B000AF786021
:104918000B467B800023FB817B681B8CFB81FB891A
:1049280023F40073FB817B881B029AB2FB89134333
:10493800FB817B68FA891A8400BF1437BD465DF88D
:10494800047B704780B485B000AF78600B467B80ED
:104958000023FB817B681B8CFB81FB8923F40063AC
:10496800FB817B881B029AB2FB891343FB817B681E
:10497800FA891A8400BF1437BD465DF8047B704776
:1049880080B485B000AF78600B467B800023FB8144
:104998007B681B8CFB81FB8923F40053FB817B889C
:1049A8001B039AB2FB891343FB817B68FA891A843B
:1049B80000BF1437BD465DF8047B704780B485B0EE
:1049C80000AF78600B467B8013463B800023FB8159
:1049D8007B88012202FA03F3FB817B681B8C9AB265
:1049E800FB89DB439BB213409AB27B681A847B68CD
:1049F8001B8C9AB239887B8801FA03F39BB2134364
:104A08009AB27B681A8400BF1437BD465DF8047BF0
:104A1800704780B485B000AF78600B467B80134642
:104A28003B800023FB817B88042202FA03F3FB818D
:104A38007B681B8C9AB2FB89DB439BB213409AB20A
:104A48007B681A847B681B8C9AB239887B8801FA48
:104A580003F39BB213439AB27B681A8400BF1437DE
:104A6800BD465DF8047B704780B582B000AF7860C2
:104A780039603B681B88002B0FD13B6859883B681D
:104A88009A883B681B89786800F0B7FC3B68DB882C
:104A98001946786800F0E1F836E03B681B88042B7B
:104AA8000FD13B6859883B689A883B681B897868AE
:104AB80000F0E6FC3B68DB881946786800F0E9F806
:104AC80022E03B681B88082B0FD13B6859883B685C
:104AD8009A883B681B89786800F01FFD3B68DB8873
:104AE8001946786800F0F3F80EE03B6859883B688F
:104AF8009A883B681B89786800F057FD3B68DB881B
:104B08001946786800F0FFF800BF0837BD4680BD39
:104B180080B483B000AF78607B6800221A807B681D
:104B280000225A807B6801229A807B680022DA8002
:104B38007B6800221A8100BF0C37BD465DF8047BF4
:104B4800704780B584B000AF786039600023FB817E
:104B58000123BB813B685B88002B02D10223FB81C8
:104B680001E00023FB813B689B88012B02D10223D3
:104B7800BB8101E00123BB813B681B88002B1CD152
:104B88003B6859883B689A883B681B89786800F0BD
:104B980034FC3B68DB881946786800F05EF83B68AF
:104BA8001B89BA89F989786800F06AFC3B68DB8858
:104BB8001946786800F06DF81BE03B6859883B6837
:104BC8009A883B681B89786800F05AFC3B68DB8848
:104BD8001946786800F05DF83B681B89BA89F9893D
:104BE800786800F00AFC3B68DB881946786800F0B2
:104BF80034F800BF1037BD4680BD80B483B000AF25
:104C080078607B685B6B18460C37BD465DF8047BA3
:104C1800704780B483B000AF78607B689B6B1846A0
:104C28000C37BD465DF8047B704780B483B000AF95
:104C380078607B68DB6B18460C37BD465DF8047BF3
:104C4800704780B483B000AF78607B681B6C1846EF
:104C58000C37BD465DF8047B704780B483B000AF65
:104C680078600B467B807B681B8B9BB223F00C0320
:104C78009AB27B681A837B681B8B9AB27B88134332
:104C88009AB27B681A8300BF0C37BD465DF8047B77
:104C9800704780B483B000AF78600B467B807B6838
:104CA8001B8B9BB223F440639AB27B681A837B68A0
:104CB8001B8B9AB27B881B029BB213439AB27B6808
:104CC8001A8300BF0C37BD465DF8047B704780B47B
:104CD80083B000AF78600B467B807B689B8B9BB270
:104CE80023F00C039AB27B689A837B689B8B9AB2F9
:104CF8007B8813439AB27B689A8300BF0C37BD4602
:104D08005DF8047B704780B483B000AF78600B46D1
:104D18007B807B689B8B9BB223F440639AB27B6851
:104D28009A837B689B8B9AB27B881B029BB2134346
:104D38009AB27B689A8300BF0C37BD465DF8047B46
:104D4800704780B483B000AF786039603B681A88D8
:104D58003B685B8813439AB23B689B8813439AB2BB
:104D68003B68DB8813439AB23B681B8913439AB2AA
:104D78003B685B8913439AB23B689B8913439AB299
:104D88007B68A3F8442000BF0C37BD465DF8047B60
:104D9800704780B483B000AF78607B6800221A80C7
:104DA8007B6800225A807B6800229A807B680022F8
:104DB800DA807B6800221A817B6800225A817B682E
:104DC80000229A8100BF0C37BD465DF8047B70470E
:104DD80080B483B000AF78600B46FB70FB78002B83
:104DE8000CD07B68B3F844309BB26FEA43436FEA58
:104DF80053439AB27B68A3F8442009E07B68B3F870
:104E080044309BB2C3F30E039AB27B68A3F84420E4
:104E180000BF0C37BD465DF8047B704780B483B093
:104E280000AF78600B46FB70FB78002B08D07B68DE
:104E38009B889BB243F004039AB27B689A8007E090
:104E48007B689B889BB223F004039AB27B689A80A4
:104E580000BF0C37BD465DF8047B704780B483B053
:104E680000AF78600B46FB70FB78002B08D07B689E
:104E78009B889BB243F001039AB27B689A8007E053
:104E88007B689B889BB223F001039AB27B689A8067
:104E980000BF0C37BD465DF8047B704780B483B013
:104EA80000AF78600B467B8013467B707B78002BC5
:104EB80008D07B689B899AB27B8813439AB27B6837
:104EC8009A8109E07B689B899AB27B88DB439BB215
:104ED80013409AB27B689A8100BF0C37BD465DF8D3
:104EE800047B704780B483B000AF78600B467B804A
:104EF8007B687A889A8200BF0C37BD465DF8047BD0
:104F0800704780B485B000AF78600B467B80002383
:104F1800FB737B681B8A9AB27B8813409BB2002B79
:104F280002D00123FB7301E00023FB73FB7B1846CF
:104F38001437BD465DF8047B704780B483B000AF7A
:104F480078600B467B807B88DB439AB27B681A8249
:104F580000BF0C37BD465DF8047B704780B485B050
:104F680000AF78600B467B800023FB730023BB8176
:104F780000237B817B681B8A9AB27B881340BB81A4
:104F88007B689B899AB27B8813407B81BB89002B05
:104F980005D07B89002B02D00123FB7301E000239D
:104FA800FB73FB7B18461437BD465DF8047B7047DE
:104FB80080B483B000AF78600B467B807B88DB438E
:104FC8009AB27B681A8200BF0C37BD465DF8047B35
:104FD800704780B483B000AF78600B467B8013467F
:104FE8003B807A883B8813439AB27B68A3F84820B1
:104FF80000BF0C37BD465DF8047B704780B483B0B2
:1050080000AF78600B467B8013467B707B78002B63
:1050180008D07B689B899AB27B8813439AB27B68D5
:105028009A8109E07B689B899AB27B88DB439BB2B3
:1050380013409AB27B689A8100BF0C37BD465DF871
:10504800047B704780B483B000AF78600B46FB7078
:10505800FB78002B08D07B689B889BB243F0080341
:105068009AB27B689A8007E07B689B889BB223F0A2
:1050780008039AB27B689A8000BF0C37BD465DF87A
:10508800047B704780B483B000AF78607B681B896D
:105098009BB223F007039AB27B681A8100BF0C37D2
:1050A800BD465DF8047B704780B582B000AF78607C
:1050B8000B467B807B881946786800F088F87B6807
:1050C8001B899BB243F007039AB27B681A8100BF21
:1050D8000837BD4680BD80B584B000AFF86008468B
:1050E80011461A4603467B810B463B811346FB80DB
:1050F8007B89602B06D1FB8839890122F86800F08A
:10510800BFF905E0FB8839890122F86800F075F9D4
:105118007B891946F86800F05AF8FB681B899BB22E
:1051280043F007039AB2FB681A8100BF1037BD46E7
:1051380080BD80B586B000AFF860084611461A46B3
:1051480003467B810B463B811346FB800023FB8291
:10515800FB883A897989F86800F0A9F8FB681B8907
:10516800FB82FB8A23F00703FB82FB8A43F00703D9
:10517800FB82FB8A23F07003FB82FB8A43F07003F7
:10518800FB82FB68FA8A1A8100BF1837BD4680BDCA
:1051980080B584B000AFF860084611461A46034649
:1051A8007B810B463B811346FB80FB883A897989D2
:1051B800F86800F07CF8FB681B899BB243F48043D5
:1051C8009AB2FB681A8100BF1037BD4680BD80B413
:1051D80085B000AF78600B467B800023FB817B683D
:1051E8001B89FB81FB8923F07003FB81FA897B888B
:1051F8001343FB817B68FA891A8100BF1437BD46C7
:105208005DF8047B704780B483B000AF78600B46CC
:105218007B807B689B889BB223F070039AB27B6883
:105228009A807B689B889AB27B8813439AB27B6882
:105238009A8000BF0C37BD465DF8047B704780B488
:1052480083B000AF78600B467B807B681B899BB27C
:1052580023F007039AB27B681A817B681B899AB28C
:105268007B8813439AB27B681A8100BF0C37BD460E
:105278005DF8047B704780B483B000AF78600B465C
:105288007B807B681B899BB223F080039AB27B6882
:105298001A817B681B899AB27B8813439AB27B6810
:1052A8001A8100BF0C37BD465DF8047B704780B497
:1052B80087B000AFF860084611461A4603467B815E
:1052C8000B463B811346FB800023FB82FB681B894E
:1052D800FB82FB8ADBB2FB82FB881B029AB23B890A
:1052E80013439AB27B8913439AB2FB8A1343FB8216
:1052F800FB68FA8A1A8100BF1C37BD465DF8047B3B
:10530800704780B487B000AFF860084611461A4667
:1053180003467B810B463B811346FB800023FB82BF
:105328000023BB8200237B82FB681B89FB82FB680E
:105338001B8BBB82FB681B8C7B82FB8A23F00703D9
:10534800FB82FA8A7B891343FB82BB8A23F440736E
:1053580023F00303BB82BB8A43F4807343F0010349
:10536800BB827B8A23F022037B82FB881B019AB2D3
:105378003B8913439AB27B8A13437B82FB68FA8A80
:105388001A81FB68BA8A1A83FB687A8A1A8400BF72
:105398001C37BD465DF8047B704780B483B000AF0E
:1053A80078600B46FB70FB78002B08D07B689B88E5
:1053B8009BB243F080039AB27B689A8007E07B68CF
:1053C8009B889BB223F080039AB27B689A8000BFC7
:1053D8000C37BD465DF8047B704780B483B000AFDE
:1053E80078600B467B807B687A88A3F8502000BFE2
:1053F8000C37BD465DF8047B704780B487B000AFBA
:10540800F860084611461A4603467B810B463B81E5
:105418001346FB800023FB820023BB82FB681B8CA6
:105428009BB223F001039AB2FB681A84FB681B8BBA
:10543800FB82FB681B8CBB82FB8A23F0F303FB8295
:10544800FB881B019AB23B8913439AB2FB8A134328
:10545800FB82BB8A23F00A03BB827A89BB8A134387
:105468009BB243F00103BB82FB68FA8A1A83FB688C
:10547800BA8A1A8400BF1C37BD465DF8047B7047A2
:1054880080B487B000AFF860084611461A46034654
:105498007B810B463B811346FB800023FB82002364
:1054A800BB8200237B82FB681B8C9BB223F010031A
:1054B8009AB2FB681A84FB681B8BFB82FB681B8C07
:1054C800BB827B891B017B82FB8A23F440731B050B
:1054D8001B0DFB82FB881B039AB2FB8A1343FB82DA
:1054E8003B891B029AB2FB8A1343FB82BB8A23F0D7
:1054F800A003BB827A8ABB8A13439BB243F0100392
:10550800BB82FB68FA8A1A83FB68BA8A1A8400BFCE
:105518001C37BD465DF8047B704780B487B000AF88
:10552800F860084611461A4603467B810B463B81C4
:105538001346FB800023FB820023BB8200237B826F
:10554800FB681B8C9BB223F480739AB2FB681A84A5
:10555800FB689B8BFB82FB681B8CBB827B891B02D5
:105568007B82FB8A23F0F303FB82FB881B019AB240
:105578003B8913439AB2FB8A1343FB82BB8A23F409
:105588002063BB827A8ABB8A13439BB243F480733D
:10559800BB82FB68FA8A9A83FB68BA8A1A8400BFBE
:1055A8001C37BD465DF8047B704780B487B000AFF8
:1055B800F860084611461A4603467B810B463B8134
:1055C8001346FB800023FB820023BB8200237B82DF
:1055D800FB681B8C9BB223F480539AB2FB681A8435
:1055E800FB689B8BFB82FB681B8CBB827B891B0344
:1055F8007B82FB8A23F440731B051B0DFB823B89CE
:105608001B029AB2FB8A1343FB82FB881B039AB2E4
:10561800FB8A1343FB82BB8A23F400535B045B0CB5
:10562800BB827A8ABB8A13439BB243F48053BB8202
:10563800FB68FA8A9A83FB68BA8A1A8400BF1C3707
:10564800BD465DF8047B704780B400AF094B00226B
:105658001A60084B00225A60064B00229A60054BDC
:105668000022DA60034B044A5A6100BFBD465DF868
:10567800047B7047003C0140FFFF7F0080B485B089
:1056880000AF78600023FB60344BFB607B689B793C
:10569800002B4FD0314B1A687B681B68DB432F49BE
:1056A80013400B602D4B5A687B681B68DB432B4902
:1056B80013404B607B681B791A46FB681344FB60F8
:1056C800FB6819687B681A68FB680A431A60234BF1
:1056D8009A687B681B68DB43204913408B601F4B2B
:1056E800DA687B681B68DB431C491340CB607B6826
:1056F8005B79102B0ED1194B9A687B681B68174988
:1057080013438B60154BDA687B681B681349134396
:10571800CB601DE0114BFB607B685B791A46FB6828
:105728001344FB60FB6819687B681A68FB680A43C6
:105738001A600DE07B681B791A46FB681344FB600E
:10574800FB6819687B681B68DA43FB680A401A60C3
:1057580000BF1437BD465DF8047B7047003C01402C
:1057680080B483B000AF78607B6800221A607B68E1
:1057780000221A717B680C225A717B6800229A7188
:1057880000BF0C37BD465DF8047B704780B483B01A
:1057980000AF7860054B1A6904497B6813430B61B5
:1057A80000BF0C37BD465DF8047B7047003C0140E4
:1057B80080B485B000AF78600023FB73084B5A694A
:1057C8007B681340002B02D00123FB7301E0002308
:1057D800FB73FB7B18461437BD465DF8047B7047A6
:1057E800003C014080B483B000AF7860044A7B6815
:1057F800536100BF0C37BD465DF8047B704700BF9E
:10580800003C014080B485B000AF78600023FB7392
:105818000023BB600C4B1B687A681340BB600A4BC3
:105828005A697B681340002B05D0BB68002B02D057
:105838000123FB7301E00023FB73FB7B184614373D
:10584800BD465DF8047B7047003C014080B483B0DE
:1058580000AF7860044A7B68536100BF0C37BD46CF
:105868005DF8047B704700BF003C014080B483B002
:1058780000AF03463960FB7197F90730002B0BDA4C
:105888003B68DAB20C49FB7903F00F03043B1201C1
:10589800D2B20B441A7609E03B68DAB2074997F9A5
:1058A80007301201D2B20B4483F8002300BF0C3733
:1058B800BD465DF8047B704700ED00E000E100E0C4
:1058C80080B582B000AF78607B68B3F1807F01D388
:1058D800012311E07B6823F07F43094A013B5360B1
:1058E8000F214FF0FF30FFF7C1FF054B00229A60F0
:1058F800034B07221A60002318460837BD4680BDAF
:1059080010E000E080B500AF0B4B1B680B4AA2FB10
:1059180003235A0D13461B019B1A9B021846FFF7D7
:10592800CFFF0346002B00D0FEE76FF00400FDF721
:1059380013F800BF80BD00BF1C00002083DE1B439E
:1059480080B483B000AF214BB3F846329BB2013329
:105958009AB21E4BA3F846221C4BB3F84632FB8082
:105968001A4BB3F84432BB80184B93F84832DBB279
:10597800002B07D0FA88BB88D31A9BB247F6FE7271
:10598800934211D8124B1B68114A23F0020313608B
:105998000E4BB3F846329AB20C4BA3F844220B4B89
:1059A800002283F848220BE0094B1B68084A43F0A1
:1059B80001031360064B1B68054A43F0020313609A
:1059C80000BF0C37BD465DF8047B7047AC0400206F
:1059D80010E000E080B483B000AF0346FB71FB79B0
:1059E80003F01F03012202FA03F1064A97F9073070
:1059F8005B0942F8231000BF0C37BD465DF8047BF5
:105A0800704700BF00E100E080B483B000AF0346F8
:105A1800FB71FB7903F01F03012202FA03F1064A26
:105A280097F907305B09203342F8231000BF0C3781
:105A3800BD465DF8047B704700E100E080B582B0A8
:105A480000AF01210220FDF7DDFC01210220FDF756
:105A5800D9FC072206211548FDF799F907220721E5
:105A68001248FDF794F940233B6002233B71002361
:105A7800BB710123FB7102237B713B4619460B481E
:105A8800FDF716F880233B6002233B710023BB71AE
:105A98000123FB7102237B713B4619460348FDF73E
:105AA80007F800BF0837BD4680BD00BF00040240AC
:105AB80080B584B000AF01211020FDF723FD4FF41D
:105AC800E1333B600023BB800023FB8000233B8144
