:020000040800F2
:1000000000000220513D0808993D0808993D080864
:10001000993D0808993D0808993D0808000000002E
:10002000000000000000000000000000993D0808EA
:10003000993D080800000000993D0808914000081B
:10004000993D0808993D0808993D0808993D080818
:10005000993D0808993D0808993D0808993D080808
:10006000993D0808993D0808993D0808993D0808F8
:10007000993D0808993D0808993D0808993D0808E8
:10008000993D0808993D0808993D0808993D0808D8
:10009000993D0808993D0808993D08085145000810
:1000A000993D0808993D0808993D0808993D0808B8
:1000B000993D0808993D0808993D0808993D0808A8
:1000C000993D0808993D0808993D0808993D080898
:1000D000D1600008AD420008993D0808993D080824
:1000E000993D0808993D0808993D0808993D080878
:1000F000993D0808993D0808993D0808993D080868
:10010000993D0808993D0808993D0808993D080857
:10011000993D0808993D0808993D0808993D080847
:10012000993D0808993D0808993D0808993D080837
:10013000993D0808993D0808993D0808993D080827
:10014000993D0808993D0808993D0808993D080817
:10015000993D0808993D0808993D0808993D080807
:10016000993D0808993D0808993D0808993D0808F7
:10017000993D0808993D0808993D0808993D0808E7
:08018000993D0808993D0808AB
:1001880080B582B000AF786039607B68022B01DCF3
:10019800002323E000F0DAFF08221249124883F016
:1001A80019FD124B41F6AA22A3F8C82C0F4B03F5F0
:1001B8008B53093301221A700C4B03F58B530C3304
:1001C8004FF480021A607CF082FD0346002B01D1B7
:1001D8007CF078FD06487DF01DFC002318460837A2
:1001E800BD4680BD00000020F51300202407002034
:1001F800A903000880B584B000AF0346FB71FB7902
:100208009C2202FB03F303F536730D4A13440833AB
:10021800FB60FB68B3F90430002B0AD109487DF074
:10022800F9FBFB68DBB240F245121946064800F0BC
:1002380063FBF86800F0BEFD00BF1037BD4680BD07
:1002480024070020A90300087D05000880B582B0B6
:1002580000AF0121082001F025FE4FF470433B60F8
:1002680001233B710023BB7103237B710023FB71C6
:100278003B4619460D4801F06BF908214FF4807090
:1002880000F018F800F046F8094B00221A60084BF5
:1002980000225A60064B00229A604FF480410348BE
:1002A80001F06EFA00BF0837BD4680BD000C024061
:1002B800C404002080B584B000AF786039600121A3
:1002C800012001F0EFFD01220821114801F0AFFAE9
:1002D800012209210E4801F0AAFA01220A210C483C
:1002E80001F0A5FA4FF4E063BB6002233B730023DF
:1002F800BB7303237B730023FB7307F108031946C1
:10030800034801F025F900BF1037BD4680BD00BF86
:100318000000024080B588B000AF0121012001F043
:1003280041FE40F28163BB614FF4D263BB8200237C
:10033800BB830023FB8207F114031946174802F018
:100348000DF90121154803F0F9F90121134802F0CC
:1003580088FA60233B800023BB600223BB813B46B5
:1003680019460E4802F09DFA08210C4802F0B2FD29
:100378003B461946094802F00FFB0821074802F0DE
:10038800C5FD3B461946054802F08EFB0821034887
:1003980002F0DAFD00BF2037BD4680BD00000140F5
:1003A80080B584B000AF0346FB71FB799C2202FB49
:1003B80003F303F536736A4A13440833FB60FB689A
:1003C8000833FA685278134418467AF049FF03460E
:1003D800DBB21946F86800F057FEB860BB681B78B6
:1003E800022B4BD0032B00F08A80012B00D0B2E007
:1003F8005C4B1B68013B5C4A52F82320594B1B6835
:10040800013B6432584941F82320564B1B68013B95
:10041800554A52F82330B3F5C86F06DD514B1B68B7
:10042800013B514A002142F823104E4B1B68012B17
:100438000AD14C4B1B68013B4B4A52F823301946F2
:100448004A4802F09BFC86E0464B1B68022B0AD107
:10045800444B1B68013B444A52F823301946434831
:1004680002F09AFC77E03F4B1B68013B3E4A52F88A
:10047800233019463D4802F09DFC6CE0394B1B685F
:10048800013B394A52F82330002B08D1354B1B6801
:10049800013B354A4FF4487142F8231006E0314BCE
:1004A8001B68013B304A002142F823102D4B1B6882
:1004B800012B0AD12B4B1B68013B2B4A52F82330E6
:1004C80019462A4802F05AFC45E0264B1B68022BC5
:1004D8000AD1244B1B68013B234A52F823301946A2
:1004E800224802F059FC36E01E4B1B68013B1E4AAD
:1004F80052F8233019461D4802F05CFC2BE04FF4FB
:1005080050411B4801F04BF9164B1B68012B08D1D1
:100518004FF48051164801F033F9124B02221A6049
:1005280018E0104B1B68022B08D14FF4004110480B
:1005380001F026F90B4B03221A600BE0094B1B68EC
:10054800032B07D14FF48041094801F019F9054BF5
:1005580001221A6000BF00BF1037BD4680BD00BF32
:100568002407002008000020C404002000000140E7
:10057800000C024080B586B000AF786000233B6174
:100588000A21786800F0B6FC38611221786800F01A
:10059800ADFDF860FB6801221A80FB680222DA735D
:1005A800FB6804221A74FB6801229A73FB68022212
:1005B8001A81FB680A225A73FB680A221A737B683D
:1005C80011229A7000237B610AE07B69DAB27B69A9
:1005D80039690B443032D2B21A707B6901337B61BE
:1005E8007B69092BF1DD7B68074A9B1A9B10074A38
:1005F80002FB03F3DBB21946054800F017F900BF08
:100608001837BD4680BD00BF040A0020976FF996D1
:1006180021AD070880B584B000AF0023BB8100235B
:10062800FB7305F075FE22E00123FB735E4B93F824
:100638004C32DBB2002B04D05C4B93F8A53C072B63
:1006480027D9BB681B68BA68127910469847574B78
:10065800D3F88830013B554AC2F88830534BD3F859
:100668008030013303F00F03504AC2F880304F4BFB
:10067800D3F88830002B06D04C4BD3F88030DB0001
:100688004A4A134400E00023BB60BB68002BCBD16F
:1006980000E000BF454BD3F83832002B56D0424B10
:1006A800B3F84632BB813FE00123FB733E4B93F81E
:1006B8004C32DBB2002B04D03C4B93F8A53C072B03
:1006C80043D93A4BD3F838327B60384BD3F83832B9
:1006D800002B1AD0354BD3F838329B68002B08D042
:1006E800324BD3F83822314BD3F838329B68D26872
:1006F800DA602E4BD3F838320022DA602B4BD3F86D
:1007080038329B68294AC2F838327B681B687A6895
:10071800127910469847254BD3F83C227B689A609B
:10072800224A7B68C2F83C32204BD3F838327B60CF
:100738007B68002B0AD07B68DB88BA89D31A9BB206
:1007480047F6FE729342AFD900E000BF174BD3F8CB
:100758003832002B1DD0154BD3F83832DA88BB89D4
:10076800D31A9BB247F6FE72934207D80F4BD3F8C1
:100778003832DA88BB89D31A9BB206E00B4BD3F820
:100788003832DB88BA89D31A9BB2184600F0BEFD0E
:1007980001E000F00BFEFB7B002B7FF43EAF00BFB7
:1007A8001037BD4680BD00BFD404002024070020B8
:1007B80080B485B000AF78600B46FB700023FB6007
:1007C800184BD3F8B430032B06D8164BD3F8B030F7
:1007D800DB00154A134400E00023BB60BB68002B14
:1007E80016D0BB687A681A60BB68FA781A710D4B24
:1007F800D3F8B43001330B4AC2F8B430094BD3F8FC
:10080800B030013303F00303064AC2F8B03002E007
:100818006FF01C03FB60FB6818461437BD465DF893
:10082800047B704724070020B007002080B485B0FF
:1008380000AF78600B46FB700023FB60184BD3F8C1
:1008480088300F2B06D8164BD3F88430DB00144AB7
:10085800134400E00023BB60BB68002B16D0BB68C4
:100868007A681A60BB68FA781A710D4BD3F8883029
:1008780001330B4AC2F88830094BD3F8843001336E
:1008880003F00F03064AC2F8843002E06FF01C033D
:10089800FB60FB6818461437BD465DF8047B70475B
:1008A8002407002080B483B000AF7860114BD3F8E0
:1008B80038227B689A600F4BD3F83832002B0BD064
:1008C8000C4BD3F83832DA687B68DA60094BD3F816
:1008D80038327A68DA6002E07B687A68DA60054A5A
:1008E8007B68C2F8383200BF0C37BD465DF8047B20
:1008F800704700BF2407002080B586B000AF78603D
:100908000B46FB7013463B8000237B617B4BD3F87F
:100918003C32002B0BD0794BD3F83C323B61774B00
:10092800D3F83C329B68754AC2F83C3201E0002398
:100938003B613B69002B00F0D8803B697A681A60FC
:100948003B69FA781A716E4BB3F846327B817A8923
:100958003B8813449AB23B69DA80684BD3F8383243
:10096800002B0BD0654BD3F83832DA883B69DB882B
:10097800D31A9BB247F6FE72934203D83869FFF741
:1009880091FF84E05D4BD3F83832FB6002E0FB68EE
:100998009B68FB60FB68002B09D03B69DA88FB6821
:1009A800DB88D31A9BB247F6FE729342EFD9FB68F5
:1009B800002B4BD0FB68DB68FB60FB68002B41D049
:1009C800FB68002B63D04D4BD3F83832002B04D092
:1009D8004A4BD3F83832DB6800E00023FA689342C8
:1009E80021D13B6900229A60444BD3F83832002B5E
:1009F80011D0424BD3F83832DA683B69DA603F4BA2
:100A0800D3F83832DB683A699A603C4BD3F838320D
:100A18003A69DA603BE03B693A69DA60374A3B6930
:100A2800C2F8383233E0FB689A683B699A603B69E0
:100A3800FA68DA60FB689B683A69DA60FB683A69C9
:100A48009A6024E03869FFF72DFF20E03B69002217
:100A58009A602A4BD3F83832002B11D0274BD3F8A1
:100A68003832DA683B69DA60244BD3F83832DB680D
:100A78003A699A60214BD3F838323A69DA6006E06D
:100A88003B693A69DA601D4A3B69C2F838321B4B48
:100A9800D3F83832FB601A4BB3F846327B81FB68D7
:100AA800DB887A899A4223D0FB68DA887B89D31A53
:100AB8009BB247F6FE7293421AD8FB68DA887B89A4
:100AC800D31A9BB247F6FE72934205D8FB68DA88C0
:100AD8007B89D31A9BB204E0FB68DB887A89D31A36
:100AE8009BB2184600F012FC02E06FF01C037B6119
:100AF8007B6918461837BD4680BD00BF2407002013
:100B0800D404002080B487B000AF78600B46FB7037
:100B18006FF01B037B612E4BD3F838323B614AE000
:100B28003B699B68FB603B691B687A689A4240D1C5
:100B3800FB78FF2B07D0FB78FE2B04D03B691B7991
:100B4800FA789A4235D13B69DB68002B23D03B69A0
:100B58009B68002B05D03B699B683A69D268DA60CC
:100B680005E01B4BD3F838323A69D268DA60184B83
:100B7800D3F838323A699A4205D13B699B68144ADE
:100B8800C2F8383204E03B69DB683A6992689A60D7
:100B98003B690022DA600E4BD3F83C223B699A602D
:100BA8000B4A3B69C2F83C3200237B61FB78FE2B81
:100BB80005D1FB683B613B69002BB1D100E000BF68
:100BC8007B6918461C37BD465DF8047B704700BF3B
:100BD8002407002080B584B000AF0346FB710023D2
:100BE800FB60FB791D4A134493F8A43C072B26D8D5
:100BF8001A4BD3F8A03CFB60FB68002B1FD0FB68A6
:100C08001B68164AC2F8A03CFB6808220021184657
:100C180083F09CF9FB79114A1A4492F8A42C01320A
:100C2800D1B20E4A13440A4683F8A42CFB7903F088
:100C38000103D9B2FA68937961F300039371074B02
:100C480093F8A42C064B1A70044B93F8A52C054B6B
:100C58001A70FB6818461037BD4680BD240700206F
:100C6800D1040020D004002080B500AF0120FFF798
:100C7800B1FF0346184680BD80B500AF0020FFF7DE
:100C8800A9FF0346184680BD80B584B000AF7860E0
:100C98000B46FB70FB781846FFF79CFFB860BB68F3
:100CA800002B0DD0BB68334A9B1A9B10324A02FBBB
:100CB80003F3DBB219467868FFF7B8FD034655E041
:100CC8002E4BD3F85032002B0BD02C4BD3F850328C
:100CD800FB602A4BD3F850325B68284AC2F850327E
:100CE80001E00023FB60FB68002B3BD0FB687A68BF
:100CF8001A60FB78002B1AD0FB6800225A601F4B41
:100D0800D3F84432002B09D01C4BD3F84432FA688C
:100D18005A601A4AFB68C2F8443226E0174AFB6850
:100D2800C2F84032154AFB68C2F844321DE0FB683D
:100D380000225A60114BD3F84C32002B09D00F4BCC
:100D4800D3F84C32FA685A600C4AFB68C2F84C3245
:100D58000BE00A4AFB68C2F84832084AFB68C2F846
:100D68004C3202E04FF0FF3300E000231846103702
:100D7800BD4680BD040A0020976FF996240700201D
:100D880080B582B000AF786001217868FFF77CFFFA
:100D9800034618460837BD4680BD80B582B000AF0F
:100DA800786000217868FFF76FFF03461846083718
:100DB800BD4680BD90B585B000AF78600023FB606C
:100DC8007B689B79C3F30003DBB2454A1A4492F867
:100DD800A42C013AD1B2424A13440A4683F8A42CFF
:100DE8003F4B93F8A42C3F4B1A703D4B93F8A52C1E
:100DF8003D4B1A703A4BD3F8A02C7B681A60384ADE
:100E08007B68C2F8A03C7B689B7903F00103DBB2E6
:100E1800002B21D0324B93F8143D002B38D1304BA6
:100E2800D3F84032002B14D02D4BD3F84032FB605E
:100E38002B4BD3F840325B68294AC2F84032284B22
:100E4800D3F84032002B23D1254B0022C3F844228B
:100E58001EE00023FB601BE0214BD3F84832002B37
:100E680014D01F4BD3F84832FB601D4BD3F84832DF
:100E78005B681B4AC2F84832194BD3F84832002B3A
:100E880006D1174B0022C3F84C2201E00023FB6077
:100E9800FB68002B1FD0FB681C687B689B79C3F339
:100EA8000003DBB21846FFF795FE03461A460F4BC0
:100EB800D31A9B100E4A02FB03F3DBB219462046F5
:100EC800FFF7B4FC064BD3F85022FB685A60044A7B
:100ED800FB68C2F8503200BF1437BD4690BD00BF52
:100EE80024070020D1040020D0040020040A002098
:100EF800976FF99680B584B000AF78600B46FB70A9
:100F08007B689B79C3F30003DBB2FB737B68082221
:100F18000021184683F01AF8FB7B03F00103D9B2CD
:100F28007A68937961F3000393717B68FA781A7091
:100F3800FB78C3F19403DA0F13445B10DAB27B68D1
:100F48005A707B6808337A68527813441846103709
:100F5800BD4680BD80B584B000AF78600B46FB709D
:100F68007B685B78FA789A4215D97B6808337A6887
:100F780052781344FB60FB787A6852789B1A1A46B9
:100F8800FB6898187B681B781A46F96882F07AFF24
:100F98007B68FA785A707B681A78FB781344DAB25F
:100FA8007B681A707B685A78FB78D31ADAB27B6848
:100FB8005A707B6808337A68527813441846103799
:100FC800BD4680BD80B485B000AF78600B46FB702D
:100FD8007B6803F108027B685B7819467B681B789D
:100FE8000B441344FB607B681A78FB781344DAB22D
:100FF8007B681A70FB6818461437BD465DF8047B99
:10100800704780B586B000AFF860B9601346FB71D1
:10101800FB685B781A46FB681B781344C3F194029B
:10102800FB799A4222DAFA79FB685B781946FB6801
:101038001B780B44C3F19403D31A7B61FB68083314
:10104800FA68527813443B617B695B423A69D0186D
:10105800FB681B781A46396982F014FFFB685A78D6
:101068007B69DBB2D31ADAB2FB685A70FB7919468E
:10107800F86800F03BF8FB791A46B96882F0AAFDD7
:1010880000BF1837BD4680BD80B483B000AF78601C
:101098000B46FB707B681A78FB78D31ADAB27B6848
:1010A8001A707B685A78FB781344DAB27B685A70F6
:1010B8007B6808337A685278134418460C37BD4663
:1010C8005DF8047B704780B483B000AF78600B464E
:1010D800FB707B681A78FB78D31ADAB27B681A70CF
:1010E80000BF0C37BD465DF8047B704780B483B001
:1010F80000AF78600B46FB707B680833FA78C2F162
:101108009402134418460C37BD465DF8047B7047BB
:1011180080B584B000AF78607B689B79C3F3000327
:10112800DBB2FB737B6808220021184682F00EFFB1
:10113800FB7B03F00103D9B27A68937961F300036A
:10114800937100BF1037BD4680BD00BF80B500AFAA
:1011580041F6A4320021124882F0F8FE4FF41472CE
:101168000021104882F0F2FE02F070FF03F07EF8D2
:1011780003F06CF90C4800F027F900F04BF900F087
:1011880085F800F055F803F045FA05F03DF871F0E0
:101198009BFE79F01BFD7BF04BFD00BF80BD00BFBF
:1011A80024070020D4040020A840080880B582B095
:1011B80000AF1E4BB3F8C83C002B0BD11B4B03F5FB
:1011C8008B5309331B78002B04D1184B4FF6FF7251
:1011D800A3F8C82C00237B600FE07B68DBB20533E3
:1011E800D8B2124A7B68134403F6D1431B781946D8
:1011F80008F094F97B6801337B607B68072BECD996
:101208000A4BB3F8C83CDBB21946012008F086F94E
:10121800064BB3F8C83C1B0A9BB2DBB21946022046
:1012280008F07CF900BF0837BD4680BD24070020C0
:1012380080B483B000AF134BD3F8A03C002B1BD174
:10124800104B114AC3F8A02C0E4BD3F8A03C3B60BE
:101258000F23FB7107E03B6803F19C023B681A60AF
:101268003B689C333B60FB795A1EFA71002BF2D124
:101278003B6800221A6000E000BF0C37BD465DF8ED
:10128800047B704724070020040A002080B483B040
:1012980000AF0023FB7113E0FB791B4AD2F83C2214
:1012A80019490C331B010B441A60FB791B01B83335
:1012B800154A1344144AC2F83C32FB790133FB71D6
:1012C800FB790F2BE8D90023FB7113E0FB790E4A59
:1012D800D2F850220C493733DB000B445A60FB79B3
:1012E8003733DB00084A1344074AC2F85032FB7907
:1012F8000133FB71FB790F2BE8D900BF0C37BD46D2
:101308005DF8047B704700BF2407002080B485B0D7
:1013180000AF0346FB80234BB3F84632FB81FA89C2
:10132800FB881344BB8172B61E4B93F84832DBB27C
:10133800002B15D01B4BB3F844329BB2BA89D31A91
:101348009BB247F6FE7293420AD8164BB3F8443262
:101358009AB2FB89D31A9BB247F6FE72934207D919
:10136800104ABB89A2F844320E4B012283F8482266
:1013780062B60D4B1B6803F48033002B0BD10A4B6C
:101388001B68094A43F001031360074B1B68064AB0
:1013980043F00203136000BF1437BD465DF8047BB9
:1013A800704700BFD404002010E000E080B400AF14
:1013B800044B002283F8482200BFBD465DF8047B39
:1013C800704700BFD404002080B483B000AF7860B9
:1013D8000F4B03F58B530C334FF480321A600C4BD0
:1013E80003F58B530A3301221A70094B012283F843
:1013F800CA2C074B202283F8832E054B032283F83F
:10140800F82D00BF0C37BD465DF8047B704700BF60
:101418002407002080B400AF00BFBD465DF8047B00
:10142800704780B400AF00BFBD465DF8047B7047CD
:1014380080B582B000AF78607B683C4A934208D19F
:101448000121012000F0CEFD0021012000F0CAFD9D
:1014580068E07B68364A934208D10121022000F0F7
:10146800C1FD0021022000F0BDFD5BE07B68314A30
:10147800934208D10121042000F0B4FD002104208A
:1014880000F0B0FD4EE07B682B4A934208D1012161
:10149800082000F0A7FD0021082000F0A3FD41E08E
:1014A8007B68264A934208D10121102000F09AFD5A
:1014B8000021102000F096FD34E07B68204A93421A
:1014C80008D10121202000F08DFD0021202000F00E
:1014D80089FD27E07B681B4A934208D101214020FF
:1014E80000F080FD0021402000F07CFD1AE07B68C0
:1014F800154A934208D10121802000F073FD002194
:10150800802000F06FFD0DE07B68104A934209D1FE
:1015180001214FF4807000F065FD00214FF48070C8
:1015280000F060FD00BF0837BD4680BD00000240E6
:101538000004024000080240000C02400010024073
:101548000014024000180240001C02400020024023
:1015580080B487B000AF7860396000237B610023D6
:101568003B610023FB6000237B6176E001227B69FD
:1015780002FA03F33B613B681B683A691340FB605E
:10158800FA683B699A4265D17B681A687B695B0097
:10159800032101FA03F3DB431A407B681A607B6876
:1015A8001A683B681B7919467B695B0001FA03F3EB
:1015B8001A437B681A603B681B79012B03D03B6890
:1015C8001B79022B2ED17B689A687B695B0003210B
:1015D80001FA03F3DB431A407B689A607B689A68D8
:1015E8003B685B7919467B695B0001FA03F31A4390
:1015F8007B689A607B685A687B699BB219460123AD
:101608008B40DB431A407B685A607B685B683A68AA
:10161800927911467A6992B201FA02F292B21A43A9
:101628007B685A607B68DA687B699BB25B00032140
:1016380001FA03F3DB431A407B68DA607B68DA68F7
:101648003B68DB7919467B695B0001FA03F31A43AF
:101658007B68DA607B6901337B617B690F2B85D9F5
:1016680000BF1C37BD465DF8047B704780B483B06B
:1016780000AF78607B684FF6FF721A607B680022C3
:101688001A717B6800225A717B6800229A717B6804
:101698000022DA7100BF0C37BD465DF8047B704745
:1016A80080B485B000AF78600B467B804FF4803300
:1016B800FB607A88FB681343FB60FA687B68DA6131
:1016C8007A887B68DA61FA687B68DA617B68DB694B
:1016D800FB607B68DB69FB6000BF1437BD465DF8C3
:1016E800047B704780B485B000AF78600B467B8080
:1016F8000023FB737B681A697B881340002B02D098
:101708000123FB7301E00023FB73FB7B18461437AE
:10171800BD465DF8047B704780B483B000AF786045
:101728007B681B699BB218460C37BD465DF8047B85
:10173800704780B485B000AF78600B467B8000238B
:10174800FB737B685A697B881340002B02D0012306
:10175800FB7301E00023FB73FB7B18461437BD467F
:101768005DF8047B704780B483B000AF78607B6815
:101778005B699BB218460C37BD465DF8047B704721
:1017880080B483B000AF78600B467B807B687A8832
:101798001A8300BF0C37BD465DF8047B704780B4E0
:1017A80083B000AF78600B467B807B687A885A8369
:1017B80000BF0C37BD465DF8047B704780B483B02A
:1017C80000AF78600B467B8013467B707B78002BDC
:1017D80003D07B687A881A8302E07B687A885A8308
:1017E80000BF0C37BD465DF8047B704780B483B0FA
:1017F80000AF78600B467B807A887B685A6100BFAF
:101808000C37BD465DF8047B704780B483B000AFE9
:1018180078600B467B807B685A697B885A407B6876
:101828005A6100BF0C37BD465DF8047B704780B431
:1018380085B000AF78600B467B8013467B70002331
:10184800FB600023BB607A787B8803F007039B006A
:1018580002FA03F3FB607B88DB089BB21A467B68BD
:10186800083253F822207B8803F007039B000F21DE
:1018780001FA03F3DB437988C90889B2084602EA0A
:1018880003017B6800F1080243F822107B88DB081B
:101898009BB21A467B68083253F82230FA68134321
:1018A800BB607B88DB089BB21A467B680832B96844
:1018B80043F8221000BF1437BD465DF8047B70471B
:1018C80080B400AF104B1B680F4A43F0010313604C
:1018D8000D4B00229A600C4B1B680B4A23F0847353
:1018E80023F480331360084B084A5A60064B1B6880
:1018F800054A23F480231360034B0022DA6000BFFB
:10190800BD465DF8047B7047003802401030002463
:1019180080B483B000AF0346FB71064B00221A70F7
:10192800044AFB79137000BF0C37BD465DF8047B91
:10193800704700BF0238024080B582B000AF002374
:101948003B600023FB710023BB71312000F0B0FC29
:101958000346BB713B6801333B603B68B3F5A06F3E
:1019680002D0BB79002BF0D0312000F0A1FC034657
:10197800002B02D00123FB7101E00023FB71FB79EE
:1019880018460837BD4680BD80B485B000AF034611
:10199800FB710023FB600A4B1B68FB60FB6823F0AC
:1019A800F803FB60FB79DB00FA681343FB60044A29
:1019B800FB68136000BF1437BD465DF8047B7047B1
:1019C8000038024080B483B000AF0346FB71044A7C
:1019D800FB79136000BF0C37BD465DF8047B704788
:1019E8000000474280B483B000AF0346FB710D4B43
:1019F80000221A700B4B00221A70FB79012B02D0BF
:101A0800042B04D007E0074B01221A7003E0054BB2
:101A180005221A7000BF00BF0C37BD465DF8047B75
:101A2800704700BF7038024080B483B000AF0346EF
:101A3800FB71044AFB79136000BF0C37BD465DF8A3
:101A4800047B7047800E474280B485B000AFF860D1
:101A5800B9607A603B607B689A01BB681A433B684F
:101A68005B08013B1B041A43FB681A43BB691B064E
:101A7800044913434B6000BF1437BD465DF8047B2F
:101A8800704700BF0038024080B483B000AF0346FF
:101A9800FB71044AFB79136000BF0C37BD465DF843
:101AA800047B70476000474280B483B000AF786021
:101AB80039607B689A013B681B0705491343C1F8E5
:101AC800843000BF0C37BD465DF8047B704700BF0B
:101AD8000038024080B483B000AF0346FB71044A6B
:101AE800FB79136000BF0C37BD465DF8047B704777
:101AF8006800474280B483B000AF0346FB71044AD4
:101B0800FB79136000BF0C37BD465DF8047B704756
:101B18004C00474280B485B000AF7860396000233C
:101B2800FB600B4B9B68FB60FB6823F0EC63FB607E
:101B38007A683B681343FA681343FB60044AFB68FE
:101B4800936000BF1437BD465DF8047B704700BF43
:101B58000038024080B485B000AF78603960002357
:101B6800FB600B4B9B68FB60FB6823F07843FB60D2
:101B78007A683B681343FA681343FB60044AFB68BE
:101B8800936000BF1437BD465DF8047B704700BF03
:101B98000038024080B485B000AF78600023FB6055
:101BA800094B9B68FB60FB6823F00303FB60FA6842
:101BB8007B681343FB60044AFB68936000BF1437DB
:101BC800BD465DF8047B70470038024080B400AF22
:101BD800054B9B68DBB203F00C03DBB21846BD462D
:101BE8005DF8047B704700BF0038024080B485B0C0
:101BF80000AF78600023FB60094B9B68FB60FB68C3
:101C080023F0F003FB60FA687B681343FB60044A27
:101C1800FB68936000BF1437BD465DF8047B7047CE
:101C28000038024080B485B000AF78600023FB60C4
:101C3800094B9B68FB60FB6823F4E053FB60FA6880
:101C48007B681343FB60044AFB68936000BF14374A
:101C5800BD465DF8047B70470038024080B485B00B
:101C680000AF78600023FB600A4B9B68FB60FB6851
:101C780023F46043FB607B68DB00FA681343FB6076
:101C8800044AFB68936000BF1437BD465DF8047BC7
:101C9800704700BF0038024080B489B000AF786058
:101CA8000023BB6100237B610023FB6102233B61AE
:101CB8000023FB600223BB60474B9B6803F00C03C7
:101CC800BB61BB69042B07D0082B09D0002B3DD181
:101CD8007B68424A1A603DE07B68414A1A6039E0F5
:101CE8003D4B5B689B0D03F00103FB603A4B5B685F
:101CF80003F03F03BB60FB68002B0CD0384ABB687D
:101D0800B2FBF3F3344A52689209C2F3080202FBA9
:101D180003F3FB610BE0314ABB68B2FBF3F32E4AD5
:101D280052689209C2F3080202FB03F3FB612A4BD3
:101D38005B681B0C03F0030301335B003B61FA692A
:101D48003B69B2FBF3F27B681A6003E07B68234AC5
:101D58001A6000BF204B9B6803F0F003BB61BB69AE
:101D68001B09BB611F4ABB6913441B78DBB27B614B
:101D78007B681A687B69DA407B685A60164B9B68F7
:101D880003F4E053BB61BB699B0ABB61154ABB699D
:101D980013441B78DBB27B617B685A687B69DA4045
:101DA8007B689A600C4B9B6803F46043BB61BB691A
:101DB8005B0BBB610B4ABB6913441B78DBB27B61CD
:101DC8007B685A687B69DA407B68DA6000BF243731
:101DD800BD465DF8047B7047003802400024F400DB
:101DE800001BB7003400002080B485B000AF7860D5
:101DF8000023FB607B6803F44073B3F5407F11D187
:101E08000F4B9B68FB60FB6823F4F813FB607B684F
:101E180023F0704323F44073FA681343FB60084AC5
:101E2800FB689360064B1A6F7B68C3F30B03044986
:101E380013430B6700BF1437BD465DF8047B70473A
:101E48000038024080B483B000AF0346FB71044AF7
:101E5800FB79136000BF0C37BD465DF8047B704703
:101E68003C0E474280B483B000AF0346FB71044A7E
:101E7800FB79136000BF0C37BD465DF8047B7047E3
:101E8800400E474280B483B000AF7860044A7B6854
:101E9800136000BF0C37BD465DF8047B704700BF78
:101EA8005C01474280B483B000AF78600B46FB709A
:101EB800FB78002B06D00A4B1A6B09497B68134341
:101EC8000B6306E0064B1A6B7B68DB43044913403F
:101ED8000B6300BF0C37BD465DF8047B704700BF3D
:101EE8000038024080B483B000AF78600B46FB70C6
:101EF800FB78002B06D00A4B5A6B09497B681343C1
:101F08004B6306E0064B5A6B7B68DB43044913407E
:101F18004B6300BF0C37BD465DF8047B704700BFBC
:101F28000038024080B483B000AF78600B46FB7085
:101F3800FB78002B06D00A4B9A6B09497B68134340
:101F48008B6306E0064B9A6B7B68DB4304491340BE
:101F58008B6300BF0C37BD465DF8047B704700BF3C
:101F68000038024080B483B000AF78600B46FB7045
:101F7800FB78002B06D00A4B1A6C09497B6813437F
:101F88000B6406E0064B1A6C7B68DB43044913407C
:101F98000B6400BF0C37BD465DF8047B704700BF7B
:101FA8000038024080B483B000AF78600B46FB7005
:101FB800FB78002B06D00A4B5A6C09497B681343FF
:101FC8004B6406E0064B5A6C7B68DB4304491340BC
:101FD8004B6400BF0C37BD465DF8047B704700BFFB
:101FE8000038024080B483B000AF78600B46FB70C5
:101FF800FB78002B06D00A4B1A6909497B68134302
:102008000B6106E0064B1A697B68DB430449134001
:102018000B6100BF0C37BD465DF8047B704700BFFD
:102028000038024080B483B000AF78600B46FB7084
:10203800FB78002B06D00A4B5A6909497B68134381
:102048004B6106E0064B5A697B68DB430449134041
:102058004B6100BF0C37BD465DF8047B704700BF7D
:102068000038024080B483B000AF78600B46FB7044
:10207800FB78002B06D00A4B9A6909497B68134301
:102088008B6106E0064B9A697B68DB430449134081
:102098008B6100BF0C37BD465DF8047B704700BFFD
:1020A8000038024080B483B000AF78600B46FB7004
:1020B800FB78002B06D00A4B1A6A09497B68134340
:1020C8000B6206E0064B1A6A7B68DB43044913403F
:1020D8000B6200BF0C37BD465DF8047B704700BF3C
:1020E8000038024080B483B000AF78600B46FB70C4
:1020F800FB78002B06D00A4B5A6A09497B681343C0
:102108004B6206E0064B5A6A7B68DB43044913407E
:102118004B6200BF0C37BD465DF8047B704700BFBB
:102128000038024080B483B000AF78600B46FB7083
:10213800FB78002B06D00A4B1A6D09497B681343BC
:102148000B6506E0064B1A6D7B68DB4304491340B8
:102158000B6500BF0C37BD465DF8047B704700BFB8
:102168000038024080B483B000AF78600B46FB7043
:10217800FB78002B06D00A4B5A6D09497B6813433C
:102188004B6506E0064B5A6D7B68DB4304491340F8
:102198004B6500BF0C37BD465DF8047B704700BF38
:1021A8000038024080B483B000AF78600B46FB7003
:1021B800FB78002B06D00A4B9A6D09497B681343BC
:1021C8008B6506E0064B9A6D7B68DB430449134038
:1021D8008B6500BF0C37BD465DF8047B704700BFB8
:1021E8000038024080B483B000AF78600B46FB70C3
:1021F800FB78002B06D00A4B1A6E09497B681343FB
:102208000B6606E0064B1A6E7B68DB4304491340F5
:102218000B6600BF0C37BD465DF8047B704700BFF6
:102228000038024080B483B000AF78600B46FB7082
:10223800FB78002B06D00A4B5A6E09497B6813437A
:102248004B6606E0064B5A6E7B68DB430449134035
:102258004B6600BF0C37BD465DF8047B704700BF76
:102268000038024080B483B000AF03460A46FB71D1
:102278001346BB71BB79002B08D00C4B1B78DAB224
:102288000A49FB791343DBB20B7009E0074B1B7853
:10229800DAB2FB79DB43DBB204491340DBB20B70E3
:1022A80000BF0C37BD465DF8047B70470D3802400F
:1022B80080B487B000AF0346FB710023FB600023A6
:1022C8007B610023FB74FB795B09DBB2FB60FB6875
:1022D800012B03D1124B1B687B6109E0FB68022BC1
:1022E80003D10F4B1B6F7B6102E00D4B5B6F7B6172
:1022F800FB7903F01F03FB607A69FB6822FA03F39A
:1023080003F00103002B02D00123FB7401E000233A
:10231800FB74FB7C18461C37BD465DF8047B704790
:102328000038024080B400AF054B5B6F044A43F0AD
:102338008073536700BFBD465DF8047B704700BFDC
:102348000038024080B485B000AF0346FB7100231B
:10235800FB73094BDA68FB791340002B02D0012389
:10236800FB7301E00023FB73FB7B18461437BD4663
:102378005DF8047B704700BF0038024080B483B02A
:1023880000AF0346FB71044AFB79137000BF0C379A
:10239800BD465DF8047B70470E38024080B582B0B8
:1023A80000AF78607B68604A934208D10121012020
:1023B800FFF798FE00210120FFF794FEAFE07B684D
:1023C800B3F1804F08D101210120FFF76BFE0021F6
:1023D8000120FFF767FEA2E07B68544A934208D1C8
:1023E80001210220FFF75EFE00210220FFF75AFEBE
:1023F80095E07B684E4A934208D101210420FFF7FB
:1024080051FE00210420FFF74DFE88E07B68494A11
:10241800934208D101210820FFF744FE002108203B
:10242800FFF740FE7BE07B68434A934208D10121D5
:102438001020FFF737FE00211020FFF733FE6EE073
:102448007B683E4A934208D101212020FFF72AFEEB
:1024580000212020FFF726FE61E07B68384A93427E
:1024680008D101210220FFF73DFE00210220FFF7DD
:1024780039FE54E07B68334A93420AD101214FF474
:102488008030FFF72FFE00214FF48030FFF72AFE3F
:1024980045E07B682C4A93420AD101214FF4003071
:1024A800FFF720FE00214FF40030FFF71BFE36E057
:1024B8007B68264A93420AD101214FF48020FFF716
:1024C80011FE00214FF48020FFF70CFE27E07B6807
:1024D8001F4A934208D101214020FFF7E3FD002164
:1024E8004020FFF7DFFD1AE07B681A4A934208D1C3
:1024F80001218020FFF7D6FD00218020FFF7D2FDC3
:102508000DE07B68144A934209D101214FF4807091
:10251800FFF7C8FD00214FF48070FFF7C3FD00BF2F
:102528000837BD4680BD00BF0000014000040040E0
:1025380000080040000C004000100040001400405B
:1025480000040140004001400044014000480140AF
:1025580000180040001C00400020004080B485B0F6
:1025680000AF786039600023FB817B681B88FB81A2
:102578007B68294A934213D07B68284A93420FD03C
:102588007B68B3F1804F0BD07B68254A934207D014
:102598007B68244A934203D07B68234A934208D13C
:1025A800FB8923F07003FB813B685A88FB8913433E
:1025B800FB817B681D4A93420CD07B681C4A93427E
:1025C80008D0FB8923F44073FB813B681A89FB8997
:1025D8001343FB817B68FA891A803B685A687B68D9
:1025E800DA623B681A887B681A857B680A4A9342D4
:1025F80003D07B68094A934204D13B689B7A9AB21C
:102608007B681A867B6801229A8200BF1437BD4610
:102618005DF8047B704700BF0000014000040140E2
:102628000004004000080040000C0040001000407A
:102638000014004080B483B000AF78607B684FF02E
:10264800FF325A607B6800221A807B6800221A8158
:102658007B6800225A807B6800229A7200BF0C3780
:10266800BD465DF8047B704780B483B000AF7860E6
:102678000B467B8013463B807B687A881A857B688B
:102688003A889A8200BF0C37BD465DF8047B7047D4
:1026980080B485B000AF78600B467B800023FB8157
:1026A8007B681B88FB81FB8923F07003FB81FA8917
:1026B8007B881343FB817B68FA891A8000BF143733
:1026C800BD465DF8047B704780B483B000AF786086
:1026D80039607B683A685A6200BF0C37BD465DF8BE
:1026E800047B704780B483B000AF786039607B6842
:1026F8003A68DA6200BF0C37BD465DF8047B704764
:1027080080B483B000AF78607B685B6A18460C378A
:10271800BD465DF8047B704780B483B000AF786035
:102728007B681B8D9BB218460C37BD465DF8047B51
:10273800704780B483B000AF78600B46FB70FB78BD
:10274800002B08D07B681B889BB243F002039AB227
:102758007B681A8007E07B681B889BB223F0020322
:102768009AB27B681A8000BF0C37BD465DF8047BBF
:10277800704780B483B000AF78600B467B807B885D
:10278800002B08D07B681B889BB243F004039AB2E5
:102798007B681A8007E07B681B889BB223F00403E0
:1027A8009AB27B681A8000BF0C37BD465DF8047B7F
:1027B800704780B483B000AF78600B46FB70FB783D
:1027C800002B08D07B681B889BB243F080039AB229
:1027D8007B681A8007E07B681B889BB223F0800324
:1027E8009AB27B681A8000BF0C37BD465DF8047B3F
:1027F800704780B483B000AF78600B467B807B68FD
:102808001B889BB223F008039AB27B681A807B6806
:102818001B889AB27B8813439AB27B681A8000BFE0
:102828000C37BD465DF8047B704780B483B000AFB9
:1028380078600B467B807B681B889BB223F44073CF
:102848009AB27B681A807B681B889AB27B8813438C
:102858009AB27B681A8000BF0C37BD465DF8047BCE
:10286800704780B483B000AF78600B46FB70FB788C
:10287800002B08D07B681B889BB243F001039AB2F7
:102888007B681A8007E07B681B889BB223F00103F2
:102898009AB27B681A8000BF0C37BD465DF8047B8E
:1028A800704780B485B000AF7860396000237B81C1
:1028B8000023FB810023BB817B681B8C9BB223F028
:1028C80001039AB27B681A847B681B8CFB817B6846
:1028D8009B88BB817B681B8B7B817B8923F0700382
:1028E8007B817B8923F003037B813B681A887B8982
:1028F80013437B81FB8923F00203FB813B689A89A0
:10290800FB891343FB813B685A88FB891343FB818E
:102918007B681F4A934203D07B681E4A934223D1A7
:10292800FB8923F00803FB813B68DA89FB891343A1
:10293800FB81FB8923F00403FB813B689A88FB89B0
:102948001343FB81BB8923F48073BB81BB8923F4C8
:102958000073BB813B681A8ABB891343BB813B6800
:102968005A8ABB891343BB817B68BA899A807B6882
:102978007A891A833B689A687B685A637B68FA8904
:102988001A8400BF1437BD465DF8047B704700BF4A
:10299800000001400004014080B485B000AF7860B9
:1029A800396000237B810023FB810023BB817B6886
:1029B8001B8C9BB223F010039AB27B681A847B6845
:1029C8001B8CFB817B689B88BB817B681B8B7B8115
:1029D8007B8923F4E0437B817B8923F440737B81EB
:1029E8003B681B881B029AB27B8913437B81FB8956
:1029F80023F02003FB813B689B891B019AB2FB896A
:102A08001343FB813B685B881B019AB2FB89134324
:102A1800FB817B68224A934203D07B68214A934218
:102A28002BD1FB8923F08003FB813B68DB891B01E9
:102A38009AB2FB891343FB81FB8923F04003FB8196
:102A48003B689B881B019AB2FB891343FB81BB89B6
:102A580023F48063BB81BB8923F40063BB813B689B
:102A68001B8A9B009AB2BB891343BB813B685B8A74
:102A78009B009AB2BB891343BB817B68BA899A8051
:102A88007B687A891A833B689A687B689A637B6853
:102A9800FA891A8400BF1437BD465DF8047B704775
:102AA800000001400004014080B485B000AF7860A8
:102AB800396000237B810023FB810023BB817B6875
:102AC8001B8C9BB223F480739AB27B681A847B6850
:102AD8001B8CFB817B689B88BB817B689B8B7B8184
:102AE8007B8923F070037B817B8923F003037B813F
:102AF8003B681A887B8913437B81FB8923F4007325
:102B0800FB813B689B891B029AB2FB891343FB81BB
:102B18003B685B881B029AB2FB891343FB817B6885
:102B2800224A934203D07B68214A93422BD1FB89E6
:102B380023F40063FB813B68DB891B029AB2FB89A3
:102B48001343FB81FB8923F48063FB813B689B88EB
:102B58001B029AB2FB891343FB81BB8923F4805380
:102B6800BB81BB8923F40053BB813B681B8A1B01D3
:102B78009AB2BB891343BB813B685B8A1B019AB23B
:102B8800BB891343BB817B68BA899A807B687A8941
:102B98009A833B689A687B68DA637B68FA891A8447
:102BA80000BF1437BD465DF8047B70470000014044
:102BB8000004014080B485B000AF7860396000231C
:102BC800BB8100237B810023FB817B681B8C9BB22C
:102BD80023F480539AB27B681A847B681B8C7B81B0
:102BE8007B689B88FB817B689B8BBB81BB8923F4BB
:102BF800E043BB81BB8923F44073BB813B681B88DE
:102C08001B029AB2BB891343BB817B8923F400530F
:102C18007B813B689B891B039AB27B8913437B8129
:102C28003B685B881B039AB27B8913437B817B6873
:102C3800124A934203D07B68114A93420AD1FB8916
:102C480023F48043FB813B681B8A9B019AB2FB8972
:102C58001343FB817B68FA899A807B68BA899A83D7
:102C68003B689A687B681A647B687A891A8400BF13
:102C78001437BD465DF8047B704700BF0000014073
:102C88000004014080B483B000AF78607B68002204
:102C98001A807B6800225A807B6800229A807B68B1
:102CA80000229A607B6800229A817B680022DA8180
:102CB8007B6800221A827B6800225A8200BF0C3788
:102CC800BD465DF8047B704780B485B000AF78607E
:102CD8000B467B8013463B800023FB6000237B81EF
:102CE8007B68FB60FB681833FB607B88012202FA73
:102CF80003F37B817B681B8C9AB27B89DB439BB295
:102D080013409AB27B681A847B88002B02D07B8898
:102D1800082B14D17B885B089BB21A46FB681344C6
:102D2800FB60FB681968FA684FF68F730B401360F5
:102D3800FB6819683A88FB680A431A6018E07B88C0
:102D4800043B9BB25B089BB21A46FB681344FB60CA
:102D5800FB681968FA6848F6FF730B401360FB6854
:102D68001A683B881B029BB21946FB680A431A6023
:102D780000BF1437BD465DF8047B704780B483B04C
:102D880000AF786039607B683A685A6300BF0C37D7
:102D9800BD465DF8047B704780B483B000AF7860AF
:102DA80039607B683A689A6300BF0C37BD465DF8A6
:102DB800047B704780B483B000AF786039607B686B
:102DC8003A68DA6300BF0C37BD465DF8047B70478C
:102DD80080B483B000AF786039607B683A681A6461
:102DE80000BF0C37BD465DF8047B704780B485B0E2
:102DF80000AF78600B467B800023FB817B681B8BD0
:102E0800FB81FB8923F07003FB81FA897B881343DC
:102E1800FB817B68FA891A8300BF1437BD465DF8C9
:102E2800047B704780B485B000AF78600B467B8028
:102E38000023FB817B681B8BFB81FB8923F4E04328
:102E4800FB817B881B029AB2FB891343FB817B6859
:102E5800FA891A8300BF1437BD465DF8047B7047B2
:102E680080B485B000AF78600B467B800023FB817F
:102E78007B689B8BFB81FB8923F07003FB81FA89BC
:102E88007B881343FB817B68FA899A8300BF1437D8
:102E9800BD465DF8047B704780B485B000AF7860AC
:102EA8000B467B800023FB817B689B8BFB81FB8926
:102EB80023F4E043FB817B881B029AB2FB8913430E
:102EC800FB817B68FA899A8300BF1437BD465DF899
:102ED800047B704780B485B000AF78600B467B8078
:102EE8000023FB817B681B8BFB81FB8923F0080394
:102EF800FB81FA897B881343FB817B68FA891A83F3
:102F080000BF1437BD465DF8047B704780B485B0B8
:102F180000AF78600B467B800023FB817B681B8BAE
:102F2800FB81FB8923F40063FB817B881B029AB237
:102F3800FB891343FB817B68FA891A8300BF143726
:102F4800BD465DF8047B704780B485B000AF7860FB
:102F58000B467B800023FB817B689B8BFB81FB8975
:102F680023F00803FB81FA897B881343FB817B6884
:102F7800FA899A8300BF1437BD465DF8047B704711
:102F880080B485B000AF78600B467B800023FB815E
:102F98007B689B8BFB81FB8923F40063FB817B8827
:102FA8001B029AB2FB891343FB817B68FA899A83D7
:102FB80000BF1437BD465DF8047B704780B485B008
:102FC80000AF78600B467B800023FB817B681B8BFE
:102FD800FB81FB8923F00403FB81FA897B88134377
:102FE800FB817B68FA891A8300BF1437BD465DF8F8
:102FF800047B704780B485B000AF78600B467B8057
:103008000023FB817B681B8BFB81FB8923F4806396
:10301800FB817B881B029AB2FB891343FB817B6887
:10302800FA891A8300BF1437BD465DF8047B7047E0
:1030380080B485B000AF78600B467B800023FB81AD
:103048007B689B8BFB81FB8923F00403FB81FA8956
:103058007B881343FB817B68FA899A8300BF143706
:10306800BD465DF8047B704780B485B000AF7860DA
:103078000B467B800023FB817B689B8BFB81FB8954
:1030880023F48063FB817B881B029AB2FB8913437C
:10309800FB817B68FA899A8300BF1437BD465DF8C7
:1030A800047B704780B485B000AF78600B467B80A6
:1030B8000023FB817B681B8BFB81FB8923F080034A
:1030C800FB81FA897B881343FB817B68FA891A8321
:1030D80000BF1437BD465DF8047B704780B485B0E7
:1030E80000AF78600B467B800023FB817B681B8BDD
:1030F800FB81FB89C3F30E03FB817B881B029AB219
:10310800FB891343FB817B68FA891A8300BF143754
:10311800BD465DF8047B704780B485B000AF786029
:103128000B467B800023FB817B689B8BFB81FB89A3
:1031380023F08003FB81FA897B881343FB817B683A
:10314800FA899A8300BF1437BD465DF8047B70473F
:1031580080B485B000AF78600B467B800023FB818C
:103168007B689B8BFB81FB89C3F30E03FB817B8808
:103178001B029AB2FB891343FB817B68FA899A8305
:1031880000BF1437BD465DF8047B704780B485B036
:1031980000AF78600B467B800023FB817B681B8C2B
:1031A800FB81FB8923F00203FB81FA897B881343A7
:1031B800FB817B68FA891A8400BF1437BD465DF825
:1031C800047B704780B485B000AF78600B467B8085
:1031D8000023FB817B681B8CFB81FB8923F00803A0
:1031E800FB81FA897B881343FB817B68FA891A84FF
:1031F80000BF1437BD465DF8047B704780B485B0C6
:1032080000AF78600B467B800023FB817B681B8CBA
:10321800FB81FB8923F02003FB817B881B019AB289
:10322800FB891343FB817B68FA891A8400BF143732
:10323800BD465DF8047B704780B485B000AF786008
:103248000B467B800023FB817B681B8CFB81FB8901
:1032580023F08003FB817B881B019AB2FB8913430F
:10326800FB817B68FA891A8400BF1437BD465DF874
:10327800047B704780B485B000AF78600B467B80D4
:103288000023FB817B681B8CFB81FB8923F4007383
:10329800FB817B881B029AB2FB891343FB817B6805
:1032A800FA891A8400BF1437BD465DF8047B70475D
:1032B80080B485B000AF78600B467B800023FB812B
:1032C8007B681B8CFB81FB8923F40063FB817B8873
:1032D8001B029AB2FB891343FB817B68FA891A8423
:1032E80000BF1437BD465DF8047B704780B485B0D5
:1032F80000AF78600B467B800023FB817B681B8CCA
:10330800FB81FB8923F40053FB817B881B039AB262
:10331800FB891343FB817B68FA891A8400BF143741
:10332800BD465DF8047B704780B485B000AF786017
:103338000B467B8013463B800023FB817B88012260
:1033480002FA03F3FB817B681B8C9AB2FB89DB438F
:103358009BB213409AB27B681A847B681B8C9AB222
:1033680039887B8801FA03F39BB213439AB27B68CE
:103378001A8400BF1437BD465DF8047B704780B4DB
:1033880085B000AF78600B467B8013463B800023F6
:10339800FB817B88042202FA03F3FB817B681B8C88
:1033A8009AB2FB89DB439BB213409AB27B681A84BA
:1033B8007B681B8C9AB239887B8801FA03F39BB22D
:1033C80013439AB27B681A8400BF1437BD465DF870
:1033D800047B704780B582B000AF786039603B6885
:1033E8001B88002B0FD13B6859883B689A883B683B
:1033F8001B89786800F0B7FC3B68DB881946786859
:1034080000F0E1F836E03B681B88042B0FD13B68DD
:1034180059883B689A883B681B89786800F0E6FC05
:103428003B68DB881946786800F0E9F822E03B68D9
:103438001B88082B0FD13B6859883B689A883B68E2
:103448001B89786800F01FFD3B68DB88194678689F
:1034580000F0F3F80EE03B6859883B689A883B68AF
:103468001B89786800F057FD3B68DB881946786847
:1034780000F0FFF800BF0837BD4680BD80B483B0B8
:1034880000AF78607B6800221A807B6800225A802F
:103498007B6801229A807B680022DA807B680022A0
:1034A8001A8100BF0C37BD465DF8047B704780B5B4
:1034B80084B000AF786039600023FB810123BB81B1
:1034C8003B685B88002B02D10223FB8101E00023CB
:1034D800FB813B689B88012B02D10223BB8101E061
:1034E8000123BB813B681B88002B1CD13B68598892
:1034F8003B689A883B681B89786800F034FC3B6815
:10350800DB881946786800F05EF83B681B89BA8941
:10351800F989786800F06AFC3B68DB8819467868A6
:1035280000F06DF81BE03B6859883B689A883B6857
:103538001B89786800F05AFC3B68DB881946786874
:1035480000F05DF83B681B89BA89F989786800F052
:103558000AFC3B68DB881946786800F034F800BF3D
:103568001037BD4680BD80B483B000AF78607B68FB
:103578005B6B18460C37BD465DF8047B704780B41A
:1035880083B000AF78607B689B6B18460C37BD46EC
:103598005DF8047B704780B483B000AF78607B68C7
:1035A800DB6B18460C37BD465DF8047B704780B46A
:1035B80083B000AF78607B681B6C18460C37BD463B
:1035C8005DF8047B704780B483B000AF78600B4629
:1035D8007B807B681B8B9BB223F00C039AB27B68C1
:1035E8001A837B681B8B9AB27B8813439AB27B68D9
:1035F8001A8300BF0C37BD465DF8047B704780B462
:1036080083B000AF78600B467B807B681B8B9BB2D6
:1036180023F440639AB27B681A837B681B8B9AB247
:103628007B881B029BB213439AB27B681A8300BF44
:103638000C37BD465DF8047B704780B483B000AF9B
:1036480078600B467B807B689B8B9BB223F00C03D6
:103658009AB27B689A837B689B8B9AB27B88134368
:103668009AB27B689A8300BF0C37BD465DF8047B2D
:10367800704780B483B000AF78600B467B807B686E
:103688009B8B9BB223F440639AB27B689A837B68D6
:103698009B8B9AB27B881B029BB213439AB27B68BE
:1036A8009A8300BF0C37BD465DF8047B704780B431
:1036B80083B000AF786039603B681A883B685B88E4
:1036C80013439AB23B689B8813439AB23B68DB88E2
:1036D80013439AB23B681B8913439AB23B685B89D0
:1036E80013439AB23B689B8913439AB27B68A3F849
:1036F800442000BF0C37BD465DF8047B704780B49A
:1037080083B000AF78607B6800221A807B68002253
:103718005A807B6800229A807B680022DA807B6866
:1037280000221A817B6800225A817B6800229A81D4
:1037380000BF0C37BD465DF8047B704780B483B08A
:1037480000AF78600B46FB70FB78002B0CD07B68D1
:10375800B3F844309BB26FEA43436FEA53439AB2DB
:103768007B68A3F8442009E07B68B3F844309BB237
:10377800C3F30E039AB27B68A3F8442000BF0C374A
:10378800BD465DF8047B704780B483B000AF7860B5
:103798000B46FB70FB78002B08D07B689B889BB29C
:1037A80043F004039AB27B689A8007E07B689B88A1
:1037B8009BB223F004039AB27B689A8000BF0C374F
:1037C800BD465DF8047B704780B483B000AF786075
:1037D8000B46FB70FB78002B08D07B689B889BB25C
:1037E80043F001039AB27B689A8007E07B689B8864
:1037F8009BB223F001039AB27B689A8000BF0C3712
:10380800BD465DF8047B704780B483B000AF786034
:103818000B467B8013467B707B78002B08D07B6837
:103828009B899AB27B8813439AB27B689A8109E094
:103838007B689B899AB27B88DB439BB213409AB220
:103848007B689A8100BF0C37BD465DF8047B7047E2
:1038580080B483B000AF78600B467B807B687A8841
:103868009A8200BF0C37BD465DF8047B704780B470
:1038780085B000AF78600B467B800023FB737B68C4
:103888001B8A9AB27B8813409BB2002B02D001237B
:10389800FB7301E00023FB73FB7B18461437BD461E
:1038A8005DF8047B704780B483B000AF78600B4646
:1038B8007B807B88DB439AB27B681A8200BF0C3717
:1038C800BD465DF8047B704780B485B000AF786072
:1038D8000B467B800023FB730023BB8100237B8185
:1038E8007B681B8A9AB27B881340BB817B689B8963
:1038F8009AB27B8813407B81BB89002B05D07B89DA
:10390800002B02D00123FB7301E00023FB73FB7B38
:1039180018461437BD465DF8047B704780B483B001
:1039280000AF78600B467B807B88DB439AB27B686C
:103938001A8200BF0C37BD465DF8047B704780B41F
:1039480083B000AF78600B467B8013463B807A8853
:103958003B8813439AB27B68A3F8482000BF0C3712
:10396800BD465DF8047B704780B483B000AF7860D3
:103978000B467B8013467B707B78002B08D07B68D6
:103988009B899AB27B8813439AB27B689A8109E033
:103998007B689B899AB27B88DB439BB213409AB2BF
:1039A8007B689A8100BF0C37BD465DF8047B704781
:1039B80080B483B000AF78600B46FB70FB78002BB7
:1039C80008D07B689B889BB243F008039AB27B6857
:1039D8009A8007E07B689B889BB223F008039AB221
:1039E8007B689A8000BF0C37BD465DF8047B704742
:1039F80080B483B000AF78607B681B899BB223F0EA
:103A080007039AB27B681A8100BF0C37BD465DF880
:103A1800047B704780B582B000AF78600B467B802E
:103A28007B881946786800F088F87B681B899BB208
:103A380043F007039AB27B681A8100BF0837BD4676
:103A480080BD80B584B000AFF860084611461A46BC
:103A580003467B810B463B811346FB807B89602BA9
:103A680006D1FB8839890122F86800F0BFF905E022
:103A7800FB8839890122F86800F075F97B891946B5
:103A8800F86800F05AF8FB681B899BB243F00703FB
:103A98009AB2FB681A8100BF1037BD4680BD80B559
:103AA80086B000AFF860084611461A4603467B8187
:103AB8000B463B811346FB800023FB82FB883A8937
:103AC8007989F86800F0A9F8FB681B89FB82FB8AF2
:103AD80023F00703FB82FB8A43F00703FB82FB8A80
:103AE80023F07003FB82FB8A43F07003FB82FB68C0
:103AF800FA8A1A8100BF1837BD4680BD80B584B0E8
:103B080000AFF860084611461A4603467B810B460B
:103B18003B811346FB80FB883A897989F86800F075
:103B28007CF8FB681B899BB243F480439AB2FB681C
:103B38001A8100BF1037BD4680BD80B485B000AF84
:103B480078600B467B800023FB817B681B89FB81A7
:103B5800FB8923F07003FB81FA897B881343FB817F
:103B68007B68FA891A8100BF1437BD465DF8047B6B
:103B7800704780B483B000AF78600B467B807B6869
:103B88009B889BB223F070039AB27B689A807B680B
:103B98009B889AB27B8813439AB27B689A8000BF4D
:103BA8000C37BD465DF8047B704780B483B000AF26
:103BB80078600B467B807B681B899BB223F00703E8
:103BC8009AB27B681A817B681B899AB27B881343F7
:103BD8009AB27B681A8100BF0C37BD465DF8047B3A
:103BE800704780B483B000AF78600B467B807B68F9
:103BF8001B899BB223F080039AB27B681A817B6889
:103C08001B899AB27B8813439AB27B681A8100BFDA
:103C18000C37BD465DF8047B704780B487B000AFB1
:103C2800F860084611461A4603467B810B463B81DD
:103C38001346FB800023FB82FB681B89FB82FB8AFF
:103C4800DBB2FB82FB881B029AB23B8913439AB210
:103C58007B8913439AB2FB8A1343FB82FB68FA8A77
:103C68001A8100BF1C37BD465DF8047B704780B4DD
:103C780087B000AFF860084611461A4603467B81B4
:103C88000B463B811346FB800023FB820023BB824B
:103C980000237B82FB681B89FB82FB681B8BBB8232
:103CA800FB681B8C7B82FB8A23F00703FB82FA8A62
:103CB8007B891343FB82BB8A23F4407323F00303FD
:103CC800BB82BB8A43F4807343F00103BB827B8AC7
:103CD80023F022037B82FB881B019AB23B891343A2
:103CE8009AB27B8A13437B82FB68FA8A1A81FB6843
:103CF800BA8A1A83FB687A8A1A8400BF1C37BD46C1
:103D08005DF8047B704780B483B000AF78600B46E1
:103D1800FB70FB78002B08D07B689B889BB243F034
:103D280080039AB27B689A8007E07B689B889BB285
:103D380023F080039AB27B689A8000BF0C37BD4697
:103D48005DF8047B704780B483B000AF78600B46A1
:103D58007B807B687A88A3F8502000BF0C37BD466B
:103D68005DF8047B704780B487B000AFF860084600
:103D780011461A4603467B810B463B811346FB805E
:103D88000023FB820023BB82FB681B8C9BB223F0C1
:103D980001039AB2FB681A84FB681B8BFB82FB68E1
:103DA8001B8CBB82FB8A23F0F303FB82FB881B017D
:103DB8009AB23B8913439AB2FB8A1343FB82BB8AAC
:103DC80023F00A03BB827A89BB8A13439BB243F070
:103DD8000103BB82FB68FA8A1A83FB68BA8A1A84D1
:103DE80000BF1C37BD465DF8047B704780B487B0C0
:103DF80000AFF860084611461A4603467B810B4619
:103E08003B811346FB800023FB820023BB820023F7
:103E18007B82FB681B8C9BB223F010039AB2FB6871
:103E28001A84FB681B8BFB82FB681B8CBB827B891B
:103E38001B017B82FB8A23F440731B051B0DFB824D
:103E4800FB881B039AB2FB8A1343FB823B891B0244
:103E58009AB2FB8A1343FB82BB8A23F0A003BB827E
:103E68007A8ABB8A13439BB243F01003BB82FB6878
:103E7800FA8A1A83FB68BA8A1A8400BF1C37BD46BF
:103E88005DF8047B704780B487B000AFF8600846DF
:103E980011461A4603467B810B463B811346FB803D
:103EA8000023FB820023BB8200237B82FB681B8CE0
:103EB8009BB223F480739AB2FB681A84FB689B8BCD
:103EC800FB82FB681B8CBB827B891B027B82FB8A83
:103ED80023F0F303FB82FB881B019AB23B8913434F
:103EE8009AB2FB8A1343FB82BB8A23F42063BB820A
:103EF8007A8ABB8A13439BB243F48073BB82FB6804
:103F0800FA8A9A83FB68BA8A1A8400BF1C37BD46AE
:103F18005DF8047B704780B487B000AFF86008464E
:103F280011461A4603467B810B463B811346FB80AC
:103F38000023FB820023BB8200237B82FB681B8C4F
:103F48009BB223F480539AB2FB681A84FB689B8B5C
:103F5800FB82FB681B8CBB827B891B037B82FB8AF1
:103F680023F440731B051B0DFB823B891B029AB28D
:103F7800FB8A1343FB82FB881B039AB2FB8A134319
:103F8800FB82BB8A23F400535B045B0CBB827A8AF6
:103F9800BB8A13439BB243F48053BB82FB68FA8A03
:103FA8009A83FB68BA8A1A8400BF1C37BD465DF83D
:103FB800047B704780B483B000AF03463960FB715F
:103FC80097F90730002B0BDA3B68DAB20C49FB791A
:103FD80003F00F03043B1201D2B20B441A7609E036
:103FE8003B68DAB2074997F907301201D2B20B449D
:103FF80083F8002300BF0C37BD465DF8047B70478B
:1040080000ED00E000E100E080B582B000AF78602C
:104018007B68B3F1807F01D3012311E07B6823F033
:104028007F43094A013B53600F214FF0FF30FFF7F0
:10403800C1FF054B00229A60034B07221A60002338
:1040480018460837BD4680BD10E000E080B500AFD7
:104058000B4B1B680B4AA2FB03235A0D13461B018B
:104068009B1A9B021846FFF7CFFF0346002B00D090
:10407800FEE76FF0040000F0F1FC00BF80BD00BF58
:104088004400002083DE1B4380B483B000AF214B83
:10409800B3F846329BB201339AB21E4BA3F84622BC
:1040A8001C4BB3F84632FB801A4BB3F84432BB8042
:1040B800184B93F84832DBB2002B07D0FA88BB883C
:1040C800D31A9BB247F6FE72934211D8124B1B6863
:1040D800114A23F0020313600E4BB3F846329AB22A
:1040E8000C4BA3F844220B4B002283F848220BE028
:1040F800094B1B68084A43F001031360064B1B6811
:10410800054A43F00203136000BF0C37BD465DF853
:10411800047B7047D404002010E000E080B483B032
:1041280000AF0346FB71FB7903F01F03012202FA7B
:1041380003F1064A97F907305B0942F8231000BFDC
:104148000C37BD465DF8047B704700BF00E100E016
:1041580080B483B000AF0346FB71FB7903F01F0303
:10416800012202FA03F1064A97F907305B09203366
:1041780042F8231000BF0C37BD465DF8047B70473A
:1041880000E100E080B582B000AF01210220FDF718
:1041980089FE01210220FDF785FE07220621154828
:1041A800FDF745FB072207211248FDF740FB402396
:1041B8003B6002233B710023BB710123FB71022387
:1041C8007B713B4619460B48FDF7C2F980233B60DB
:1041D80002233B710023BB710123FB7102237B7116
:1041E8003B4619460348FDF7B3F900BF0837BD46FB
:1041F80080BD00BF0004024080B584B000AF01213B
:104208001020FDF7CFFE4FF4E1333B600023BB8065
:104218000023FB8000233B810023BB810C237B818F
:104228003B461946054801F047F90121034801F0CA
:104238005BFA00BF1037BD4680BD00BF00100140CB
:1042480080B584B000AF0346FB7125233B73002380
:104258007B730023BB73FB79FB7307F10C031846D0
:1042680000F062FB00BF1037BD4680BD80B500AFCF
:10427800FFF788FF0120FFF7E3FFFFF7BDFF2520C9
:10428800FFF74CFF002240F22551054801F052FC8F
:10429800002240F22771024801F04CFC00BF80BDAB
:1042A8000010014080B582B000AF40F225511F4890
:1042B80001F0B5FC40F227711C4801F0B0FC034640
:1042C800002B2ED01A4B1B6B002B04D0184B9B6A6B
:1042D800184A134400E000237B607B68002B17D04A
:1042E8007B681B78DBB29BB21946104801F07BFA59
:1042F8000F4B01221A740E4B1B6B013B0C4A1363C4
:104308000B4B9B6A013303F00303094A936208E0ED
:10431800074B00221A74002240F22771034801F06B
:1043280009FC00BF0837BD4680BD00BF0010014032
:10433800D4040020F804002080B584B000AF786071
:10434800396000BF254B1B7CDBB2002BFAD13DE066
:104358002520FFF7FDFE214B1B6B032B06D92520DB
:10436800FFF7DCFE1D4B00221A742FE01B4BDB6AA3
:104378007A681178194A13440A4683F82420174B9F
:104388001B6B0133154A1363144BDB6A013303F0CB
:104398000303124AD3627B6801337B603B68013BAD
:1043A8003B600E4B1B7CDBB2002B0CBF01230023B0
:1043B800DBB2FB602520FFF7B1FEFB68002B05D0C0
:1043C800012240F22771064801F0B4FB3B68002B3C
:1043D800BED100BF1037BD4680BD00BFD404002049
:1043E8000010014080B483B000AF0346FB71FB7935
:1043F80003F01F03012202FA03F1064A97F9073076
:104408005B0942F8231000BF0C37BD465DF8047BFA
:10441800704700BF00E100E080B483B000AF0346FE
:10442800FB71FB7903F01F03012202FA03F1064A2C
:1044380097F907305B09203342F8231000BF0C3787
:10444800BD465DF8047B704700E100E080B586B0AA
:1044580000AF01210420FDF725FD01210820FDF70B
:1044680021FD01210120FDF71DFD01214FF48040B0
:10447800FDF798FD4FF400533B6101233B75002382
:10448800BB750023FB7500237B7507F110031946E4
:104498002A48FDF75DF801233B6100233B750023A3
:1044A800BB750223FB7502237B7507F110031946C0
:1044B8002348FDF74DF84FF400433B6101233B755A
:1044C8000023BB750023FB7500237B7507F11003E0
:1044D80019461C48FDF73CF84FF480433B61012323
:1044E8003B750023BB750023FB7500237B7507F123
:1044F800100319461348FDF72BF80021002000F09F
:10450800F5FE0123BB6000233B730C237B7301235F
:10451800BB7307F10803184601F014FC06233B712E
:1045280001237B710123BB710123FB713B1D1846DD
:1045380000F0FAF900BF1837BD4680BD00080240F8
:1045480000000240000C024080B500AF1720FFF7C2
:1045580063FF0B4B5B6903F48073002B0BD0084B94
:104568004FF480725A61074B012283F84C22054BA5
:10457800012283F84C221720FFF734FF00BF80BDCB
:10458800003C0140D404002080B586B000AF012172
:104598000420FDF787FC01210820FDF783FC012199
:1045A8004FF48040FDF7FEFC4FF48073BB6000239E
:1045B8003B730023BB730123FB7302237B7307F157
:1045C800080319461248FCF7C3FF0821032000F02E
:1045D8008DFE4FF480733B6100233B750C237B7584
:1045E8000123BB7507F11003184601F0ABFB172335
:1045F8003B7100237B710023BB710123FB713B1DC1
:10460800184600F091F900BF1837BD4680BD00BFBD
:10461800000C024080B500AF01F037FDFFF7B4FF92
:104628002CF050FD00BF80BD80B500AF00BF104B1F
:1046380093F84032DBB2012BF9D00D4B012283F8FD
:1046480040220B4B002283F83E22094B002283F8BC
:104658003F2201227121074800F076FD00BF044B7C
:1046680093F84032DBB2012BF9D000BF80BD00BF08
:10467800D40400200038004080B483B000AF7860D4
:1046880000BF0C37BD465DF8047B704780B483B02B
:1046980000AF7860396000BF0C37BD465DF8047B19
:1046A800704700BF80B500AF164BD3F88830154A65
:1046B80043F47003C2F88830134B1B68124A43F066
:1046C80001031360104B00229A600F4B1B680E4ABF
:1046D80023F0847323F4803313600B4B0B4A5A6026
:1046E800094B1B68084A23F480231360064B0022F9
:1046F800DA6000F089F8034B4FF000629A6000BF5F
:1047080080BD00BF00ED00E00038024010300024FA
:1047180080B487B000AF00233B6100237B61022394
:10472800FB600023BB6002237B60324B9B6803F075
:104738000C033B613B69042B07D0082B09D0002BE5
:104748003DD12D4B2D4A1A603DE02B4B2C4A1A6067
:1047580039E0284B5B689B0D03F00103BB60254BD8
:104768005B6803F03F037B60BB68002B0CD0244AD6
:104778007B68B2FBF3F31F4A52689209C2F308023E
:1047880002FB03F37B610BE01C4A7B68B2FBF3F38B
:10479800184A52689209C2F3080202FB03F37B61CC
:1047A800144B5B681B0C03F0030301335B00FB60D5
:1047B8007A69FB68B2FBF3F30F4A136003E00E4B10
:1047C8000E4A1A6000BF0B4B9B681B0903F00F03CE
:1047D8000C4AD35CDBB23B61074B1A683B6922FA8F
:1047E80003F3054A136000BF1C37BD465DF8047B20
:1047F800704700BF00380240440000200024F40045
:10480800001BB7004800002080B483B000AF00232D
:104818007B6000233B60364B1B68354A43F480338A
:104828001360334B1B6803F400333B607B68013330
:104838007B603B68002B03D17B68B3F5A06FF0D198
:104848002B4B1B6803F40033002B02D001233B6081
:1048580001E000233B603B68012B42D1244B1B6CD9
:10486800234A43F080531364224B1B68214A43F4C4
:10487800804313601E4B1E4A9B6893601C4B9B68C9
:104888001B4A43F400439360194B9B68184A43F44E
:10489800A0539360164B184A5A60154B1B68144A6C
:1048A80043F08073136000BF114B1B6803F0007363
:1048B800002BF9D0114B40F205621A600C4B9B6833
:1048C8000B4A23F003039360094B9B68084A43F0A3
:1048D8000203936000BF064B9B6803F00C03082B90
:1048E800F9D100BF0C37BD465DF8047B704700BFA7
:1048F800003802400070004008544007003C024065
:1049080080B483B000AF7860064A7B6843F0BF6329
:1049180043F40033D36000BF0C37BD465DF8047B19
:10492800704700BF00ED00E080B485B000AF78604C
:104938000023FB730023BB730F237B737B68DB7837
:10494800002B39D0274BDB68DB431B0ADBB203F0B3
:104958000703FB73FB7BC3F10403BB737A7BFB7B0D
:1049680042FA03F37B737B685B781A46BB7B02FAD7
:1049780003F3FB737B689A787B7B1340DAB2FB7B8B
:104988001343FB73FB7B1B01FB73174A7B681B7884
:104998001344FA7B83F800237B681B7803F01F031A
:1049A80011497A6812785209D2B21046012202FAE5
:1049B80003F341F820300FE07B681B7803F01F03F6
:1049C80009497A6812785209D2B2104601229A40EF
:1049D80000F1200341F8232000BF1437BD465DF8DD
:1049E800047B704700ED00E000E100E080B483B094
:1049F80000AF786039603B6823F0604323F07F03A1
:104A080004497A6813438B6000BF0C37BD465DF8D4
:104A1800047B704700ED00E080B483B000AF03462C
:104A28000A46FB711346BB71BB79002B06D00A4BB3
:104A38001A69FB79084913430B6106E0064B1A69AA
:104A4800FB79DB43044913400B6100BF0C37BD46BB
:104A58005DF8047B704700BF00ED00E080B483B0D0
:104A680000AF78607B68042B06D1094B1B68084AA5
:104A780043F00403136005E0054B1B68044A23F068
:104A88000403136000BF0C37BD465DF8047B704714
:104A980010E000E080B582B000AF78607B68174A0C
:104AA80093420AD101214FF48050FDF71BFB0021EE
:104AB8004FF48050FDF716FB1CE07B68104A9342C8
:104AC8000AD101214FF48040FDF7ECFA00214FF4A0
:104AD8008040FDF7E7FA0DE07B680A4A934209D166
:104AE80001214FF40040FDF7DDFA00214FF40040AA
:104AF800FDF7D8FA00BF0837BD4680BD0030014039
:104B080000380040003C004080B485B000AF7860B9
:104B180039600023FB817B681B88FB81FB8903F4D8
:104B28004153FB813B681A883B685B8813439AB200
:104B38003B689B8813439AB23B68DB8813439AB25D
:104B48003B681B8913439AB23B685B8913439AB24B
:104B58003B689B8913439AB23B68DB8913439AB23B
:104B6800FB891343FB817B68FA891A807B689B8BDE
:104B78009BB223F400639AB27B689A833B681A8AD3
:104B88007B681A8200BF1437BD465DF8047B704706
:104B980080B48BB000AF7860396000237B83022338
:104BA800FB840023BB8401237B840023FB61002357
:104BB8007B6100233B610023FB600023BB607B68B3
:104BC8009B8B9BB223F47B6323F00F039AB27B6821
:104BD8009A837B6802221A847B689B8B7B833B6861
:104BE8009B68022B04D10023BB840223FB846DE065
:104BF8003B689B88002B02D101237B8401E00223C0
:104C08007B844B4B9B6803F40003002B05D0484B77
:104C18009B68474A23F400039360454BD3F88430DC
:104C28009B09C3F30803FB60414BD3F884301B0F87
:104C380003F00703BB603E4B5B6803F03F033B6137
:104C48003C4A3B69B2FBF3F3FA6802FB03F2BB6828
:104C5800B2FBF3F37B613B68DB88B3F5007F0FD1D0
:104C68007B691A0A13469B0013445B001A463B688B
:104C78009B68B2FBF3F39BB205339BB2FB6112E076
:104C88007B8C5B011A467B69B3FBF2F213469B00EF
:104C980013445B001A463B689B68B2FBF3F39BB274
:104CA80005339BB2FB61FB69234AA2FB0323DB08A4
:104CB800FB61FB699BB203F00103BB84BB8CFA69FF
:104CC800D31A5B08FB84BB8C1B02BB84FB8C012BB7
:104CD80002D9FB8CFF2B03D90223FB840023BB845E
:104CE8003B68DA88BB8C13439AB2FB8C13439AB2A5
:104CF8007B681A843B681A883B6859883B6898889F
:104D08003B689B8903439BB20B439BB213439AB204
:104D18007B8B13439BB243F400637B837B687A8B62
:104D28009A8300BF2C37BD465DF8047B704700BFEF
:104D380000380240001BB700CDCCCCCC80B483B087
:104D480000AF78607B6800221A807B6800225A8056
:104D58007B6800229A807B680022DA807B680022C8
:104D68001A817B6800225A817B6800229A817B68BD
:104D78000022DA817B6807221A8200BF0C37BD4601
:104D88005DF8047B704780B483B000AF78607B68BF
:104D980000221A807B6800225A807B6800229A8051
:104DA8007B680022DA807B6802229A607B68002296
:104DB8009A8100BF0C37BD465DF8047B704780B40C
:104DC80083B000AF78600B46FB70FB78002B08D0EF
:104DD8007B681B889BB243F040039AB27B681A80B9
:104DE80007E07B681B889BB223F040039AB27B687C
:104DF8001A8000BF0C37BD465DF8047B704780B44D
:104E080083B000AF78600B46FB70FB78002B08D0AE
:104E18007B689B8B9BB243F480639AB27B689A83CE
:104E280007E07B689B8B9BB223F480639AB27B6814
:104E38009A8300BF0C37BD465DF8047B704780B489
:104E480083B000AF78600B467B807B681B889BB281
:104E580023F400639AB27B681A807B681B889AB235
:104E68007B8813439AB27B681A8000BF0C37BD4613
:104E78005DF8047B704780B483B000AF78600B4660
:104E88007B807B88B3F5804F08D17B681B889BB2F9
:104E980043F480439AB27B681A8007E07B681B88DA
:104EA8009BB223F480439AB27B681A8000BF0C3708
:104EB800BD465DF8047B704780B483B000AF78606E
:104EC8000B467B807B884FF6FF62934208D07B6855
:104ED8001B889BB243F480739AB27B681A8007E000
:104EE8007B681B889BB223F480739AB27B681A8014
:104EF80000BF0C37BD465DF8047B704780B483B0B3
:104F080000AF78600B46FB70FB78002B08D07B68FD
:104F18009B889BB243F004039AB27B689A8007E0AF
:104F28007B689B889BB223F004039AB27B689A80C3
:104F380000BF0C37BD465DF8047B704780B483B072
:104F480000AF78600B46FB70FB78002B08D07B68BD
:104F58009B889BB243F010039AB27B689A8007E063
:104F68007B689B889BB223F010039AB27B689A8077
:104F780000BF0C37BD465DF8047B704780B485B030
:104F880000AF786039600023BB810023FB817B6818
:104F98009B8B9BB223F47B6323F00F039AB27B684D
:104FA8009A837B6802221A847B689B8BBB813B684F
:104FB8001B88B3F5007F03D03B681B88002B03D107
:104FC8004FF48073FB810BE03B681B88B3F5407F8F
:104FD80004D03B681B88B3F5807F01D10023FB8197
:104FE8003B685A883B6899883B689B890B439BB20E
:104FF80013439AB2FB8913439AB2BB8913439BB2FA
:1050080043F40063BB817B68BA899A8300BF143775
:10501800BD465DF8047B704780B483B000AF78600C
:105028007B689B899BB218460C37BD465DF8047BAC
:10503800704780B483B000AF78600B467B807B6894
:105048007A889A8100BF0C37BD465DF8047B7047AB
:1050580080B483B000AF78600B46FB70FB78002B00
:1050680008D07B681B889BB243F400539AB27B68D4
:105078001A8007E07B681B889BB223F400539AB21E
:105088007B681A8000BF0C37BD465DF8047B70470B
:1050980080B483B000AF78607B681B889BB243F410
:1050A80080539AB27B681A8000BF0C37BD465DF802
:1050B800047B704780B485B000AF78600B46FB7006
:1050C8000023FB81FB78012B03D07B681B8BFB81C2
:1050D80002E07B689B8AFB81FB8918461437BD4632
:1050E8005DF8047B704780B483B000AF78607B685C
:1050F8001B8A9BB218460C37BD465DF8047B704787
:1051080080B483B000AF78600B467B8013467B7019
:105118007B78002B08D07B689B889AB27B881343E6
:105128009AB27B689A8009E07B689B889AB27B88F0
:10513800DB439BB213409AB27B689A8000BF0C375E
:10514800BD465DF8047B704780B485B000AF7860D9
:105158000B46FB701346BB700023FB810023BB8109
:10516800FB781B09DBB2FB81FB89012202FA03F3FE
:10517800BB81BB78002B08D07B689B889AB2BB891F
:1051880013439AB27B689A8009E07B689B889AB23D
:10519800BB89DB439BB213409AB27B689A8000BFFD
:1051A8001437BD465DF8047B704780B485B000AF06
:1051B80078600B467B800023FB737B681B899AB25F
:1051C8007B8813409BB2002B02D00123FB7301E0C4
:1051D8000023FB73FB7B18461437BD465DF8047B40
:1051E800704780B483B000AF78600B467B807B88C3
:1051F800DB439AB27B681A8100BF0C37BD465DF865
:10520800047B704780B485B000AF78600B46FB70B4
:105218000023FB730023BB8100237B8100233B8198
:10522800FB7803F00F03012202FA03F3BB81FB783A
:105238001B09DBB27B817B89012202FA03F37B81A4
:105248007B689B889AB27B8913403B817B681B896A
:105258009AB2BB8913409BB2002B05D03B89002B27
:1052680002D00123FB7301E00023FB73FB7B18468C
:105278001437BD465DF8047B704780B485B000AF35
:1052880078600B46FB700023FB81FB7803F00F036B
:10529800012202FA03F3FB81FB89DB439AB27B68A4
:1052A8001A8100BF1437BD465DF8047B704700BF04
:1052B80080B500AF01214FF48040FCF713FF0021B7
:1052C8004FF48040FCF70EFF00BF80BD80B483B070
:1052D80000AF0346FB71044AFB79136000BF0C372B
:1052E800BD465DF8047B70470038014080B485B046
:1052F80000AF03460A46FB711346BB710023FB60EF
:10530800BB7903F003039B000F2202FA03F3FB604F
:10531800164ABB799B08DBB2023352F82320FB689C
:10532800DB431248B9798908C9B21A408B1C40F886
:1053380023200E4ABB799B08DBB2023352F82320A4
:10534800F979BB7903F003039B0001FA03F30748DB
:10535800B9798908C9B21A438B1C40F8232000BFC9
:105368001437BD465DF8047B704700BF0038014024
:1053780080B483B000AF7860044A7B68136000BFD4
:105388000C37BD465DF8047B704700BFDC00274240
:1053980080B483B000AF0346FB71044AFB79136005
:1053A80000BF0C37BD465DF8047B704700042742F8
:1053B80080B483B000AF0023FB71094B1B6A03F470
:1053C8008073002B02D00123FB7101E00023FB71E5
:1053D800FB7918460C37BD465DF8047B704700BF63
:1053E8000038014080B582B000AF78607B682C4AF5
:1053F800934208D101211020FCF774FE00211020EF
:10540800FCF770FE47E07B68264A93420AD10121E7
:105418004FF40030FCF746FE00214FF40030FCF753
:1054280041FE38E07B68204A93420AD101214FF4BB
:105438008020FCF737FE00214FF48020FCF732FE75
:1054480029E07B68194A93420AD101214FF40020D0
:10545800FCF728FE00214FF40020FCF723FE1AE099
:105468007B68134A93420AD101214FF48010FCF75C
:1054780019FE00214FF48010FCF714FE0BE07B6846
:105488000C4A934207D101212020FCF72BFE002172
:105498002020FCF727FE00BF0837BD4680BD00BFAF
:1054A800001001400044004000480040004C00400B
:1054B800005000400014014080B58AB000AF786009
:1054C800396000237B6200233B620023FB610023D9
:1054D800BB617B681B8A9BB27B627B6A23F4405367
:1054E8007B623B68DB881A467B6A13437B627B6A74
:1054F8009AB27B681A827B689B899BB27B627B6AC3
:1055080023F4B05323F00C037B623B689A883B6812
:105518001B8913439AB23B685B8913439BB21A46B3
:105528007B6A13437B627B6A9AB27B689A817B6849
:105538009B8A9BB27B627B6A23F440737B623B68E5
:105548009B891A467B6A13437B627B6A9AB27B68A3
:105558009A8207F108031846FCF79EFB7B68304ADD
:10556800934203D07B682F4A934202D17B693B6206
:1055780001E03B693B627B689B899BB21BB2002BB5
:105588000CDA3A6A13469B0013449A001A443B68A3
:105598001B685B00B2FBF3F3FB610BE03A6A13464E
:1055A8009B0013449A001A443B681B689B00B2FB9B
:1055B800F3F3FB61FB691C4AA2FB03235B091B0194
:1055C8007B627B6A1B09642202FB03F3FA69D31A24
:1055D800BB617B689B899BB21BB2002B0CDABB6951
:1055E800DB003233104AA2FB03235B0903F00703F5
:1055F8007A6A13437B620BE0BB691B0132330A4AA8
:10560800A2FB03235B0903F00F037A6A13437B624F
:105618007B6A9AB27B681A8100BF2837BD4680BD75
:1056280000100140001401401F85EB5180B483B085
:1056380000AF78607B684FF416521A607B680022CE
:105648009A807B680022DA807B6800221A817B6856
:105658000C225A817B6800229A8100BF0C37BD4614
:105668005DF8047B704780B485B000AF786039601E
:105678000023FB607B681B8A9BB2FB60FB6823F4FA
:105688007063FB603B681A883B685B8813439AB277
:105698003B689B8813439AB23B68DB8813439BB2F1
:1056A8001A46FB681343FB60FB689AB27B681A8250
:1056B80000BF1437BD465DF8047B704780B483B0E3
:1056C80000AF78607B6800221A807B6800225A80CD
:1056D8007B6800229A807B680022DA8000BF0C3742
:1056E800BD465DF8047B704780B483B000AF786036
:1056F8000B46FB70FB78002B08D07B689B899BB21C
:1057080043F400539AB27B689A8107E07B689B89CF
:105718009BB223F400539AB27B689A8100BF0C377E
:10572800BD465DF8047B704780B483B000AF7860F5
:105738000B46FB707B681B8B9BB223F0FF039AB26E
:105748007B681A837B681B8B9AB2FB789BB21343E6
:105758009AB27B681A8300BF0C37BD465DF8047B9C
:10576800704780B483B000AF78600B46FB70FB785D
:10577800002B0AD07B689B899BB26FEA43436FEA90
:1057880053439AB27B689A8107E07B689B899BB2F6
:10579800C3F30E039AB27B689A8100BF0C37BD46EB
:1057A8005DF8047B704780B483B000AF78600B4627
:1057B800FB70FB78002B08D07B689B8A9BB243F474
:1057C80000639AB27B689A8207E07B689B8A9BB2E7
:1057D80023F400639AB27B689A8200BF0C37BD46F7
:1057E8005DF8047B704780B483B000AF78600B46E7
:1057F8007B807B88C3F308039AB27B689A8000BFDA
:105808000C37BD465DF8047B704780B483B000AFA9
:1058180078607B689B889BB2C3F308039BB21846E9
:105828000C37BD465DF8047B704780B483B000AF89
:1058380078600B46FB707B681B8A9BB223F00F03D2
:105848009AB27B681A827B681B8A9AB2FB789BB2F1
:1058580013439AB27B681A8200BF0C37BD465DF8C5
:10586800047B704780B483B000AF78600B46FB7050
:10587800FB78002B08D07B689B899BB243F002031E
:105888009AB27B689A8107E07B689B899BB223F078
:1058980002039AB27B689A8100BF0C37BD465DF857
:1058A800047B704780B483B000AF78600B467B8080
:1058B8007B689B899BB223F400639AB27B689A81C8
:1058C8007B689B899AB27B8813439AB27B689A81DA
:1058D80000BF0C37BD465DF8047B704780B483B0C9
:1058E80000AF78600B467B807B681B8A9BB223F0F5
:1058F80020039AB27B681A827B681B8A9AB27B88DB
:1059080013439AB27B681A8200BF0C37BD465DF814
:10591800047B704780B483B000AF78600B46FB709F
:10592800FB78002B08D07B681B8A9BB243F480432A
:105938009AB27B681A8207E07B681B8A9BB223F4C1
:1059480080439AB27B681A8200BF0C37BD465DF867
:10595800047B704780B483B000AF78607B689B8914
:105968009BB243F001039AB27B689A8100BF0C375F
:10597800BD465DF8047B704780B483B000AF7860A3
:105988000B46FB70FB78002B08D07B689B8A9BB288
:1059980043F008039AB27B689A8207E07B689B8A87
:1059A8009BB223F008039AB27B689A8200BF0C3737
:1059B800BD465DF8047B704780B483B000AF786063
:1059C8000B46FB707B681B8B9BB2DBB29AB27B6881
:1059D8001A837B681B8B9AB2FB789BB21B029BB223
:1059E80013439AB27B681A8300BF0C37BD465DF833
:1059F800047B704780B483B000AF78600B46FB70BF
:105A0800FB78002B08D07B689B8A9BB243F020036D
:105A18009AB27B689A8207E07B689B8A9BB223F0E4
:105A280020039AB27B689A8200BF0C37BD465DF8A6
:105A3800047B704780B483B000AF78600B46FB707E
:105A4800FB78002B08D07B689B8A9BB243F010033D
:105A58009AB27B689A8207E07B689B8A9BB223F0A4
:105A680010039AB27B689A8200BF0C37BD465DF876
:105A7800047B704780B483B000AF78600B467B80AE
:105A88007B689B8A9BB223F004039AB27B689A8254
:105A98007B689B8A9AB27B8813439AB27B689A8206
:105AA80000BF0C37BD465DF8047B704780B483B0F7
:105AB80000AF78600B46FB70FB78002B08D07B6842
:105AC8009B8A9BB243F002039AB27B689A8207E0F2
