:020000040800F2
:1000000000000220FDBB070845BC070845BC0708E7
:1000100045BC070845BC070845BC070800000000B0
:1000200000000000000000000000000045BC0708C0
:1000300045BC07080000000045BC07082D12000859
:1000400045BC070845BC070845BC070845BC070870
:1000500045BC070845BC070845BC070845BC070860
:1000600045BC070845BC070845BC070845BC070850
:1000700045BC070845BC070845BC070845BC070840
:1000800045BC070845BC070845BC070845BC070830
:1000900045BC070845BC070845BC0708ED16000825
:1000A00045BC070845BC070845BC070845BC070810
:1000B00045BC070845BC070845BC070845BC070800
:1000C00045BC070845BC070845BC070845BC0708F0
:1000D000D94100084914000845BC070845BC070879
:1000E00045BC070845BC070845BC070845BC0708D0
:1000F00045BC070845BC070845BC070845BC0708C0
:1001000045BC070845BC070845BC070845BC0708AF
:1001100045BC070845BC070845BC070845BC07089F
:1001200045BC070845BC070845BC070845BC07088F
:1001300045BC070845BC070845BC070845BC07087F
:1001400045BC070845BC070845BC070845BC07086F
:1001500045BC070845BC070845BC070845BC07085F
:1001600045BC070845BC070845BC070845BC07084F
:1001700045BC070845BC070845BC070845BC07083F
:0801800045BC070845BC070857
:1001880080B582B000AF786039607B68022B01DCF3
:10019800002317E000F078FE08220C490C487BF099
:1001A8006FFC0C4B002283F8CA2C0A4B4FF48002D8
:1001B800C3F8D02F74F0FFFF0346002B01D174F071
:1001C800F5FF002318460837BD4680BD0000002013
:1001D800C1130020F006002080B584B000AF0346AC
:1001E800FB71FB799C2202FB03F303F536730D4A7E
:1001F80013440833FB60FB68B3F90430002B09D1C2
:10020800094875F047FDFB79C3221946074800F0F5
:1002180011FA02E0F86800F06BFC00BF1037BD4629
:1002280080BD00BFF0060020010300083902000865
:1002380080B586B000AF0346FB71FB799C2202FBB8
:1002480003F303F53673284A134408333B6112213C
:10025800386900F0E9FDF8600023BB60FB68002204
:100268001A80FB680222DA73FB6804221A74FB689E
:1002780001229A73FB6802221A81FB680A225A73C8
:10028800FB680A221A733B6911229A700A2138699D
:1002980000F0CEFCB86000237B6111E07B695A4214
:1002A80003F01F0302F01F0258BF5342DAB27B6902
:1002B800B9680B443032D2B21A707B6901337B6162
:1002C8007B69092BEADD3B69084A9B1A9B10084A9F
:1002D80002FB03F3DBB21946064800F045F900BFFC
:1002E8001837BD4680BD00BFF0060020D0090020A9
:1002F800976FF9966532070880B584B000AF03465A
:10030800FB71FB799C2202FB03F303F536730E4A5B
:1003180013440833FB60FB680833FA6852781344C7
:10032800184673F039FA0346DBB21946F86800F04C
:1003380049FDB860FB79C3221946044800F07AF9F0
:1003480000BF1037BD4680BDF00600203902000806
:1003580080B584B000AF0023BB810023FB7304F099
:100368005BF822E00123FB735E4B93F84C32DBB25F
:10037800002B04D05C4B93F8A53C072B27D9BB680E
:100388001B68BA68127910469847574BD3F88830DB
:10039800013B554AC2F88830534BD3F880300133BB
:1003A80003F00F03504AC2F880304F4BD3F888301F
:1003B800002B06D04C4BD3F88030DB004A4A13445C
:1003C80000E00023BB60BB68002BCBD100E000BF7E
:1003D800454BD3F83832002B56D0424BB3F846324F
:1003E800BB813FE00123FB733E4B93F84C32DBB2F9
:1003F800002B04D03C4B93F8A53C072B43D93A4B30
:10040800D3F838327B60384BD3F83832002B1AD007
:10041800354BD3F838329B68002B08D0324BD3F8D1
:100428003822314BD3F838329B68D268DA602E4BC9
:10043800D3F838320022DA602B4BD3F838329B6875
:10044800294AC2F838327B681B687A6812791046E4
:100458009847254BD3F83C227B689A60224A7B68F0
:10046800C2F83C32204BD3F838327B607B68002BD3
:100478000AD07B68DB88BA89D31A9BB247F6FE722A
:100488009342AFD900E000BF174BD3F83832002BA6
:100498001DD0154BD3F83832DA88BB89D31A9BB2F2
:1004A80047F6FE72934207D80F4BD3F83832DA88F2
:1004B800BB89D31A9BB206E00B4BD3F83832DB88E2
:1004C800BA89D31A9BB2184600F0BCFD01E000F0CF
:1004D80009FEFB7B002B7FF43EAF00BF1037BD4603
:1004E80080BD00BFA0040020F006002080B485B0C5
:1004F80000AF78600B46FB700023FB60184BD3F805
:10050800B430032B06D8164BD3F8B030DB00154AAD
:10051800134400E00023BB60BB68002B16D0BB6807
:100528007A681A60BB68FA781A710D4BD3F8B43040
:1005380001330B4AC2F8B430094BD3F8B030013359
:1005480003F00303064AC2F8B03002E06FF01C0360
:10055800FB60FB6818461437BD465DF8047B70479E
:10056800F00600207C07002080B485B000AF7860DA
:100578000B46FB700023FB60184BD3F888300F2B19
:1005880006D8164BD3F88430DB00144A134400E035
:100598000023BB60BB68002B16D0BB687A681A6062
:1005A800BB68FA781A710D4BD3F8883001330B4ABF
:1005B800C2F88830094BD3F88430013303F00F03B5
:1005C800064AC2F8843002E06FF01C03FB60FB6847
:1005D80018461437BD465DF8047B7047F0060020C6
:1005E80080B483B000AF7860114BD3F838227B68B1
:1005F8009A600F4BD3F83832002B0BD00C4BD3F842
:100608003832DA687B68DA60094BD3F838327A68AE
:10061800DA6002E07B687A68DA60054A7B68C2F8CB
:10062800383200BF0C37BD465DF8047B704700BF09
:10063800F006002080B586B000AF78600B46FB70EE
:1006480013463B8000237B617B4BD3F83C32002B65
:100658000BD0794BD3F83C323B61774BD3F83C3223
:100668009B68754AC2F83C3201E000233B613B6954
:10067800002B00F0D8803B697A681A603B69FA78E9
:100688001A716E4BB3F846327B817A893B881344E2
:100698009AB23B69DA80684BD3F83832002B0BD01A
:1006A800654BD3F83832DA883B69DB88D31A9BB2BA
:1006B80047F6FE72934203D83869FFF791FF84E04A
:1006C8005D4BD3F83832FB6002E0FB689B68FB6047
:1006D800FB68002B09D03B69DA88FB68DB88D31AF2
:1006E8009BB247F6FE729342EFD9FB68002B4BD0C2
:1006F800FB68DB68FB60FB68002B41D0FB68002BC4
:1007080063D04D4BD3F83832002B04D04A4BD3F882
:100718003832DB6800E00023FA68934221D13B6954
:1007280000229A60444BD3F83832002B11D0424B48
:10073800D3F83832DA683B69DA603F4BD3F838329D
:10074800DB683A699A603C4BD3F838323A69DA6028
:100758003BE03B693A69DA60374A3B69C2F83832AC
:1007680033E0FB689A683B699A603B69FA68DA602B
:10077800FB689B683A69DA60FB683A699A6024E02A
:100788003869FFF72DFF20E03B6900229A602A4B69
:10079800D3F83832002B11D0274BD3F83832DA6827
:1007A8003B69DA60244BD3F83832DB683A699A60DF
:1007B800214BD3F838323A69DA6006E03B693A6986
:1007C800DA601D4A3B69C2F838321B4BD3F838321D
:1007D800FB601A4BB3F846327B81FB68DB887A8969
:1007E8009A4223D0FB68DA887B89D31A9BB247F6F2
:1007F800FE7293421AD8FB68DA887B89D31A9BB2B7
:1008080047F6FE72934205D8FB68DA887B89D31ACB
:100818009BB204E0FB68DB887A89D31A9BB218463E
:1008280000F010FC02E06FF01C037B617B69184646
:100838001837BD4680BD00BFF0060020A004002088
:1008480080B487B000AF78600B46FB706FF01B0375
:100858007B612E4BD3F838323B614AE03B699B6899
:10086800FB603B691B687A689A4240D1FB78FF2B92
:1008780007D0FB78FE2B04D03B691B79FA789A42A3
:1008880035D13B69DB68002B23D03B699B68002B83
:1008980005D03B699B683A69D268DA6005E01B4B72
:1008A800D3F838323A69D268DA60184BD3F838325C
:1008B8003A699A4205D13B699B68144AC2F83832B2
:1008C80004E03B69DB683A6992689A603B690022F8
:1008D800DA600E4BD3F83C223B699A600B4A3B69BD
:1008E800C2F83C3200237B61FB78FE2B05D1FB6804
:1008F8003B613B69002BB1D100E000BF7B69184622
:100908001C37BD465DF8047B704700BFF006002029
:1009180080B584B000AF0346FB710023FB60FB7910
:100928001D4A134493F8A43C072B26D81A4BD3F836
:10093800A03CFB60FB68002B1FD0FB681B68164AB5
:10094800C2F8A03CFB680822002118467BF054FA44
:10095800FB79114A1A4492F8A42C0132D1B20E4AFA
:1009680013440A4683F8A42CFB7903F00103D9B297
:10097800FA68937961F300039371074B93F8A42CF9
:10098800064B1A70044B93F8A52C054B1A70FB689C
:1009980018461037BD4680BDF00600209D04002093
:1009A8009C04002080B500AF0120FFF7B1FF03468B
:1009B800184680BD80B500AF0020FFF7A9FF0346A9
:1009C800184680BD80B584B000AF78600B46FB70D8
:1009D800FB781846FFF79CFFB860BB68002B0DD06A
:1009E800BB68334A9B1A9B10324A02FB03F3DBB203
:1009F80019467868FFF7B8FD034655E02E4BD3F843
:100A08005032002B0BD02C4BD3F85032FB602A4BC2
:100A1800D3F850325B68284AC2F8503201E000230C
:100A2800FB60FB68002B3BD0FB687A681A60FB7898
:100A3800002B1AD0FB6800225A601F4BD3F84432AF
:100A4800002B09D01C4BD3F84432FA685A601A4A72
:100A5800FB68C2F8443226E0174AFB68C2F8403205
:100A6800154AFB68C2F844321DE0FB6800225A6050
:100A7800114BD3F84C32002B09D00F4BD3F84C3222
:100A8800FA685A600C4AFB68C2F84C320BE00A4A12
:100A9800FB68C2F84832084AFB68C2F84C3202E0E8
:100AA8004FF0FF3300E0002318461037BD4680BDE5
:100AB800D0090020976FF996F006002080B582B023
:100AC80000AF786001217868FFF77CFF034618467D
:100AD8000837BD4680BD80B582B000AF7860002180
:100AE8007868FFF76FFF034618460837BD4680BD94
:100AF80090B585B000AF78600023FB607B689B7978
:100B0800C3F30003DBB2454A1A4492F8A42C013A15
:100B1800D1B2424A13440A4683F8A42C3F4B93F8B7
:100B2800A42C3F4B1A703D4B93F8A52C3D4B1A70E3
:100B38003A4BD3F8A02C7B681A60384A7B68C2F815
:100B4800A03C7B689B7903F00103DBB2002B21D02A
:100B5800324B93F8143D002B38D1304BD3F8403248
:100B6800002B14D02D4BD3F84032FB602B4BD3F81D
:100B780040325B68294AC2F84032284BD3F84032E9
:100B8800002B23D1254B0022C3F844221EE000236A
:100B9800FB601BE0214BD3F84832002B14D01F4BCD
:100BA800D3F84832FB601D4BD3F848325B681B4AC8
:100BB800C2F84832194BD3F84832002B06D1174BEC
:100BC8000022C3F84C2201E00023FB60FB68002BE5
:100BD8001FD0FB681C687B689B79C3F30003DBB2FA
:100BE8001846FFF795FE03461A460F4BD31A9B107B
:100BF8000E4A02FB03F3DBB219462046FFF7B4FCAA
:100C0800064BD3F85022FB685A60044AFB68C2F8C6
:100C1800503200BF1437BD4690BD00BFF00600201B
:100C28009D0400209C040020D0090020976FF996AD
:100C380080B584B000AF78600B46FB707B689B7909
:100C4800C3F30003DBB2FB737B680822002118465C
:100C58007BF0D2F8FB7B03F00103D9B27A68937971
:100C680061F3000393717B68FA781A70FB78C3F11B
:100C78009403DA0F13445B10DAB27B685A707B680E
:100C880008337A685278134418461037BD4680BD39
:100C980080B584B000AF78600B46FB707B685B78EA
:100CA800FA789A4215D97B6808337A6852781344DF
:100CB800FB60FB787A6852789B1A1A46FB6898188A
:100CC8007B681B781A46F9687BF032F87B68FA78FB
:100CD8005A707B681A78FB781344DAB27B681A700A
:100CE8007B685A78FB78D31ADAB27B685A707B68CB
:100CF80008337A685278134418461037BD4680BDC9
:100D080080B485B000AF78600B46FB707B6803F158
:100D180008027B685B7819467B681B780B44134490
:100D2800FB607B681A78FB781344DAB27B681A7028
:100D3800FB6818461437BD465DF8047B704780B5DC
:100D480086B000AFF860B9601346FB71FB685B784A
:100D58001A46FB681B781344C3F19402FB799A4244
:100D680022DAFA79FB685B781946FB681B780B4432
:100D7800C3F19403D31A7B61FB680833FA6852788D
:100D880013443B617B695B423A69D018FB681B7866
:100D98001A4639697AF0CCFFFB685A787B69DBB26E
:100DA800D31ADAB2FB685A70FB791946F86800F072
:100DB8003BF8FB791A46B9687AF062FE00BF18372B
:100DC800BD4680BD80B483B000AF78600B46FB7031
:100DD8007B681A78FB78D31ADAB27B681A707B685A
:100DE8005A78FB781344DAB27B685A707B68083308
:100DF8007A685278134418460C37BD465DF8047B70
:100E0800704780B483B000AF78600B46FB707B6896
:100E18001A78FB78D31ADAB27B681A7000BF0C37DD
:100E2800BD465DF8047B704780B483B000AF78603E
:100E38000B46FB707B680833FA78C2F194021344BE
:100E480018460C37BD465DF8047B704780B584B002
:100E580000AF78607B689B79C3F30003DBB2FB7358
:100E68007B680822002118467AF0C6FFFB7B03F056
:100E78000103D9B27A68937961F30003937100BFD3
:100E88001037BD4680BD00BF80B500AF41F60822CF
:100E9800002112487AF0B0FF4FF414720021104874
:100EA8007AF0AAFF00F0A0F900F0AEFA00F09CFB7F
:100EB8000C4800F025F900F03DF900F083F800F047
:100EC80053F800F075FC03F023FA6EF027FD72F07A
:100ED80021F974F021F900BF80BD00BFF0060020A1
:100EE800A004002054BF070880B582B000AF1D4B96
:100EF800B3F8C83C002B09D11A4B93F8CD3F002B0F
:100F080004D1184B4FF6FF72A3F8C82C00237B605E
:100F18000FE07B68DBB20533D8B2124A7B68134412
:100F280003F6D1431B78194605F022F87B68013394
:100F38007B607B68072BECD90A4BB3F8C83CDBB263
:100F48001946012005F014F8064BB3F8C83C1B0AF3
:100F58009BB2DBB21946022005F00AF800BF083739
:100F6800BD4680BDF006002080B483B000AF134BAF
:100F7800D3F8A03C002B1BD1104B114AC3F8A02C6E
:100F88000E4BD3F8A03C3B600F23FB7107E03B6896
:100F980003F19C023B681A603B689C333B60FB7919
:100FA8005A1EFA71002BF2D13B6800221A6000E049
:100FB80000BF0C37BD465DF8047B7047F006002083
:100FC800D009002080B483B000AF0023FB7113E088
:100FD800FB791B4AD2F83C2219490C331B010B44FC
:100FE8001A60FB791B01B833154A1344144AC2F836
:100FF8003C32FB790133FB71FB790F2BE8D90023D5
:10100800FB7113E0FB790E4AD2F850220C493733B2
:10101800DB000B445A60FB793733DB00084A134482
:10102800074AC2F85032FB790133FB71FB790F2B69
:10103800E8D900BF0C37BD465DF8047B704700BF98
:10104800F006002080B485B000AF0346FB80234B38
:10105800B3F84632FB81FA89FB881344BB8172B628
:101068001E4B93F84832DBB2002B15D01B4BB3F85C
:1010780044329BB2BA89D31A9BB247F6FE729342A6
:101088000AD8164BB3F844329AB2FB89D31A9BB2EA
:1010980047F6FE72934207D9104ABB89A2F8443238
:1010A8000E4B012283F8482262B60D4B1B6803F4ED
:1010B8008033002B0BD10A4B1B68094A43F001030C
:1010C8001360074B1B68064A43F00203136000BF16
:1010D8001437BD465DF8047B704700BFA0040020AC
:1010E80010E000E080B400AF044B002283F84822EF
:1010F80000BFBD465DF8047B704700BFA004002018
:1011080080B483B000AF7860094B4FF48032C3F8E5
:10111800D02F074B012283F8CE2F054B032283F8EB
:10112800F82D00BF0C37BD465DF8047B704700BF43
:10113800F006002080B400AF00BFBD465DF8047B18
:10114800704780B400AF00BFBD465DF8047B7047B0
:1011580080B483B000AF03463960FB7197F907305C
:10116800002B0BDA3B68DAB20C49FB7903F00F036A
:10117800043B1201D2B20B441A7609E03B68DAB29A
:10118800074997F907301201D2B20B4483F80023BC
:1011980000BF0C37BD465DF8047B704700ED00E0EA
:1011A80000E100E080B582B000AF78607B68B3F101
:1011B800807F01D3012311E07B6823F07F43094A34
:1011C800013B53600F214FF0FF30FFF7C1FF054B84
:1011D80000229A60034B07221A600023184608373A
:1011E800BD4680BD10E000E080B500AF0B4B1B682A
:1011F8000B4AA2FB03235A0D13461B019B1A9B02A1
:101208001846FFF7CFFF0346002B00D0FEE76FF02C
:10121800040000F0F1FC00BF80BD00BF0800002002
:1012280083DE1B4380B483B000AF214BB3F8463252
:101238009BB201339AB21E4BA3F846221C4BB3F85B
:101248004632FB801A4BB3F84432BB80184B93F8F4
:101258004832DBB2002B07D0FA88BB88D31A9BB27E
:1012680047F6FE72934211D8124B1B68114A23F0BD
:10127800020313600E4BB3F846329AB20C4BA3F834
:1012880044220B4B002283F848220BE0094B1B68D1
:10129800084A43F001031360064B1B68054A43F0F4
:1012A8000203136000BF0C37BD465DF8047B70472E
:1012B800A004002010E000E080B483B000AF034633
:1012C800FB71FB7903F01F03012202FA03F1064ABE
:1012D80097F907305B0942F8231000BF0C37BD4669
:1012E8005DF8047B704700BF00E100E080B483B084
:1012F80000AF0346FB71FB7903F01F03012202FADA
:1013080003F1064A97F907305B09203342F82310A6
:1013180000BF0C37BD465DF8047B704700E100E074
:1013280080B582B000AF0121022001F0BBF9012194
:10133800022001F0B7F907220621154800F077FED0
:1013480007220721124800F072FE40233B60022367
:101358003B710023BB710123FB7102237B713B4668
:1013680019460B4800F0F4FC80233B6002233B71D4
:101378000023BB710123FB7102237B713B46194695
:10138800034800F0E5FC00BF0837BD4680BD00BF3C
:101398000004024080B584B000AF0121102001F0A4
:1013A80001FA4FF4E1333B600023BB800023FB804C
:1013B80000233B810023BB810C237B813B461946DC
:1013C800054802F0FDF80121034802F011FA00BFB8
:1013D8001037BD4680BD00BF0010014080B584B005
:1013E80000AF0346FB7125233B7300237B73002367
:1013F800BB73FB79FB7307F10C03184600F062FB23
:1014080000BF1037BD4680BD80B500AFFFF788FF2D
:101418000120FFF7E3FFFFF7BDFF2520FFF74CFF93
:10142800002240F22551054802F008FC002240F253
:101438002771024802F002FC00BF80BD0010014085
:1014480080B582B000AF40F225511F4802F06BFC16
:1014580040F227711C4802F066FC0346002B2ED090
:101468001A4B1B6B002B04D0184B9B6A184A134469
:1014780000E000237B607B68002B17D07B681B781B
:10148800DBB29BB21946104802F031FA0F4B012229
:101498001A740E4B1B6B013B0C4A13630B4B9B6A74
:1014A800013303F00303094A936208E0074B002263
:1014B8001A74002240F22771034802F0BFFB00BFF4
:1014C8000837BD4680BD00BF00100140A0040020C1
:1014D800C404002080B584B000AF7860396000BFD4
:1014E800254B1B7CDBB2002BFAD13DE02520FFF712
:1014F800FDFE214B1B6B032B06D92520FFF7DCFED5
:101508001D4B00221A742FE01B4BDB6A7A68117896
:10151800194A13440A4683F82420174B1B6B0133DE
:10152800154A1363144BDB6A013303F00303124AB1
:10153800D3627B6801337B603B68013B3B600E4BA9
:101548001B7CDBB2002B0CBF01230023DBB2FB604A
:101558002520FFF7B1FEFB68002B05D0012240F2E1
:101568002771064802F06AFB3B68002BBED100BF1A
:101578001037BD4680BD00BFA00400200010014008
:1015880080B483B000AF0346FB71FB7903F01F03FF
:10159800012202FA03F1064A97F907305B0942F87B
:1015A800231000BF0C37BD465DF8047B704700BFB1
:1015B80000E100E080B483B000AF0346FB71FB7923
:1015C80003F01F03012202FA03F1064A97F90730D4
:1015D8005B09203342F8231000BF0C37BD465DF885
:1015E800047B704700E100E080B586B000AF0121C0
:1015F800042001F057F80121082001F053F80121D7
:10160800012001F04FF801214FF4804001F0CAF8A1
:101618004FF400533B6101233B750023BB75002346
:10162800FB7500237B7507F1100319462A4800F063
:101638008FFB01233B6100233B750023BB7502230D
:10164800FB7502237B7507F110031946234800F048
:101658007FFB4FF400433B6101233B750023BB75BF
:101668000023FB7500237B7507F1100319461C48FE
:1016780000F06EFB4FF480433B6101233B75002370
:10168800BB750023FB7500237B7507F11003194612
:10169800134800F05DFB0021002001F0ABFE0123A0
:1016A800BB6000233B730C237B730123BB7307F1DF
:1016B8000803184602F0CAFB06233B7101237B711D
:1016C8000123BB710123FB713B1D184600F0FAF999
:1016D80000BF1837BD4680BD000802400000024028
:1016E800000C024080B500AF1720FFF763FF0B4BDB
:1016F8005B6903F48073002B0BD0084B4FF48072A6
:101708005A61074B012283F84C22054B012283F8CA
:101718004C221720FFF734FF00BF80BD003C01407A
:10172800A004002080B586B000AF0121042000F09D
:10173800B9FF0121082000F0B5FF01214FF48040D6
:1017480001F030F84FF48073BB6000233B73002333
:10175800BB730123FB7302237B7307F1080319464C
:10176800124800F0F5FA0821032001F043FE4FF477
:1017780080733B6100233B750C237B750123BB758C
:1017880007F11003184602F061FB17233B71002391
:101798007B710023BB710123FB713B1D184600F0D0
:1017A80091F900BF1837BD4680BD00BF000C02404C
:1017B80080B500AF02F0EDFCFFF7B4FF2CF0ACF9F8
:1017C80000BF80BD80B500AF00BF104B93F840321A
:1017D800DBB2012BF9D00D4B012283F840220B4BD1
:1017E800002283F83E22094B002283F83F2201227F
:1017F8007121074801F02CFD00BF044B93F84032DB
:10180800DBB2012BF9D000BF80BD00BFA0040020CF
:101818000038004080B483B000AF786000BF0C3758
:10182800BD465DF8047B704780B483B000AF786034
:10183800396000BF0C37BD465DF8047B704700BFB8
:1018480080B500AF164BD3F88830154A43F47003BF
:10185800C2F88830134B1B68124A43F00103136027
:10186800104B00229A600F4B1B680E4A23F08473BA
:1018780023F4803313600B4B0B4A5A60094B1B68E7
:10188800084A23F480231360064B0022DA6000F034
:1018980089F8034B4FF000629A6000BF80BD00BF1B
:1018A80000ED00E0003802401030002480B487B01A
:1018B80000AF00233B6100237B610223FB60002310
:1018C800BB6002237B60324B9B6803F00C033B61D7
:1018D8003B69042B07D0082B09D0002B3DD12D4B99
:1018E8002D4A1A603DE02B4B2C4A1A6039E0284BF0
:1018F8005B689B0D03F00103BB60254B5B6803F03D
:101908003F037B60BB68002B0CD0244A7B68B2FB8A
:10191800F3F31F4A52689209C2F3080202FB03F369
:101928007B610BE01C4A7B68B2FBF3F3184A5268F0
:101938009209C2F3080202FB03F37B61144B5B6854
:101948001B0C03F0030301335B00FB607A69FB683F
:10195800B2FBF3F30F4A136003E00E4B0E4A1A6012
:1019680000BF0B4B9B681B0903F00F030C4AD35CA9
:10197800DBB23B61074B1A683B6922FA03F3054A5D
:10198800136000BF1C37BD465DF8047B704700BF7D
:1019980000380240080000200024F400001BB700B3
:1019A8000C00002080B483B000AF00237B600023CC
:1019B8003B60364B1B68354A43F480331360334B26
:1019C8001B6803F400333B607B6801337B603B6832
:1019D800002B03D17B68B3F5A06FF0D12B4B1B68AC
:1019E80003F40033002B02D001233B6001E0002305
:1019F8003B603B68012B42D1244B1B6C234A43F0CC
:101A080080531364224B1B68214A43F480431360BC
:101A18001E4B1E4A9B6893601C4B9B681B4A43F4F1
:101A280000439360194B9B68184A43F4A053936092
:101A3800164B184A5A60154B1B68144A43F08073BA
:101A4800136000BF114B1B6803F00073002BF9D023
:101A5800114B40F205621A600C4B9B680B4A23F04D
:101A680003039360094B9B68084A43F002039360A1
:101A780000BF064B9B6803F00C03082BF9D100BF8D
:101A88000C37BD465DF8047B704700BF0038024044
:101A98000070004008544007003C024080B483B006
:101AA80000AF7860064A7B6843F0BF6343F40033B5
:101AB800D36000BF0C37BD465DF8047B704700BF9C
:101AC80000ED00E080B485B000AF78600023FB73C0
:101AD8000023BB730F237B737B68DB78002B39D023
:101AE800274BDB68DB431B0ADBB203F00703FB73FE
:101AF800FB7BC3F10403BB737A7BFB7B42FA03F3E2
:101B08007B737B685B781A46BB7B02FA03F3FB7333
:101B18007B689A787B7B1340DAB2FB7B1343FB73B9
:101B2800FB7B1B01FB73174A7B681B781344FA7B0A
:101B380083F800237B681B7803F01F0311497A6838
:101B480012785209D2B21046012202FA03F341F880
:101B580020300FE07B681B7803F01F0309497A687F
:101B680012785209D2B2104601229A4000F120039D
:101B780041F8232000BF1437BD465DF8047B704749
:101B880000ED00E000E100E080B483B000AF7860D1
:101B980039603B6823F0604323F07F0304497A6887
:101BA80013438B6000BF0C37BD465DF8047B70475C
:101BB80000ED00E080B483B000AF03460A46FB7135
:101BC8001346BB71BB79002B06D00A4B1A69FB7907
:101BD800084913430B6106E0064B1A69FB79DB439E
:101BE800044913400B6100BF0C37BD465DF8047B08
:101BF800704700BF00ED00E080B483B000AF7860AC
:101C08007B68042B06D1094B1B68084A43F0040380
:101C1800136005E0054B1B68044A23F004031360B6
:101C280000BF0C37BD465DF8047B704710E000E04C
:101C380080B582B000AF78607B683C4A934208D197
:101C48000121012000F0CEFD0021012000F0CAFD95
:101C580068E07B68364A934208D10121022000F0EF
:101C6800C1FD0021022000F0BDFD5BE07B68314A28
:101C7800934208D10121042000F0B4FD0021042082
:101C880000F0B0FD4EE07B682B4A934208D1012159
:101C9800082000F0A7FD0021082000F0A3FD41E086
:101CA8007B68264A934208D10121102000F09AFD52
:101CB8000021102000F096FD34E07B68204A934212
:101CC80008D10121202000F08DFD0021202000F006
:101CD80089FD27E07B681B4A934208D101214020F7
:101CE80000F080FD0021402000F07CFD1AE07B68B8
:101CF800154A934208D10121802000F073FD00218C
:101D0800802000F06FFD0DE07B68104A934209D1F6
:101D180001214FF4807000F065FD00214FF48070C0
:101D280000F060FD00BF0837BD4680BD00000240DE
:101D38000004024000080240000C0240001002406B
:101D48000014024000180240001C0240002002401B
:101D580080B487B000AF7860396000237B610023CE
:101D68003B610023FB6000237B6176E001227B69F5
:101D780002FA03F33B613B681B683A691340FB6056
:101D8800FA683B699A4265D17B681A687B695B008F
:101D9800032101FA03F3DB431A407B681A607B686E
:101DA8001A683B681B7919467B695B0001FA03F3E3
:101DB8001A437B681A603B681B79012B03D03B6888
:101DC8001B79022B2ED17B689A687B695B00032103
:101DD80001FA03F3DB431A407B689A607B689A68D0
:101DE8003B685B7919467B695B0001FA03F31A4388
:101DF8007B689A607B685A687B699BB219460123A5
:101E08008B40DB431A407B685A607B685B683A68A2
:101E1800927911467A6992B201FA02F292B21A43A1
:101E28007B685A607B68DA687B699BB25B00032138
:101E380001FA03F3DB431A407B68DA607B68DA68EF
:101E48003B68DB7919467B695B0001FA03F31A43A7
:101E58007B68DA607B6901337B617B690F2B85D9ED
:101E680000BF1C37BD465DF8047B704780B483B063
:101E780000AF78607B684FF6FF721A607B680022BB
:101E88001A717B6800225A717B6800229A717B68FC
:101E98000022DA7100BF0C37BD465DF8047B70473D
:101EA80080B485B000AF78600B467B804FF48033F8
:101EB800FB607A88FB681343FB60FA687B68DA6129
:101EC8007A887B68DA61FA687B68DA617B68DB6943
:101ED800FB607B68DB69FB6000BF1437BD465DF8BB
:101EE800047B704780B485B000AF78600B467B8078
:101EF8000023FB737B681A697B881340002B02D090
:101F08000123FB7301E00023FB73FB7B18461437A6
:101F1800BD465DF8047B704780B483B000AF78603D
:101F28007B681B699BB218460C37BD465DF8047B7D
:101F3800704780B485B000AF78600B467B80002383
:101F4800FB737B685A697B881340002B02D00123FE
:101F5800FB7301E00023FB73FB7B18461437BD4677
:101F68005DF8047B704780B483B000AF78607B680D
:101F78005B699BB218460C37BD465DF8047B704719
:101F880080B483B000AF78600B467B807B687A882A
:101F98001A8300BF0C37BD465DF8047B704780B4D8
:101FA80083B000AF78600B467B807B687A885A8361
:101FB80000BF0C37BD465DF8047B704780B483B022
:101FC80000AF78600B467B8013467B707B78002BD4
:101FD80003D07B687A881A8302E07B687A885A8300
:101FE80000BF0C37BD465DF8047B704780B483B0F2
:101FF80000AF78600B467B807A887B685A6100BFA7
:102008000C37BD465DF8047B704780B483B000AFE1
:1020180078600B467B807B685A697B885A407B686E
:102028005A6100BF0C37BD465DF8047B704780B429
:1020380085B000AF78600B467B8013467B70002329
:10204800FB600023BB607A787B8803F007039B0062
:1020580002FA03F3FB607B88DB089BB21A467B68B5
:10206800083253F822207B8803F007039B000F21D6
:1020780001FA03F3DB437988C90889B2084602EA02
:1020880003017B6800F1080243F822107B88DB0813
:102098009BB21A467B68083253F82230FA68134319
:1020A800BB607B88DB089BB21A467B680832B9683C
:1020B80043F8221000BF1437BD465DF8047B704713
:1020C80080B400AF104B1B680F4A43F00103136044
:1020D8000D4B00229A600C4B1B680B4A23F084734B
:1020E80023F480331360084B084A5A60064B1B6878
:1020F800054A23F480231360034B0022DA6000BFF3
:10210800BD465DF8047B704700380240103000245B
:1021180080B483B000AF0346FB71064B00221A70EF
:10212800044AFB79137000BF0C37BD465DF8047B89
:10213800704700BF0238024080B582B000AF00236C
:102148003B600023FB710023BB71312000F0B0FC21
:102158000346BB713B6801333B603B68B3F5A06F36
:1021680002D0BB79002BF0D0312000F0A1FC03464F
:10217800002B02D00123FB7101E00023FB71FB79E6
:1021880018460837BD4680BD80B485B000AF034609
:10219800FB710023FB600A4B1B68FB60FB6823F0A4
:1021A800F803FB60FB79DB00FA681343FB60044A21
:1021B800FB68136000BF1437BD465DF8047B7047A9
:1021C8000038024080B483B000AF0346FB71044A74
:1021D800FB79136000BF0C37BD465DF8047B704780
:1021E8000000474280B483B000AF0346FB710D4B3B
:1021F80000221A700B4B00221A70FB79012B02D0B7
:10220800042B04D007E0074B01221A7003E0054BAA
:1022180005221A7000BF00BF0C37BD465DF8047B6D
:10222800704700BF7038024080B483B000AF0346E7
:10223800FB71044AFB79136000BF0C37BD465DF89B
:10224800047B7047800E474280B485B000AFF860C9
:10225800B9607A603B607B689A01BB681A433B6847
:102268005B08013B1B041A43FB681A43BB691B0646
:10227800044913434B6000BF1437BD465DF8047B27
:10228800704700BF0038024080B483B000AF0346F7
:10229800FB71044AFB79136000BF0C37BD465DF83B
:1022A800047B70476000474280B483B000AF786019
:1022B80039607B689A013B681B0705491343C1F8DD
:1022C800843000BF0C37BD465DF8047B704700BF03
:1022D8000038024080B483B000AF0346FB71044A63
:1022E800FB79136000BF0C37BD465DF8047B70476F
:1022F8006800474280B483B000AF0346FB71044ACC
:10230800FB79136000BF0C37BD465DF8047B70474E
:102318004C00474280B485B000AF78603960002334
:10232800FB600B4B9B68FB60FB6823F0EC63FB6076
:102338007A683B681343FA681343FB60044AFB68F6
:10234800936000BF1437BD465DF8047B704700BF3B
:102358000038024080B485B000AF7860396000234F
:10236800FB600B4B9B68FB60FB6823F07843FB60CA
:102378007A683B681343FA681343FB60044AFB68B6
:10238800936000BF1437BD465DF8047B704700BFFB
:102398000038024080B485B000AF78600023FB604D
:1023A800094B9B68FB60FB6823F00303FB60FA683A
:1023B8007B681343FB60044AFB68936000BF1437D3
:1023C800BD465DF8047B70470038024080B400AF1A
:1023D800054B9B68DBB203F00C03DBB21846BD4625
:1023E8005DF8047B704700BF0038024080B485B0B8
:1023F80000AF78600023FB60094B9B68FB60FB68BB
:1024080023F0F003FB60FA687B681343FB60044A1F
:10241800FB68936000BF1437BD465DF8047B7047C6
:102428000038024080B485B000AF78600023FB60BC
:10243800094B9B68FB60FB6823F4E053FB60FA6878
:102448007B681343FB60044AFB68936000BF143742
:10245800BD465DF8047B70470038024080B485B003
:1024680000AF78600023FB600A4B9B68FB60FB6849
:1024780023F46043FB607B68DB00FA681343FB606E
:10248800044AFB68936000BF1437BD465DF8047BBF
:10249800704700BF0038024080B489B000AF786050
:1024A8000023BB6100237B610023FB6102233B61A6
:1024B8000023FB600223BB60474B9B6803F00C03BF
:1024C800BB61BB69042B07D0082B09D0002B3DD179
:1024D8007B68424A1A603DE07B68414A1A6039E0ED
:1024E8003D4B5B689B0D03F00103FB603A4B5B6857
:1024F80003F03F03BB60FB68002B0CD0384ABB6875
:10250800B2FBF3F3344A52689209C2F3080202FBA1
:1025180003F3FB610BE0314ABB68B2FBF3F32E4ACD
:1025280052689209C2F3080202FB03F3FB612A4BCB
:102538005B681B0C03F0030301335B003B61FA6922
:102548003B69B2FBF3F27B681A6003E07B68234ABD
:102558001A6000BF204B9B6803F0F003BB61BB69A6
:102568001B09BB611F4ABB6913441B78DBB27B6143
:102578007B681A687B69DA407B685A60164B9B68EF
:1025880003F4E053BB61BB699B0ABB61154ABB6995
:1025980013441B78DBB27B617B685A687B69DA403D
:1025A8007B689A600C4B9B6803F46043BB61BB6912
:1025B8005B0BBB610B4ABB6913441B78DBB27B61C5
:1025C8007B685A687B69DA407B68DA6000BF243729
:1025D800BD465DF8047B7047003802400024F400D3
:1025E800001BB7001C00002080B485B000AF7860E5
:1025F8000023FB607B6803F44073B3F5407F11D17F
:102608000F4B9B68FB60FB6823F4F813FB607B6847
:1026180023F0704323F44073FA681343FB60084ABD
:10262800FB689360064B1A6F7B68C3F30B0304497E
:1026380013430B6700BF1437BD465DF8047B704732
:102648000038024080B483B000AF0346FB71044AEF
:10265800FB79136000BF0C37BD465DF8047B7047FB
:102668003C0E474280B483B000AF0346FB71044A76
:10267800FB79136000BF0C37BD465DF8047B7047DB
:10268800400E474280B483B000AF7860044A7B684C
:10269800136000BF0C37BD465DF8047B704700BF70
:1026A8005C01474280B483B000AF78600B46FB7092
:1026B800FB78002B06D00A4B1A6B09497B68134339
:1026C8000B6306E0064B1A6B7B68DB430449134037
:1026D8000B6300BF0C37BD465DF8047B704700BF35
:1026E8000038024080B483B000AF78600B46FB70BE
:1026F800FB78002B06D00A4B5A6B09497B681343B9
:102708004B6306E0064B5A6B7B68DB430449134076
:102718004B6300BF0C37BD465DF8047B704700BFB4
:102728000038024080B483B000AF78600B46FB707D
:10273800FB78002B06D00A4B9A6B09497B68134338
:102748008B6306E0064B9A6B7B68DB4304491340B6
:102758008B6300BF0C37BD465DF8047B704700BF34
:102768000038024080B483B000AF78600B46FB703D
:10277800FB78002B06D00A4B1A6C09497B68134377
:102788000B6406E0064B1A6C7B68DB430449134074
:102798000B6400BF0C37BD465DF8047B704700BF73
:1027A8000038024080B483B000AF78600B46FB70FD
:1027B800FB78002B06D00A4B5A6C09497B681343F7
:1027C8004B6406E0064B5A6C7B68DB4304491340B4
:1027D8004B6400BF0C37BD465DF8047B704700BFF3
:1027E8000038024080B483B000AF78600B46FB70BD
:1027F800FB78002B06D00A4B1A6909497B681343FA
:102808000B6106E0064B1A697B68DB4304491340F9
:102818000B6100BF0C37BD465DF8047B704700BFF5
:102828000038024080B483B000AF78600B46FB707C
:10283800FB78002B06D00A4B5A6909497B68134379
:102848004B6106E0064B5A697B68DB430449134039
:102858004B6100BF0C37BD465DF8047B704700BF75
:102868000038024080B483B000AF78600B46FB703C
:10287800FB78002B06D00A4B9A6909497B681343F9
:102888008B6106E0064B9A697B68DB430449134079
:102898008B6100BF0C37BD465DF8047B704700BFF5
:1028A8000038024080B483B000AF78600B46FB70FC
:1028B800FB78002B06D00A4B1A6A09497B68134338
:1028C8000B6206E0064B1A6A7B68DB430449134037
:1028D8000B6200BF0C37BD465DF8047B704700BF34
:1028E8000038024080B483B000AF78600B46FB70BC
:1028F800FB78002B06D00A4B5A6A09497B681343B8
:102908004B6206E0064B5A6A7B68DB430449134076
:102918004B6200BF0C37BD465DF8047B704700BFB3
:102928000038024080B483B000AF78600B46FB707B
:10293800FB78002B06D00A4B1A6D09497B681343B4
:102948000B6506E0064B1A6D7B68DB4304491340B0
:102958000B6500BF0C37BD465DF8047B704700BFB0
:102968000038024080B483B000AF78600B46FB703B
:10297800FB78002B06D00A4B5A6D09497B68134334
:102988004B6506E0064B5A6D7B68DB4304491340F0
:102998004B6500BF0C37BD465DF8047B704700BF30
:1029A8000038024080B483B000AF78600B46FB70FB
:1029B800FB78002B06D00A4B9A6D09497B681343B4
:1029C8008B6506E0064B9A6D7B68DB430449134030
:1029D8008B6500BF0C37BD465DF8047B704700BFB0
:1029E8000038024080B483B000AF78600B46FB70BB
:1029F800FB78002B06D00A4B1A6E09497B681343F3
:102A08000B6606E0064B1A6E7B68DB4304491340ED
:102A18000B6600BF0C37BD465DF8047B704700BFEE
:102A28000038024080B483B000AF78600B46FB707A
:102A3800FB78002B06D00A4B5A6E09497B68134372
:102A48004B6606E0064B5A6E7B68DB43044913402D
:102A58004B6600BF0C37BD465DF8047B704700BF6E
:102A68000038024080B483B000AF03460A46FB71C9
:102A78001346BB71BB79002B08D00C4B1B78DAB21C
:102A88000A49FB791343DBB20B7009E0074B1B784B
:102A9800DAB2FB79DB43DBB204491340DBB20B70DB
:102AA80000BF0C37BD465DF8047B70470D38024007
:102AB80080B487B000AF0346FB710023FB6000239E
:102AC8007B610023FB74FB795B09DBB2FB60FB686D
:102AD800012B03D1124B1B687B6109E0FB68022BB9
:102AE80003D10F4B1B6F7B6102E00D4B5B6F7B616A
:102AF800FB7903F01F03FB607A69FB6822FA03F392
:102B080003F00103002B02D00123FB7401E0002332
:102B1800FB74FB7C18461C37BD465DF8047B704788
:102B28000038024080B400AF054B5B6F044A43F0A5
:102B38008073536700BFBD465DF8047B704700BFD4
:102B48000038024080B485B000AF0346FB71002313
:102B5800FB73094BDA68FB791340002B02D0012381
:102B6800FB7301E00023FB73FB7B18461437BD465B
:102B78005DF8047B704700BF0038024080B483B022
:102B880000AF0346FB71044AFB79137000BF0C3792
:102B9800BD465DF8047B70470E38024080B582B0B0
:102BA80000AF78607B68174A93420AD101214FF43D
:102BB8008050FFF797FE00214FF48050FFF792FEF8
:102BC8001CE07B68104A93420AD101214FF48040EF
:102BD800FFF768FE00214FF48040FFF763FE0DE029
:102BE8007B680A4A934209D101214FF40040FFF75C
:102BF80059FE00214FF40040FFF754FE00BF08378C
:102C0800BD4680BD0030014000380040003C004017
:102C180080B485B000AF786039600023FB817B68A1
:102C28001B88FB81FB8903F44153FB813B681A88AD
:102C38003B685B8813439AB23B689B8813439AB2FC
:102C48003B68DB8813439AB23B681B8913439AB2EB
:102C58003B685B8913439AB23B689B8913439AB2DA
:102C68003B68DB8913439AB2FB891343FB817B687A
:102C7800FA891A807B689B8B9BB223F400639AB213
:102C88007B689A833B681A8A7B681A8200BF14376C
:102C9800BD465DF8047B704780B48BB000AF7860A8
:102CA800396000237B830223FB840023BB84012338
:102CB8007B840023FB6100237B6100233B610023AD
:102CC800FB600023BB607B689B8B9BB223F47B6318
:102CD80023F00F039AB27B689A837B6802221A84D6
:102CE8007B689B8B7B833B689B68022B04D100230A
:102CF800BB840223FB846DE03B689B88002B02D1D8
:102D080001237B8401E002237B844B4B9B6803F403
:102D18000003002B05D0484B9B68474A23F4000367
:102D28009360454BD3F884309B09C3F30803FB60D9
:102D3800414BD3F884301B0F03F00703BB603E4BB5
:102D48005B6803F03F033B613C4A3B69B2FBF3F32A
:102D5800FA6802FB03F2BB68B2FBF3F37B613B68E2
:102D6800DB88B3F5007F0FD17B691A0A13469B00F5
:102D780013445B001A463B689B68B2FBF3F39BB2B3
:102D880005339BB2FB6112E07B8C5B011A467B69C1
:102D9800B3FBF2F213469B0013445B001A463B68F0
:102DA8009B68B2FBF3F39BB205339BB2FB61FB69F3
:102DB800234AA2FB0323DB08FB61FB699BB203F0F8
:102DC8000103BB84BB8CFA69D31A5B08FB84BB8CF8
:102DD8001B02BB84FB8C012B02D9FB8CFF2B03D974
:102DE8000223FB840023BB843B68DA88BB8C134333
:102DF8009AB2FB8C13439AB27B681A843B681A8890
:102E08003B6859883B6898883B689B8903439BB219
:102E18000B439BB213439AB27B8B13439BB243F48D
:102E280000637B837B687A8B9A8300BF2C37BD460F
:102E38005DF8047B704700BF00380240001BB700F4
:102E4800CDCCCCCC80B483B000AF78607B68002256
:102E58001A807B6800225A807B6800229A807B68EF
:102E68000022DA807B6800221A817B6800225A815E
:102E78007B6800229A817B680022DA817B680722BE
:102E88001A8200BF0C37BD465DF8047B704780B4DA
:102E980083B000AF78607B6800221A807B680022CC
:102EA8005A807B6800229A807B680022DA807B68DF
:102EB80002229A607B6800229A8100BF0C37BD46C7
:102EC8005DF8047B704780B483B000AF78600B4630
:102ED800FB70FB78002B08D07B681B889BB243F003
:102EE80040039AB27B681A8007E07B681B889BB214
:102EF80023F040039AB27B681A8000BF0C37BD46A6
:102F08005DF8047B704780B483B000AF78600B46EF
:102F1800FB70FB78002B08D07B689B8B9BB243F43B
:102F280080639AB27B689A8307E07B689B8B9BB22D
:102F380023F480639AB27B689A8300BF0C37BD463E
:102F48005DF8047B704780B483B000AF78600B46AF
:102F58007B807B681B889BB223F400639AB27B68F2
:102F68001A807B681B889AB27B8813439AB27B6865
:102F78001A8000BF0C37BD465DF8047B704780B4EB
:102F880083B000AF78600B467B807B88B3F5804FB9
:102F980008D17B681B889BB243F480439AB27B6854
:102FA8001A8007E07B681B889BB223F480439AB29F
:102FB8007B681A8000BF0C37BD465DF8047B7047FC
:102FC80080B483B000AF78600B467B807B884FF677
:102FD800FF62934208D07B681B889BB243F48073DE
:102FE8009AB27B681A8007E07B681B889BB223F43F
:102FF80080739AB27B681A8000BF0C37BD465DF8B3
:10300800047B704780B483B000AF78600B46FB70D8
:10301800FB78002B08D07B689B889BB243F00403A5
:103028009AB27B689A8007E07B689B889BB223F002
:1030380004039AB27B689A8000BF0C37BD465DF8DE
:10304800047B704780B483B000AF78600B46FB7098
:10305800FB78002B08D07B689B889BB243F0100359
:103068009AB27B689A8007E07B689B889BB223F0C2
:1030780010039AB27B689A8000BF0C37BD465DF892
:10308800047B704780B485B000AF78603960002356
:10309800BB810023FB817B689B8B9BB223F47B6302
:1030A80023F00F039AB27B689A837B6802221A8402
:1030B8007B689B8BBB813B681B88B3F5007F03D083
:1030C8003B681B88002B03D14FF48073FB810BE016
:1030D8003B681B88B3F5407F04D03B681B88B3F579
:1030E800807F01D10023FB813B685A883B6899881F
:1030F8003B689B890B439BB213439AB2FB891343EA
:103108009AB2BB8913439BB243F40063BB817B68CB
:10311800BA899A8300BF1437BD465DF8047B7047AF
:1031280080B483B000AF78607B689B899BB21846F7
:103138000C37BD465DF8047B704780B483B000AFA0
:1031480078600B467B807B687A889A8100BF0C3751
:10315800BD465DF8047B704780B483B000AF7860EB
:103168000B46FB70FB78002B08D07B681B889BB252
:1031780043F400539AB27B681A8007E07B681B8887
:103188009BB223F400539AB27B681A8000BF0C37B5
:10319800BD465DF8047B704780B483B000AF7860AB
:1031A8007B681B889BB243F480539AB27B681A8071
:1031B80000BF0C37BD465DF8047B704780B485B00E
:1031C80000AF78600B46FB700023FB81FB78012B76
:1031D80003D07B681B8BFB8102E07B689B8AFB81A9
:1031E800FB8918461437BD465DF8047B704780B4E8
:1031F80083B000AF78607B681B8A9BB218460C3797
:10320800BD465DF8047B704780B483B000AF78603A
:103218000B467B8013467B707B78002B08D07B683D
:103228009B889AB27B8813439AB27B689A8009E09C
:103238007B689B889AB27B88DB439BB213409AB227
:103248007B689A8000BF0C37BD465DF8047B7047E9
:1032580080B485B000AF78600B46FB701346BB7036
:103268000023FB810023BB81FB781B09DBB2FB81B8
:10327800FB89012202FA03F3BB81BB78002B08D03B
:103288007B689B889AB2BB8913439AB27B689A8001
:1032980009E07B689B889AB2BB89DB439BB21340E9
:1032A8009AB27B689A8000BF1437BD465DF8047BEC
:1032B800704780B485B000AF78600B467B800023F0
:1032C800FB737B681B899AB27B8813409BB2002BE7
:1032D80002D00123FB7301E00023FB73FB7B18463C
:1032E8001437BD465DF8047B704780B483B000AFE7
:1032F80078600B467B807B88DB439AB27B681A81B7
:1033080000BF0C37BD465DF8047B704780B485B0BC
:1033180000AF78600B46FB700023FB730023BB8172
:1033280000237B8100233B81FB7803F00F030122FC
:1033380002FA03F3BB81FB781B09DBB27B817B8933
:10334800012202FA03F37B817B689B889AB27B890E
:1033580013403B817B681B899AB2BB8913409BB29F
:10336800002B05D03B89002B02D00123FB7301E021
:103378000023FB73FB7B18461437BD465DF8047BBE
:10338800704780B485B000AF78600B46FB700023AF
:10339800FB81FB7803F00F03012202FA03F3FB81A0
:1033A800FB89DB439AB27B681A8100BF1437BD469C
:1033B8005DF8047B704700BF80B500AF01214FF472
:1033C8008040FFF78FFA00214FF48040FFF78AFA18
:1033D80000BF80BD80B483B000AF0346FB71044AD0
:1033E800FB79136000BF0C37BD465DF8047B70475E
:1033F8000038014080B485B000AF03460A46FB712F
:103408001346BB710023FB60BB7903F003039B00E9
:103418000F2202FA03F3FB60164ABB799B08DBB262
:10342800023352F82320FB68DB431248B979890834
:10343800C9B21A408B1C40F823200E4ABB799B085E
:10344800DBB2023352F82320F979BB7903F0030386
:103458009B0001FA03F30748B9798908C9B21A43EE
:103468008B1C40F8232000BF1437BD465DF8047B51
:10347800704700BF0038014080B483B000AF786067
:10348800044A7B68136000BF0C37BD465DF8047BB7
:10349800704700BFDC00274280B483B000AF03460A
:1034A800FB71044AFB79136000BF0C37BD465DF819
:1034B800047B70470004274280B483B000AF002328
:1034C800FB71094B1B6A03F48073002B02D00123A4
:1034D800FB7101E00023FB71FB7918460C37BD46F0
:1034E8005DF8047B704700BF0038014080B582B0AA
:1034F80000AF78607B682C4A934208D101211020E4
:10350800FFF7F0F900211020FFF7ECF947E07B689E
:10351800264A93420AD101214FF40030FFF7C2F93D
:1035280000214FF40030FFF7BDF938E07B68204AEE
:1035380093420AD101214FF48020FFF7B3F900210B
:103548004FF48020FFF7AEF929E07B68194A9342CF
:103558000AD101214FF40020FFF7A4F900214FF40C
:103568000020FFF79FF91AE07B68134A93420AD1BB
:1035780001214FF48010FFF795F900214FF48010D6
:10358800FFF790F90BE07B680C4A934207D10121C1
:103598002020FFF7A7F900212020FFF7A3F900BF9B
:1035A8000837BD4680BD00BF001001400044004000
:1035B80000480040004C004000500040001401400A
:1035C80080B58AB000AF7860396000237B62002341
:1035D8003B620023FB610023BB617B681B8A9BB2B3
:1035E8007B627B6A23F440537B623B68DB881A4624
:1035F8007B6A13437B627B6A9AB27B681A827B6818
:103608009B899BB27B627B6A23F4B05323F00C0343
:103618007B623B689A883B681B8913439AB23B6874
:103628005B8913439BB21A467B6A13437B627B6AAE
:103638009AB27B689A817B689B8A9BB27B627B6A21
:1036480023F440737B623B689B891A467B6A134369
:103658007B627B6A9AB27B689A8207F108031846F4
:10366800FEF71AFF7B68304A934203D07B682F4AE3
:10367800934202D17B693B6201E03B693B627B6814
:103688009B899BB21BB2002B0CDA3A6A13469B004B
:1036980013449A001A443B681B685B00B2FBF3F3BF
:1036A800FB610BE03A6A13469B0013449A001A44E4
:1036B8003B681B689B00B2FBF3F3FB61FB691C4A88
:1036C800A2FB03235B091B017B627B6A1B09642243
:1036D80002FB03F3FA69D31ABB617B689B899BB22F
:1036E8001BB2002B0CDABB69DB003233104AA2FB99
:1036F80003235B0903F007037A6A13437B620BE039
:10370800BB691B0132330A4AA2FB03235B0903F09E
:103718000F037A6A13437B627B6A9AB27B681A81C9
:1037280000BF2837BD4680BD00100140001401408D
:103738001F85EB5180B483B000AF78607B684FF48D
:1037480016521A607B6800229A807B680022DA8011
:103758007B6800221A817B680C225A817B680022D0
:103768009A8100BF0C37BD465DF8047B704780B472
:1037780085B000AF786039600023FB607B681B8AE6
:103788009BB2FB60FB6823F47063FB603B681A889C
:103798003B685B8813439AB23B689B8813439AB291
:1037A8003B68DB8813439BB21A46FB681343FB60F4
:1037B800FB689AB27B681A8200BF1437BD465DF871
:1037C800047B704780B483B000AF78607B680022C8
:1037D8001A807B6800225A807B6800229A807B6866
:1037E8000022DA8000BF0C37BD465DF8047B7047C5
:1037F80080B483B000AF78600B46FB70FB78002B79
:1038080008D07B689B899BB243F400539AB27B68CB
:103818009A8107E07B689B899BB223F400539AB294
:103828007B689A8100BF0C37BD465DF8047B704702
:1038380080B483B000AF78600B46FB707B681B8B4D
:103848009BB223F0FF039AB27B681A837B681B8BB9
:103858009AB2FB789BB213439AB27B681A8300BF73
:103868000C37BD465DF8047B704780B483B000AF69
:1038780078600B46FB70FB78002B0AD07B689B892D
:103888009BB26FEA43436FEA53439AB27B689A81CB
:1038980007E07B689B899BB2C3F30E039AB27B68EF
:1038A8009A8100BF0C37BD465DF8047B704780B431
:1038B80083B000AF78600B46FB70FB78002B08D014
:1038C8007B689B8A9BB243F400639AB27B689A82B6
:1038D80007E07B689B8A9BB223F400639AB27B68FB
:1038E8009A8200BF0C37BD465DF8047B704780B4F0
:1038F80083B000AF78600B467B807B88C3F30803F6
:103908009AB27B689A8000BF0C37BD465DF8047B8D
:10391800704780B483B000AF78607B689B889BB2A7
:10392800C3F308039BB218460C37BD465DF8047B09
:10393800704780B483B000AF78600B46FB707B683B
:103948001B8A9BB223F00F039AB27B681A827B68AA
:103958001B8A9AB2FB789BB213439AB27B681A828D
:1039680000BF0C37BD465DF8047B704780B483B058
:1039780000AF78600B46FB70FB78002B08D07B68A3
:103988009B899BB243F002039AB27B689A8107E055
:103998007B689B899BB223F002039AB27B689A8169
:1039A80000BF0C37BD465DF8047B704780B483B018
:1039B80000AF78600B467B807B689B899BB223F4C1
:1039C80000639AB27B689A817B689B899AB27B88EC
:1039D80013439AB27B689A8100BF0C37BD465DF8E5
:1039E800047B704780B483B000AF78600B467B805F
:1039F8007B681B8A9BB223F020039AB27B681A82E9
:103A08007B681B8A9AB27B8813439AB27B681A82B6
:103A180000BF0C37BD465DF8047B704780B483B0A7
:103A280000AF78600B46FB70FB78002B08D07B68F2
:103A38001B8A9BB243F480439AB27B681A8207E0E0
:103A48007B681B8A9BB223F480439AB27B681A82F4
:103A580000BF0C37BD465DF8047B704780B483B067
:103A680000AF78607B689B899BB243F001039AB2F0
:103A78007B689A8100BF0C37BD465DF8047B7047B0
:103A880080B483B000AF78600B46FB70FB78002BE6
:103A980008D07B689B8A9BB243F008039AB27B6884
:103AA8009A8207E07B689B8A9BB223F008039AB24C
:103AB8007B689A8200BF0C37BD465DF8047B70476F
:103AC80080B483B000AF78600B46FB707B681B8BBB
:103AD8009BB2DBB29AB27B681A837B681B8B9AB263
:103AE800FB789BB21B029BB213439AB27B681A8382
:103AF80000BF0C37BD465DF8047B704780B483B0C7
:103B080000AF78600B46FB70FB78002B08D07B6811
:103B18009B8A9BB243F020039AB27B689A8207E0A3
:103B28007B689B8A9BB223F020039AB27B689A82B7
:103B380000BF0C37BD465DF8047B704780B483B086
:103B480000AF78600B46FB70FB78002B08D07B68D1
:103B58009B8A9BB243F010039AB27B689A8207E073
:103B68007B689B8A9BB223F010039AB27B689A8287
:103B780000BF0C37BD465DF8047B704780B483B046
:103B880000AF78600B467B807B689B8A9BB223F0F2
:103B980004039AB27B689A827B689B8A9AB27B8874
:103BA80013439AB27B689A8200BF0C37BD465DF812
:103BB800047B704780B483B000AF78600B46FB701D
:103BC800FB78002B08D07B689B8A9BB243F00203EA
:103BD8009AB27B689A8207E07B689B8A9BB223F043
:103BE80002039AB27B689A8200BF0C37BD465DF823
:103BF800047B704780B483B000AF78600B467B804D
:103C080013467B707B78002B08D07B689B8A9AB21E
:103C18007B8813439AB27B689A8209E07B689B8A07
:103C28009AB27B88DB439BB213409AB27B689A8234
:103C380000BF0C37BD465DF8047B704780B487B081
:103C480000AF78600B467B8013467B7000233B6196
:103C58000023FB600023BB6000237B617B687B61E2
:103C68007B88DBB25B09DBB23B617B8803F01F0317
:103C7800FB600122FB6802FA03F3BB603B69012B7E
:103C880003D17B690C337B6109E03B69022B03D1CB
:103C98007B6910337B6102E07B6914337B617B783D
:103CA800002B06D07B6919687B69BA680A431A60D9
:103CB80006E07B691968BB68DA437B690A401A60C9
:103CC80000BF1C37BD465DF8047B704780B485B0E3
:103CD80000AF78600B467B800023FB737B681B88F2
:103CE8009AB27B8813409BB2002B02D00123FB734E
:103CF80001E00023FB73FB7B18461437BD465DF8D3
:103D0800047B704780B483B000AF78600B467B803B
:103D18007B88DB439AB27B681A8000BF0C37BD46AC
:103D28005DF8047B704780B487B000AF78600B46BD
:103D38007B800023FB6000237B610023BB600023A2
:103D4800FB747B88DBB25B09DBB2BB607B8803F06A
:103D58001F037B6101227B6902FA03F37B61BB6865
:103D6800012B07D17B689B899BB21A467B6913405C
:103D78007B6111E0BB68022B07D17B681B8A9BB271
:103D88001A467B6913407B6106E07B689B8A9BB27D
:103D98001A467B6913407B617B881B0A9BB2FB60D8
:103DA8000122FB6802FA03F3FB607B681B889BB265
:103DB8001A46FB681340FB607B69002B05D0FB6843
:103DC800002B02D00123FB7401E00023FB74FB7C71
:103DD80018461C37BD465DF8047B704780B485B033
:103DE80000AF78600B467B800023FB810023BB81FA
:103DF8007B881B0AFB81FB89012202FA03F3BB8142
:103E0800BB89DB439AB27B681A8000BF1437BD4672
:103E18005DF8047B704700BF80B400AF094B0022F7
:103E28001A60084B00225A60064B00229A60054B24
:103E38000022DA60034B044A5A6100BFBD465DF8B0
:103E4800047B7047003C0140FFFF7F0080B485B0D1
:103E580000AF78600023FB60344BFB607B689B7984
:103E6800002B4FD0314B1A687B681B68DB432F4906
:103E780013400B602D4B5A687B681B68DB432B494A
:103E880013404B607B681B791A46FB681344FB6040
:103E9800FB6819687B681A68FB680A431A60234B39
:103EA8009A687B681B68DB43204913408B601F4B73
:103EB800DA687B681B68DB431C491340CB607B686E
:103EC8005B79102B0ED1194B9A687B681B681749D0
:103ED80013438B60154BDA687B681B6813491343DF
:103EE800CB601DE0114BFB607B685B791A46FB6871
:103EF8001344FB60FB6819687B681A68FB680A430F
:103F08001A600DE07B681B791A46FB681344FB6056
:103F1800FB6819687B681B68DA43FB680A401A600B
:103F280000BF1437BD465DF8047B7047003C014074
:103F380080B483B000AF78607B6800221A607B6829
:103F480000221A717B680C225A717B6800229A71D0
:103F580000BF0C37BD465DF8047B704780B483B062
:103F680000AF7860054B1A6904497B6813430B61FD
:103F780000BF0C37BD465DF8047B7047003C01402C
:103F880080B485B000AF78600023FB73084B5A6992
:103F98007B681340002B02D00123FB7301E0002350
:103FA800FB73FB7B18461437BD465DF8047B7047EE
:103FB800003C014080B483B000AF7860044A7B685D
:103FC800536100BF0C37BD465DF8047B704700BFE6
:103FD800003C014080B485B000AF78600023FB73DB
:103FE8000023BB600C4B1B687A681340BB600A4B0C
:103FF8005A697B681340002B05D0BB68002B02D0A0
:104008000123FB7301E00023FB73FB7B1846143785
:10401800BD465DF8047B7047003C014080B483B026
:1040280000AF7860044A7B68536100BF0C37BD4617
:104038005DF8047B704700BF003C014080B582B04A
:1040480000AF01214FF48040FEF78CFB01210220D4
:10405800FEF728FB05220A212A48FDF7E8FF05227A
:104068000E212848FDF7E3FF05220F212548FDF71B
:10407800DEFF02233B7102237B710023BB71012306
:10408800FB714FF480633B603B4619461D48FDF7C2
:104098005FFE4FF400433B603B4619461948FDF765
:1040A80057FE4FF480433B600223FB713B461946A1
:1040B8001448FDF74DFE4FF480511248FDF760FF9C
:1040C80001233B7102237B710023BB710123FB7128
:1040D8004FF480533B603B4619460A48FDF738FECB
:1040E8004FF400633B603B4619460648FDF730FE37
:1040F8004FF400610348FDF743FF00BF0837BD4692
:1041080080BD00BF0004024080B586B000AF012129
:104118004FF48040FEF726FB1348FEF73FFD0023CF
:10412800BB804FF48273FB8000233B8100237B819B
:104138000023BB814FF40073FB8118233B820023CB
:104148007B820A23BB823B1D19460748FEF760FDA8
:1041580001210548FEF756FF01210348FEF7B3FE8B
:1041680000BF1837BD4680BD0038004080B582B01A
:1041780000AF24233B7100237B710023BB71002314
:10418800FB713B1D1846FDF79DFC00BF0837BD4677
:1041980080BD80B500AFFFF751FFFFF7B5FF0021E5
:1041A8000A48FEF7D0FEFFF7E1FF0022602107482A
:1041B800FFF74EF8002271210448FFF749F8002262
:1041C80050210248FFF744F800BF80BD0038004086
:1041D80080B582B000AF60213048FFF797F80346FA
:1041E800012B21D12D48FEF79BFF0346FB802C4B6A
:1041F80093F83F32DAB22A4B93F83D32DBB29A4257
:104208000ED2274B93F83F32DBB25A1CD1B2244A64
:1042180082F83F12224A98335B001344FA881A81C5
:1042280060211E48FFF7ADF871211C48FFF76EF8B2
:104238000346012B2AD11A4B93F83E32DAB2184BB7
:1042480093F83C32DBB29A4213D2154B93F83E32C4
:10425800DBB25A1CD1B2124A82F83E12104A183305
:104268005B0013449B889BB219460C48FEF765FF18
:1042780008E00B4B002283F84022002271210748F6
:10428800FEF7E6FF71210548FFF77BF85021034848
:10429800FFF73CF800BF0837BD4680BD0038004036
:1042A800A004002080B582B000AF00237B60174BCC
:1042B80055229A86154BAA22DA86144B022283F8D5
:1042C8003C22124B022283F83D22FDF77BFA0F4B6A
:1042D800B3F838319BB2552B08D10C4BB3F83A31AF
:1042E8009BB2AA2B02D108237B6001E019237B60D3
:1042F800064B0022A3F83821044B0022A3F83A21E8
:1043080000BF18460837BD4680BD00BFA004002086
:1043180080B500AFFCF74EFB02460C4BC3F8182DD6
:10432800FCF740FB0246094BC3F81C2D76F00CFD48
:104338000346DAB2054B83F8C72C76F005FD034631
:10434800DAB2024B83F8BC2C00BF80BDF006002017
:1043580080B582B000AF0346FB71FB799C2202FB5B
:1043680003F303F53673124A13440833104AC2F8AC
:10437800DC3C0F4BD3F8DC3C00221946002001F04E
:1043880062FF0B4BD3F8DC3C1A460A4BD31A9B103E
:10439800094A02FB03F3DBB219460848FCF7E4F8C4
:1043A800034B0022C3F8DC2C00BF0837BD4680BD94
:1043B800F0060020D0090020976FF99631450008D3
:1043C80084B080B483B000AF07F1100C8CE80F0004
:1043D8000023FB710F4B93F8CA3C002B04D1FB8AD6
:1043E8004FF6FF7293420CD03B7C03F00803002B7E
:1043F80005D07B7C1B0903F00303002B01D00123AC
:10440800FB71FB7918460C37BD465DF8047B04B098
:10441800704700BFF006002080B582B000AF3D4B6A
:1044280093F84C32DBB2002B01D029F01FFB3A4B3A
:10443800D3F8E83C002B15D0374B93F8E43C002B1D
:1044480037D0354B002283F8E42C334BD3F8E83CC3
:10445800314A92F8EC2C104698472F4B0022C3F8AB
:10446800E82C26E02C4BD3F8B430002B06D02A4B8E
:10447800D3F8AC30DB00294A134400E000237B600A
:104488007B68002B15D07B681B687A681279104608
:104498009847214BD3F8B430013B1F4AC2F8B430D7
:1044A8001D4BD3F8AC30013303F003031A4AC2F8AA
:1044B800AC30184B93F84A32DBB203F00803002BF8
:1044C80023D0FCF76FFA38603B68002B19D0114BEA
:1044D80093F84A32DBB223F00803DAB20D4B83F8C3
:1044E8004A223B680E4A9B1A9B100E4A02FB03F3B2
:1044F800DBB21846FFF72CFF074B002283F8142D78
:1045080003E0054B012283F8142D00BF0837BD4690
:1045180080BD00BFA0040020F00600207C0700201A
:10452800D0090020976FF99680B58EB002AF034688
:10453800FB710023FB62FB799C2202FB03F303F56A
:104548003673654A13440833BB6200BF0121B86A59
:10455800FCF738FCBB6A0833BA6A527813447B62AA
:1045680007F10803796A184601F0DAFB7B6A3B62B7
:104578006A4607F1180393E8030082E8030007F18D
:1045880008030FCBFFF71CFF0346002B00F09680B3
:10459800514B93F88D3D5BB2002B56DA07F10803B7
:1045A800184600F0F9FB0346002B4ED0FF214B487C
:1045B800FCF746F9484B93F88D3D03F07F03DAB2D8
:1045C800454B83F88D2D3B6A1B7803F01003002BB5
:1045D80008D0414B93F88D3D43F01003DAB23E4BBF
:1045E80083F88D2D3C4B93F88E3D03F01003002B80
:1045F8002BD03B6A1B7803F00703012B25D1364BE0
:1046080093F8A03D002B20D0334B93F88E3D23F038
:104618001003DAB2304B83F88E2D2F4B93F88A2D86
:104628002D4B93F8A03D184611B22B4A9C2303FB4F
:1046380000F3134403F539730A461A80264B93F89E
:10464800A03D19462648FBF78FFF3B6A1B7803F00D
:104658000703032B38D801A252F823F08F4600082D
:1046680075460008AD460008B9460008BB6A1D4AF1
:104678009B1A9B101C4A02FB03F3DBB219461B482A
:10468800FBF772FF23E0FB7919461948FBF76CFF2B
:10469800114B93F8E53C002B18D00F4B012283F8FF
:1046A800992D13E0FB7919461248FBF75DFF0EE0E0
:1046B800FB7919461048FBF757FF08E0B86AFCF782
:1046C80017FA0023BB6202E000BF00E000BF00BF92
:1046D8003037BD4680BD00BFF0060020BD4C000845
:1046E800C10C0708D0090020976FF996AD5B000848
:1046F80065130708ED4A00087B48000880B584B0B8
:1047080000AF0346FB71FB799C2202FB03F303F520
:1047180036730B4A13440833FB600023BB60FB6805
:1047280000229A800121F868FCF77EFBB860FB79CB
:1047380019460448FBF718FF00BF1037BD4680BD77
:10474800F0060020AD0B070880B485B000AF034623
:10475800FB710B46BB7113467B710323FB73FB791B
:10476800002B0ED07B79002B02D1FB7B0233FB732D
:10477800FB7B0233FB73FB79032B02D1FB7B0633F4
:10478800FB73BB79002B08D0FB7B0433FB73BB792D
:10479800032B02D1FB7B0633FB73FB7B18461437D4
:1047A800BD465DF8047B704780B584B000AF786083
:1047B80039607B6839680222184677F061F97B68AE
:1047C80002337B607B683A6892781A707B680133A1
:1047D8007B603B685B789B08DBB203F00303FB73E9
:1047E800FB7B002B1BD03B689A883B1D1146184663
:1047F80076F0DDFAFB7B022B07D13B68DA883B1D9C
:104808001146184676F0D3FA09E078683B68063313
:104818000822194677F034F97B6808337B603B68D7
:104828005B789B09FB73FB7B002B1ED03B681B78D6
:1048380003F04003002B06D13B68DA893B1D114683
:10484800184676F0B4FAFB7B022B07D13B681A8A2C
:104858003B1D1146184676F0AAFA06E078683B68D0
:1048680010330822194677F00BF900BF1037BD4600
:1048780080BD80B58CB000AF0346FB71FB799C22EC
:1048880002FB03F303F53673904A13440833FB62C3
:10489800FB6A0833FA6A527813443B623A6A07F1B2
:1048A80008031146184601F03BFA03461A463B6ACC
:1048B80013443B623B6A1B78022B7BD1FB799C2219
:1048C80002FB03F303F53673804A134408330B21C4
:1048D8001846FCF7A9FA78627B7A9B09DBB2032BAE
:1048E80009D17B6AD81C07F108031033082219463E
:1048F80077F0C6F806E07B6A0333082200211846E1
:1049080077F07AFA714B93F88D3D03F02003002B72
:1049180043D03B6A01333B627B6A07F120021146B0
:10492800184676F02FFA7B6A1B889AB2674BA3F871
:10493800CB2C664BB3F8CB3C9BB2DBB219460320B9
:1049480001F016FB614BB3F8CB3C9BB21B0A9BB240
:10495800DBB21946042001F00BFB3B6A1A787B6A2C
:104968009A707B6A9A78FB7910B2584A9C2101FBAD
:1049780003F3134403F5397302461A80FB79194689
:104988005348FBF7F1FD514B93F88D3D23F020037D
:10499800DAB24E4B83F88D2D94E0FB799C2202FB12
:1049A80003F303F53673494A134408331846FCF7F2
:1049B8009FF887E03B6A1B78042B00F083803B6AF2
:1049C8001B78082B5AD1414B93F8E53C002B79D042
:1049D8003E4BD3F8E03C08211846FCF725FA03467D
:1049E8001B7803F00303DBB2032B6BD1374B012297
:1049F80083F8982D3B6A01333B6207F1200319467F
:104A0800344876F0BFF907F120031946324876F0AA
:104A1800B9F93B6A1A782D4B83F8D02C3B6A0133DD
:104A28003B6207F1200319462C4876F0ABF9274B77
:104A3800B3F8CB3C9BB2DBB21946032001F098FADD
:104A4800224BB3F8CB3C9BB21B0A9BB2DBB2194694
:104A5800042001F08DFA1D4BB3F8C83CDBB21946AF
:104A6800012001F085FA194BB3F8C83C1B0A9BB228
:104A7800DBB21946022001F07BFA23E03B6A1B787F
:104A8800062B1FD17B7A9B09DBB2032B1AD1FB794A
:104A98009C2202FB03F303F536730C4A13440833D4
:104AA80008211846FCF7C0F9B862B86A07F108038C
:104AB80010330822194676F0E3FFFB7919460848B7
:104AC800FBF752FD00BF3037BD4680BDF006002021
:104AD800F51C0708B8130020B5130020BB130020ED
:104AE8001D27070880B584B000AF0346FB71FB792A
:104AF8009C2202FB03F303F53673054A134408337B
:104B0800FB60F868FBF7F4FF00BF1037BD4680BDB7
:104B1800F006002080B483B000AF78600B46FB70CD
:104B28007B6801331A787B68013302F03F02D2B206
:104B38001A707B6801331B785AB2FB789B015BB211
:104B480013435AB27B680133D2B21A7000BF0C37D4
:104B5800BD465DF8047B704780B483B000AF7860D1
:104B68000B46FB707B6801331A787B68013322F0AF
:104B78000C02D2B21A707B6801331B785AB2FB78E8
:104B88009B005BB213435AB27B680133D2B21A70EE
:104B980000BF0C37BD465DF8047B704780B483B016
:104BA80000AF0346FB71074B93F88D3D43F00103BB
:104BB800DAB2044B83F88D2D00BF0C37BD465DF883
:104BC800047B7047F006002080B58AB000AF03462A
:104BD800FB7100237B6200233B62294BD3F8E03C46
:104BE8000E211846FCF720F9386203233B7307F1BE
:104BF8000C03023308222349184676F041FF3B6A2A
:104C08009B7A7B733B6A991C07F10C030A330822D1
:104C1800184676F035FF0023BB77194B93F88D3D86
:104C280043F02003DAB2164B83F88D2D07F10C03FD
:104C3800184600F0D5FD78627B6A002B11D0104B26
:104C480093F88A3D002B03D00D4B93F88A3D00E082
:104C5800E8230B4AD2F8E02C1946002001F000F8AE
:104C680009E0074BD3F8E03C1846FBF741FF044B3B
:104C78000022C3F8E02C00BF2837BD4680BD00BF26
:104C8800F0060020C113002080B483B000AF0346B3
:104C9800FB71074B93F88E3D43F00803DAB2044BDF
:104CA80083F88E2D00BF0C37BD465DF8047B704736
:104CB800F006002080B582B000AF0346FB71154BAB
:104CC80093F8A03D002B16D0124B93F8A03D1A463E
:104CD8009C2303FB02F303F536730E4A134403F1D6
:104CE8000802FB79EB21184600F0BAFF094B0022B5
:104CF80083F8A02D0AE0074AFB7982F8983D054B16
:104D0800EB22C3F89C2D0448FBF7E5FE00BF0837EB
:104D1800BD4680BDF00600202D5C000880B582B03D
:104D280000AF00237B6007E0194B93F84C32DBB2ED
:104D3800002B01D028F09AFE164B93F8E43C002B88
:104D4800F2D0134B93F84B32DBB203F02003002B65
:104D580007D10F4B93F84B32DBB203F0DF03002B84
:104D680010D00B4B93F84B32DBB203F02003002B2F
:104D780001D0E12200E0E922064B83F88A2D4FF0AA
:104D8800FF337B607B6818460837BD4680BD00BF8F
:104D9800A0040020F006002080B582B000AF786043
:104DA8007B685B789B0803F00303022B0BD17B68BD
:104DB800DA880D4BB3F8CB3C9BB29A420CBF012367
:104DC8000023DBB20CE07B6806330822074918464B
:104DD80076F07EFF0346002B0CBF01230023DBB2D5
:104DE80018460837BD4680BDF0060020C1130020D4
:104DF80080B586B000AF0346FB71FB79002B03D169
:104E08001948FBF768FE2BE0FB799C2202FB03F3B1
:104E180003F53673154A134408337B610C2178690E
:104E2800FCF702F83861114BD3F8092E07F10E038D
:104E38001146184675F024FB3B6902221A70FA895C
:104E48003B695A80094BB3F8C82C3B695A81074B18
:104E5800002283F88A2DFB7919460548FBF746FBA3
:104E680000BF1837BD4680BDF94D0008F006002088
:104E78007D4E000880B58AB000AF0346FB71002361
:104E88007B62FB799C2202FB03F303F536734F4ADE
:104E9800134408334D4AC2F8E03C4C4BD3F8E03C8D
:104EA8000C211846FBF7C0FF3862484BB3F8CB3CDF
:104EB8009BB24FF6FD72934201D8022300E0032310
:104EC8003B733B7B032B08D107F10C030233082209
:104ED8003F49184676F0D4FD04E03C4BB3F8CB3C90
:104EE8009BB2FB813B6A1B787B737B7B032B09D1CD
:104EF8003B6A991C07F10C030A330822184676F01E
:104F0800BFFD02E03B6A5B88FB820123BB772F4B26
:104F1800D3F8E83C002B12D02C4B93F8E43C002B40
:104F28000DD107E02B4B93F84C32DBB2002B01D0AC
:104F380028F09CFD254B93F8E43C002BF2D007F1B8
:104F48000C03184600F04CFC78627B6A002B17D1E2
:104F58001E4B93F88E3D43F01003DAB21B4B83F8D7
:104F68008E2D1A4BD3F8E03C1A461B4BD31A9B10D4
:104F78001A4A02FB03F3DAB2144B83F8A02D1DE0A2
:104F8800124B93F88A3D002B04D0104B93F88A3DBE
:104F98001AB200E0E8220D4BD3F8E03C9A800B4BA4
:104FA800D3F8E03C1A460C4BD31A9B100B4A02FB71
:104FB80003F3DBB219460A48FBF7D6FA034B002283
:104FC800C3F8E02C00BF2837BD4680BDF00600209E
:104FD800C1130020A0040020D0090020976FF99683
:104FE800C10C070880B588B000AF0346FB710023E9
:104FF800FB77FB799C2202FB03F303F53673AA4A7D
:10500800134408337B610023BB617B6908337A69E9
:105018005278991807F110030222184676F030FDED
:105028000023FB813B7C002B11D105217869FBF71C
:10503800FFFDB861BB690122DA70BB6904339A4A83
:1050480092F8D02C1A70BB6900229A70A5E13B7CBB
:10505800042B11D105217869FBF7EAFDB861BB691A
:105068000122DA70BB6904338F4A92F8CF2C1A7088
:10507800BB6900229A7090E13B7C402B0FD106213E
:105088007869FBF7D5FDB861BB690222DA70BB69A4
:10509800043358221A70BB6900229A707DE13B7C68
:1050A800412B11D105217869FBF7C2FDB861BB69B5
:1050B8000122DA70BB6904337B4A92F8A82C1A7073
:1050C800BB6900229A7068E13B7C432B11D1052112
:1050D8007869FBF7ADFDB861BB690122DA70BB697D
:1050E8000433714A92F8AA2C1A70BB6900229A708C
:1050F80053E13B7C452B12D113217869FBF798FDCE
:10510800B861BB690F22DA70BB6904330F226749A3
:10511800184676F0B5FCBB6900229A703DE13B7CED
:10512800462B11D105217869FBF782FDB861BB696F
:105138000122DA70BB6904335B4A92F8BA2C1A7000
:10514800BB6900229A7028E13B7C472B11D10521CD
:105158007869FBF76DFDB861BB690122DA70BB693C
:105168000433514A92F8BB2C1A70BB6900229A701A
:1051780013E13B7C492B11D105217869FBF758FDD8
:10518800B861BB690122DA70BB690433464A92F8F8
:10519800BC2C1A70BB6900229A70FEE03B7C4B2B3A
:1051A80013D106217869FBF743FDB861BB69022278
:1051B800DA703D4BB3F8C53C9AB2BB690433D2B23E
:1051C8001A70BB6900229A70E7E03B7C4C2B11D126
:1051D80005217869FBF72CFDB861BB690122DA70FB
:1051E800BB690433304A92F8C72C1A70BB69002295
:1051F8009A70D2E03B7C502B12D106217869FBF7DC
:1052080017FDB861BB690222DA70274BB3F8C82CC6
:10521800BB690433D2B21A70BB6900229A70BCE031
:105228003B7C522B11D105217869FBF701FDB86150
:10523800BB690122DA70BB6904331B4A92F8CA2C95
:105248001A70BB6900229A70A7E03B7C532B13D1DC
:1052580006217869FBF7ECFCB861BB690222DA70B9
:10526800114BB3F8CB3C9AB2BB690433D2B21A7073
:10527800BB6900229A7090E03B7C542B18D1062120
:105288007869FBF7D5FCB861BB690222DA70064B76
:10529800B3F8CD3C9AB2BB690433D2B21A70BB6979
:1052A80000229A7079E000BFF00600209B130020CE
:1052B8003B7C552B16D106217869FBF7B9FCB86100
:1052C800BB690222DA704FF4FA73FB81BB690433BD
:1052D80007F10E010222184676F0D2FBBB690022C4
:1052E8009A705AE03B7C562B0DD104217869FBF764
:1052F8009FFCB861F423FB77BB690022DA70BB69B5
:1053080000229A7049E03B7C582B16D10621786917
:10531800FBF78EFCB861BB690222DA704FF4487360
:10532800FB81BB69043307F10E010222184676F0AF
:10533800A7FBBB6900229A702FE03B7C592B0FD149
:1053480005217869FBF774FCB861BB690122DA7042
:10535800BB69043303221A70BB6900229A701CE0EF
:105368003B7C5A2B0FD105217869FBF761FCB861AA
:10537800BB690122DA70BB69043340221A70BB6929
:1053880000229A7009E004217869FBF751FCB861A2
:10539800F423FB77BB690022DA703A7CBB695A7048
:1053A800BB69FA7F1A70FB7919460348FBF7DCF8EA
:1053B80000BF2037BD4680BDC553000880B584B006
:1053C80000AF0346FB71FB799C2202FB03F303F554
:1053D8003673184A13440833FB600023BB60FB682C
:1053E8000833FA6852781344BB60BB685B78462B75
:1053F80007D0BB685B78472B03D0BB685B78492B29
:1054080010D10521F868FBF713FCB860BB680122CE
:10541800DA70BB680433074A92F8BA2C1A70BB6872
:1054280000229A70F868FBF763FB00BF1037BD468F
:1054380080BD00BFF006002080B588B000AF0346ED
:10544800FB710023FB77FB799C2202FB03F303F536
:105458003673864A13440833BB61BB690833BA699B
:10546800527813447B617B693B610023FB60FB7FBF
:105478003B723B691B787B720023BB727B690333E9
:105488007B613B691B78002B0BD17B691A78774BC2
:1054980083F8D02C754B93F8D03C184600F0AAFF3F
:1054A800CDE03B691B78042B05D17B691A786F4BDB
:1054B80083F8CF2CC3E03B691B78412B05D17B696E
:1054C8001A786A4B83F8A82CB9E03B691B78432B00
:1054D80005D17B691A78654B83F8AA2CAFE03B6944
:1054E8001B78452B05D10F227969614876F0C8FAF7
:1054F800A5E03B691B78462B05D17B691A785B4B85
:1055080083F8BA2C9BE03B691B78472B05D17B6954
:105518001A78564B83F8BB2C91E03B691B78492BD2
:1055280005D17B691A78514B83F8BC2C87E03B691D
:105538001B784B2B1CD17B691B789AB24B4BA3F879
:10554800C52C4A4BB3F8C53C9BB2DBB219464FF4A5
:105558000E7000F057FD454BB3F8C53C9BB21B0AD3
:105568009BB2DBB2194640F2392000F04BFD66E0F1
:105578003B691B784A2B05D1082279693D4876F0AA
:105588007FFA5CE03B691B784C2B05D17B691A7864
:10559800364B83F8C72C52E03B691B78502B18D147
:1055A8007B691B789AB2314BA3F8C82C2F4BB3F800
:1055B800C83CDBB21946012000F0DAFC2B4BB3F8EB
:1055C800C83C1B0A9BB2DBB21946022000F0D0FC93
:1055D80035E03B691B78522B05D17B691A78234B40
:1055E80083F8CA2C2BE03B691B78532B1AD17B69B3
:1055F8001B789AB21D4BA3F8CB2C1C4BB3F8CB3CB1
:105608009BB2DBB21946032000F0B2FC174BB3F88B
:10561800CB3C9BB21B0A9BB2DBB21946042000F0BC
:10562800A7FC0CE03B691B78542B06D17B691B78DF
:105638009AB20E4BA3F8CD2C01E0F423FB77FB7F45
:105648003B720321B869FBF7F3FAF86007F1080326
:1056580003221946F86876F013FAFB7919460648CA
:10566800FAF782FF00BF2037BD4680BDF006002054
:105678009B130020AD130020F55B070880B58CB0A4
:1056880000AF78600023BB6200237B620023FB62CB
:1056980000233B627B685B78002B09D07B68187815
:1056A8007B685B7801221946FFF74EF80346FB62D8
:1056B800FB6A7B627B6A01337B627B6803F10A01C8
:1056C80007F1080306330822184676F0D9F90023B3
:1056D800FB82424BB3F8C83CBB817B68991C07F13D
:1056E800080310330822184676F0CAF93B4B93F8A2
:1056F800C73CBB72394B93F8C73C0133DAB2374B1E
:1057080083F8C72CBA7A354B83F88F2D07F1080335
:1057180002220021184676F06FFB3B7A23F007033C
:10572800DBB23B723B7A43F00303DBB23B723B7A5A
:1057380023F02003DBB23B723B7A43F02003DBB259
:105748003B723B7A23F04003DBB23B723B7A43F077
:105758004003DBB23B727B685A7807F108031146B5
:105768001846FFF7F9F97B7A23F03003DBB27B7236
:105778007B7A7B727B681A7807F108031146184612
:10578800FFF7C8F9154BD3F8183D7A6AD2B211461B
:105798001846FBF74DFA38627A6A0021386A76F0C3
:1057A8002BFB07F108031946386AFEF7FDFF3A6A32
:1057B800FB6A13443B623B6A04221A70FB6AD8B244
:1057C800064BD3F8182D0123002169F0B4FFB86205
:1057D800BB6A18463037BD4680BD00BFF0060020C2
:1057E80080B584B000AF78600023FB60264B93F847
:1057F8008D3D63F07F03DAB2234B83F88D2D7868F3
:10580800FFF73CFFF860FB68002B02D1FFF786FA30
:10581800F860FB68002B24D11B4B93F88D3D03F0F7
:105828001003002B15D0184B93F88D3D63F07F03C0
:10583800DAB2154B83F88D2D134B002283F8A02D77
:105848007B689B7C4FF4487219461048FAF7F2FEC1
:1058580014E00D4BEB2283F88A2D4FF0FF33FB60E9
:105868000CE0FB68B3F1FF3F08D1074B93F88D3D7F
:1058780023F01003DAB2044B83F88D2DFB68184629
:105888001037BD4680BD00BFF0060020BD4C0008A3
:1058980080B58CB000AF78600023FB62082178687F
:1058A800FBF7C2FAB862012202210220FEF74CFF80
:1058B80003461A46BB6A5A7107F10C0302220021FB
:1058C800184676F099FA3B7B23F00703DBB23B736B
:1058D8003B7B43F00103DBB23B733B7B23F02003AC
:1058E800DBB23B733B7B5AB2BB6A1B795B015BB291
:1058F80003F020035BB213435BB2DBB23B733B7B29
:1059080023F04003DBB23B733B7B43F04003DBB245
:105918003B7307F10C0302211846FFF71DF907F145
:105928000C0302211846FFF7F5F87B7B23F03003C0
:10593800DBB27B737B7B7B731E4B93F8C73CBB73DB
:105948001C4B93F8C73C0133DAB21A4B83F8C72CC7
:10595800BB6A1B7903F00103002B03D0BA7B154BFC
:1059680083F88F2D134BB3F8C83C3B82BB6A5B8826
:105978007B82104BB3F8C83C7B83BB6A1B88BB8314
:10598800FB6A002B03D0FB6A13F1150F0CD1BB6A1D
:105998005B7919467868FBF77BF9786207F10C03A5
:1059A8001946786AFEF700FFFB6A18463037BD468D
:1059B80080BD00BFF006002080B582B000AF03466E
:1059C800FB71FB7919460348FAF790FD00BF0837C9
:1059D800BD4680BDE159000880B586B000AF0346DA
:1059E800FB7100237B61FB799C2202FB03F303F527
:1059F8003673294A13440833274AC2F8E03C264B39
:105A0800D3F8E03C08211846FBF70EFA38613B69E9
:105A18005B881A464FF6F07313404FF6F0729342C4
:105A280014BF01230023DBB2FB731B4BD3F8E03C0C
:105A38003A6992799A70184B002283F88A2D164B8E
:105A4800002283F8902D144BD3F8E03C1846FFF75A
:105A58001FFF78617B69002B19D1FB7B002B01D0DC
:105A680000F0D8F97B69002B11D10B4B0B4AC3F816
:105A7800E82C094AFB7982F8EC3C3B695879064BDB
:105A8800D3F8E02C0123002169F055FE786100BFAE
:105A98001837BD4680BD00BFF0060020A95A00088F
:105AA80080B586B000AF0346FB71FB799C2202FBF0
:105AB80003F303F53673374A13440833354AC2F8FB
:105AC800E03C344BD3F8E03C08211846FBF7ACF92E
